:020000040800F2
:100000000827002035020008DD250008431D0008F0
:10001000D9250008BB060008C92D00080000000013
:100020000000000000000000000000009D0100082A
:10003000E106000800000000E1010008512B000863
:100040004F0200084F0200084F0200084F0200084C
:100050004F0200084F0200084F0200084F0200083C
:100060004F0200084F0200084F0200084F0200082C
:100070004F0200084F0200084F0200084F0200081C
:100080004F0200084F0200084F0200084F0200080C
:10009000B92D0008C1060008D10600084F0200086B
:1000A0004F020008ED2B00084F0200084F02000825
:1000B0004F020008FD2B00084F0200084F02000805
:1000C0004F0200084F0200084F0200084F020008CC
:1000D0004F020008C92C00084F0200084F02000818
:1000E0004F0200084F0200084F02000800F002F81B
:1000F00000F045F80AA090E8000C82448344AAF17D
:100100000107DA4501D100F03AF8AFF2090EBAE87A
:100110000F0013F0010F18BFFB1A43F0010318473B
:10012000304E0000504E0000103A24BF78C878C10D
:10013000FAD8520724BF30C830C144BF04680C60ED
:10014000704700000023002400250026103A28BF35
:1001500078C1FBD8520728BF30C148BF0B60704739
:10016000642900F0CF80752900F0CC80782900F058
:100170000581002070471FB51FBD10B510BD00F0F0
:1001800062FA1146FFF7F7FF02F044FE00F080FA32
:1001900003B4FFF7F2FF03BC00F088FA224B1968A2
:1001A0000868B0E8F00F80F30988BFF36F8F4FF055
:1001B000000080F311884EF00D0E70470000000023
:1001C00006480068006880F3088862B661B6BFF32D
:1001D0004F8FBFF36F8F00DF00BF00BF08ED00E05F
:1001E000EFF30980BFF36F8F0F4B1A6820E9F00F10
:1001F000106008B54FF0500080F31188BFF34F8FA7
:10020000BFF36F8F03F0EEFE4FF0000080F3118814
:10021000BDE8084019680868B0E8F00F80F3098865
:10022000BFF36F8F704700BF34000020EFF30580ED
:10023000704700000948804709480047FEE7FEE78D
:10024000FEE7FEE7FEE7FEE7FEE7FEE7FEE7FEE786
:1002500004480549054A064B70470000EB2B00088F
:10026000ED000008081F00200827002008220020B9
:10027000082200200FB41CB5074B06AA7B44694630
:100280000090059800F0C7F90020694600F0D6F903
:100290001CBC5DF814FB0000BD0300002DE9F0411B
:1002A0000E460446002020622046E168884730B3AD
:1002B000252805D0D4E901219047206A401CF2E7A7
:1002C000E168204600278847050018D0A5F14100C5
:1002D000192802D820354FF40067324629462046B7
:1002E0002760FFF73DFF40B1012804D0F61D26F03E
:1002F00007060836D8E7361DD6E72846DAE7206A2B
:10030000BDE8F0812DE9F04106460024106875290A
:10031000314616A510D0AFF30080002802DA404223
:1003200013A507E031688A0701D512A502E0490745
:1003300004D511A5012401E0AFF3008000210A22B9
:1003400006F1240709E0B0FBF2FCB0FBF2F302FB7C
:100350001C00303078541846491C0028F3D123463D
:100360002A463046BDE8F04100F0F7B80000000032
:100370002D0000002B0000002000000070B5044696
:100380000D4621461068AFF300802188090502D58B
:100390000F4A7A4402E00E4A7A440E32002104F1F8
:1003A000240305E000F00F060009965D5E54491C29
:1003B0000028F7D120780023000704D5702D02D043
:1003C00009B1022311322046BDE8704000F0C5B8E3
:1003D000624B0000032A40F2308010F0030C00F062
:1003E000158011F8013BBCF1020F624498BF11F86F
:1003F00001CB00F8013B38BF11F8013BA2F1040228
:1004000098BF00F801CB38BF00F8013B11F003039F
:1004100000F02580083AC0F0088051F8043B083A03
:1004200051F804CBA0E80810F5E7121D5CBF51F8A5
:10043000043B40F8043BAFF30080D20724BF11F81F
:10044000013B11F801CB48BF11F8012B24BF00F884
:10045000013B00F801CB48BF00F8012B704710B5F5
:10046000203AC0F00B80B1E81850203AA0E81850AC
:10047000B1E81850A0E81850BFF4F5AF5FEA027C6D
:1004800024BFB1E81850A0E8185044BF18C918C0DC
:10049000BDE810405FEA827C24BF51F8043B40F87D
:1004A000043B08BF7047D20728BF31F8023B48BF62
:1004B00011F8012B28BF20F8023B48BF00F8012BA0
:1004C00070474FF000020429C0F0128010F0030CB6
:1004D00000F01B80CCF1040CBCF1020F18BF00F837
:1004E000012BA8BF20F8022BA1EB0C0100F00DB8E6
:1004F0005FEAC17C24BF00F8012B00F8012B48BF44
:1005000000F8012B70474FF0000200B513469446E7
:100510009646203922BFA0E80C50A0E80C50B1F15B
:100520002001BFF4F7AF090728BFA0E80C5048BF6F
:100530000CC05DF804EB890028BF40F8042B08BF0D
:10054000704748BF20F8022B11F0804F18BF00F809
:10055000012B70477047704770472DE9F0470D46F3
:1005600099469246044600F124080168880604D59D
:10057000E06921F01001216000E00120A84201DDC6
:10058000471B00E00027A1697A1902EB0900081A4D
:10059000A0612078C00602D42046AFF30080002678
:1005A00008E0D4E901211AF806009047206A401CAF
:1005B000761C20624E45F4DB2078C0060AD5204622
:1005C000AFF3008006E0D4E9012130209047206A93
:1005D000401C2062381EA7F10107F4DC07E0D4E9D3
:1005E000012118F805009047206A401C2062281E4F
:1005F000A5F10105F3DC2046AFF30080207800066A
:1006000002D50220BDE8F0870120FBE701694A1C02
:1006100002610878704700B58FB0CDE90131002143
:10062000059105497944CDE9031011466846FFF765
:1006300035FE0FB000BD0000E5FFFFFF0A6802F8BD
:10064000010B0A607047754600F02CF8AE460500B5
:100650006946534620F00700854618B020B5FFF7DD
:10066000F7FDBDE820404FF000064FF000074FF0C7
:1006700000084FF0000B21F00701AC46ACE8C009C0
:10068000ACE8C009ACE8C009ACE8C0098D467047C9
:1006900010B50446AFF300802046BDE81040FFF7D8
:1006A00077BD000000487047A41E002001491820B3
:1006B000ABBEFEE726000200704700BFFEE7000069
:1006C00010B5024800F0FEF810BD0000C00B00207D
:1006D00010B5024800F0F6F810BD0000C00B002075
:1006E000704772B600BFFEE710B50446204601F021
:1006F000A9FC10BD704703207047000070B5044688
:100700000025204600F01EF8051E0ED00748007890
:1007100020F00100401C054908702A4604A1084841
:10072000FFF7A8FD064802F0B3FA70BD0A000020EA
:1007300043414E315F4552524F523D25750D0A00DF
:10074000E80B00200146486A704770B5044694F8EB
:100750002050012D01D0022D7DD151B92068C068F3
:1007600000F0030080B9606A40F40010606201206C
:1007700070BD2068006900F0030028B9606A40F489
:10078000001060620120F3E7206800F5D87000EBEC
:100790000110006800F004009060906840B9206883
:1007A00000F5D87000EB01100068400D106007E004
:1007B000206800F5D87000EB01100068C008506098
:1007C000206800F5D87000EB0110006800F002000E
:1007D000D060206800F5D87000EB0110406800F090
:1007E0000F001061206800F5D87000EB0110406820
:1007F00000F47F40000A9061206800F5D87000EB9B
:1008000001104068000C5061206800F5D87000EBC2
:10081000011080681870206800F5D87000EB011096
:10082000806800F47F40000A5870206800F5D87096
:1008300000EB0110806800F47F00000C98702068C5
:1008400000F5D87000EB01108068000ED8702068A9
:1008500000F5D87000E02FE000EB0110C0681871BF
:10086000206800F5D87000EB0110C06800F47F40EC
:10087000000A5871206800F5D87000EB0110C068BC
:1008800000F47F00000C9871206800F5D87000EB30
:100890000110C068000ED87131B92068C06840F0FE
:1008A00020002668F06005E02068006940F0200024
:1008B0002668306100205BE7606A40F48020606257
:1008C000012055E72DE9F05F0446002520684669C0
:1008D0002068D0F80490206887682068D0F80CA0C1
:1008E0002068D0F810B02068D0F8188006F0010019
:1008F000002855D007F00100C0B1012021688860B0
:1009000007F0020018B1204600F0B6FA0EE007F03A
:10091000040010B145F4006508E007F0080010B1CC
:1009200045F4805502E0204600F0A5FA07F48070F7
:10093000C8B14FF480702168886007F4007018B166
:10094000204600F09BFA0EE007F4806010B145F4F9
:10095000005508E007F4006010B145F4804502E05E
:10096000204600F08AFA07F48030C8B14FF4803096
:100970002168886007F4003018B1204600F080FA42
:100980000EE007F4802010B145F4004508E007F4BC
:10099000002010B145F4803502E0204600F06FFAE7
:1009A00006F0080038B10AF0100020B145F40075D7
:1009B00010202168C86006F0040040B10AF0080069
:1009C00028B108202168C860204600F0B9F906F077
:1009D000020038B12068C06800F0030010B1204662
:1009E00000F0CCF906F0400038B10BF0100020B157
:1009F00045F4806510202168086106F0200040B1B0
:100A00000BF0080028B1082021680861204600F09A
:100A1000E3F906F0100038B12068006900F0030027
:100A200010B1204600F0F6F906F4003040B109F0AC
:100A3000100028B1102021684860204600F01AFA02
:100A400006F4803040B109F0080028B10820216880
:100A50004860204600F015FA06F4004088B309F01B
:100A6000040078B306F4807020B108F0010008B1EA
:100A700045F0010506F4007020B108F0020008B14D
:100A800045F0020506F4806020B108F0040008B1CA
:100A900045F0040506F40060A0B108F0700088B1CC
:100AA00008F07000402817D006DC10280BD0202852
:100AB0000CD0302819D10CE0502810D0602814D167
:100AC00010E01DE019E045F008050FE045F01005C5
:100AD0000CE045F0200509E045F0400506E045F052
:100AE000800503E045F4807500E000BF00BF20688A
:100AF000806920F0700021688861042021684860C6
:100B00002DB1606A284360622046FFF7F7FDBDE81B
:100B1000F09F70B504460CB9012070BD94F8200018
:100B200010B9204600F0B0F82068006840F00100DD
:100B30002168086000F036FB05460DE000F032FB4E
:100B4000401B0A2808D9606A40F400306062052022
:100B500084F820000120E0E72068406800F00100F0
:100B60000028EBD02068006820F0020021680860AF
:100B700000F018FB05460DE000F014FB401B0A28AE
:100B800008D9606A40F400306062052084F82000D3
:100B90000120C2E72068406800F002000028EBD185
:100BA000207E012806D12068006840F0800021687E
:100BB000086005E02068006820F080002168086077
:100BC000607E012806D12068006840F0400021685E
:100BD000086005E02068006820F040002168086097
:100BE000A07E012806D12068006840F0200021681E
:100BF000086005E02068006820F020002168086097
:100C0000E07E012806D12068006820F010002168ED
:100C1000086005E02068006840F010002168086066
:100C2000207F012806D12068006840F00800216874
:100C3000086005E02068006820F00800216808606E
:100C4000607F012806D12068006840F00400216818
:100C5000086005E02068006820F004002168086052
:100C6000D4E90201084321690843616908436168C6
:100C7000491E08432168C86100206062012084F891
:100C80002000002049E7000010B586B0044600208F
:100C9000029003900490059026492068884246D12E
:100CA00000BF2548C06940F000702349C86108466C
:100CB000C06900F00070019000BF00BF00BF08468F
:100CC000806940F0040088610846806900F00400F3
:100CD000019000BF00BFC814029000200390049050
:100CE00002A9164800F0CEF84FF48050029002207E
:100CF00003900320059002A9104800F0C3F80022D9
:100D00000721142000F004FB142000F0F1FA002267
:100D10000721152000F0FCFA152000F0E9FA002266
:100D20000721162000F0F4FA162000F0E1FA06B0D0
:100D300010BD0000006400400010024000080140A7
:100D400010B504460748007820F00100401C054912
:100D5000087005A10848FFF78DFA074801F098FFD1
:100D600010BD00000A00002043414E5F4649464F37
:100D7000305F46756C6C0000E80B002038B5044607
:100D80000C4B0D4A00212046FFF7DFFC88B90320F9
:100D90000849491E08700846807800900846437844
:100DA000054806A102680B48FFF764FA094801F0FC
:100DB0006FFF38BDB50B0020980B00204649464F09
:100DC000305F69643D25782C6D73673D25785F251C
:100DD000780D0A00E80B002010B50446074800789B
:100DE00020F00100401C0549087005A10848FFF7E4
:100DF00041FA074801F04CFF10BD00000A00002036
:100E000043414E5F4649464F315F46756C6C00006A
:100E1000E80B002038B504460C4B0D4A0121204652
:100E2000FFF793FC88B904200849491E087008465A
:100E30008078009008464378054806A102680C486F
:100E4000FFF718FA0A4801F023FF38BDB50B002060
:100E5000980B00204649464F315F69643D25782C48
:100E6000206D73673D25785F25780D0A000000002E
:100E7000E80B002070477047704770477047704715
:100E8000704770472DE9F8470346002294466EE10B
:100E90004FF0010808FA02F4D1F8008008EA0400D3
:100EA000A0427DD1DFF8DCA2D1F80480A8EB0A09CA
:100EB000D0453AD014DCB8F1030F50D009DCB8F1BA
:100EC000000F31D0B8F1010F1CD0B8F1020F49D199
:100ED00020E0B8F1110F18D0B8F1120F42D11EE086
:100EE000B9F5881F25D006DCB9F5803F20D0B9F5CB
:100EF000801F37D11AE0B9F5001F18D0B9F5041FCB
:100F000030D117E0D1F80CC02DE0D1F80C8008F1F9
:100F1000040C28E0D1F80C8008F1080C23E0D1F88B
:100F20000C8008F10C0C1EE000BF00BF00BF00BF2A
:100F300000BF00BFD1F80880B8F1000F02D14FF018
:100F4000040C0BE0D1F80880B8F1010F03D14FF089
:100F5000080C1C6102E04FF0080C5C6103E04FF0EC
:100F6000000C00E000BF00BFFF2801D8984601E058
:100F700003F104084646FF2802D84FEA820803E03E
:100F8000A2F108084FEA88084746D6F800804FF0DB
:100F90000F0909FA07F928EA09080CFA07F900E02D
:100FA00088E048EA0908C6F80080D1F8048008F013
:100FB0008058B8F1805F7DD100BFDFF8CC81D8F8D0
:100FC000188048F00108DFF8C091C9F81880C846B9
:100FD000D8F8188008F00108CDF8008000BF00BFE5
:100FE0004FEAB9384FEA920958F829504FEA827807
:100FF0004FEA18794FF00F0808FA09F825EA0805B2
:10100000DFF88881434502D14FF0000816E0DFF891
:101010008081434502D14FF001080FE0DFF8748171
:10102000434502D14FF0020808E0DFF86C814345E8
:1010300002D14FF0030801E04FF004084FEA827933
:101040004FEA197908FA09F848EA0505DFF84C81F2
:101050004FEA920948F82950D1F8048008F4803802
:10106000B8F5803F0AD1DFF83881D8F8008048EA27
:101070000008DFF82C91C9F8008009E0DFF8208132
:10108000D8F8008028EA0008DFF81491C9F8008039
:10109000D1F8048008F40038B8F5003F10D1DFF82B
:1010A000008108F10408D8F8008048EA0008DFF859
:1010B000F09000E05AE009F10409C9F800800DE061
:1010C000DFF8DC8008F10408D8F8008028EA00087E
:1010D000DFF8CC9009F10409C9F80080D1F8048048
:1010E00008F48018B8F5801F0ED1DFF8B48008F13D
:1010F0000808D8F8008048EA0008DFF8A49009F151
:101100000809C9F800800DE0DFF8948008F10808AC
:10111000D8F8008028EA0008DFF8849009F108096F
:10112000C9F80080D1F8048008F40018B8F5001F51
:101130000ED1DFF86C8008F10C08D8F8008048EA7E
:101140000008DFF85C9009F10C09C9F800800DE097
:10115000DFF84C8008F10C08D8F8008028EA000875
:10116000DFF83C9009F10C09C9F80080521CD1F855
:10117000008028FA02F8B8F1000F7FF489AEBDE8CC
:10118000F887000000001110001002400008014024
:10119000000C014000100140001401400800014013
:1011A000000401400148006870470000240000204E
:1011B00003480068034909780844014908607047FA
:1011C000240000202C00002010B50848006840F0E2
:1011D000100006490860032000F0D8F80F2000F046
:1011E00007F800F055F8002010BD00000020024074
:1011F000F0B587B0044600260027002500BF1F4831
:10120000806940F400601D4988610846806900F4E7
:101210000060009000BF00BF01A902A800F090F993
:1012200000F0B6F906461648B6FBF0F0471E154822
:101230001549086040F2E7311348C160476000215A
:1012400001618160816100F031FC054695B90E486D
:1012500000F060FC05466DB9192000F049F8102C2B
:1012600007D200222146192000F052F807480460F6
:1012700000E00125284607B0F0BD00000010024044
:1012800040420F00002C01404410002028000020A4
:1012900008B500BF1448806940F001001249886118
:1012A0000846806900F00100009000BF00BF00BF49
:1012B0000846C06940F08050C8610846C06900F027
:1012C0008050009000BF00BF00220F21901E00F050
:1012D0001FF800BF0549486820F0E06040F000704A
:1012E000486000BF08BD000000100240000001403F
:1012F00001460846002809DB00F01F0301229A403E
:1013000043099B0003F1E023C3F8002100BF7047AD
:101310002DE9F05F80460D461646002701F056FD88
:10132000074639462A46334601F00700C0F1070A4E
:10133000BAF1040F02D94FF0040A01E0C0F1070A24
:10134000D14600F1040ABAF1070F02D24FF0000AA9
:1013500001E0A0F1030AD4464FF0010A0AFA09FAA3
:10136000AAF1010A0AEA020A0AFA0CFA4FF0010B82
:101370000BFA0CFBABF1010B0BEA030B4AEA0B0473
:101380002146404601F02AFDBDE8F09F00BF00F075
:101390000702064B19684FF6FF031940044B0B4335
:1013A00043EA0221014B196000BF70470CED00E0D9
:1013B0000000FA0570B504460D460CB9012070BD59
:1013C0005A48006800F00700A8420ED2574800684B
:1013D00020F007002843554908600846006800F0DF
:1013E0000700A84201D00120E9E7207800F00200C0
:1013F00002281DD1207800F00400042805D14C48B3
:10140000406840F4E0604A494860207800F00800F5
:10141000082805D14648406840F460504449486077
:101420004348406820F0F000A16808434049486004
:10143000207800F0010078B36068012806D13C48AC
:10144000006800F4003090B90120B8E76068022815
:1014500006D13748006800F0007040B90120AEE7BF
:101460003348006800F0020008B90120A7E73048BF
:10147000406820F00300616808432D494860FFF789
:1014800091FE064609E0FFF78DFE801B41F2883190
:10149000884202D9032092E707E02548406800F01F
:1014A0000C006168B0EB810FEDD12048006800F0BE
:1014B0000700A8420ED91D48006820F00700284305
:1014C0001A4908600846006800F00700A84201D0E9
:1014D000012074E7207800F00400042807D11448A4
:1014E000406820F4E060E1680843114948602078D2
:1014F00000F00800082808D10D48406820F460502A
:10150000216940EAC1000A49486000F051F80849E1
:101510004968C1F30311074A515CC8400649086095
:1015200006480068FFF764FE002048E700200240FC
:1015300000100240E04E000830000020280000208B
:101540000F2202600D4A526802F0030242600B4A09
:10155000526802F0F0028260084A526802F4E062C7
:10156000C260064A526802F46052D2080261044A1C
:10157000126802F007020A60704700000010024083
:101580000020024001480068704700003000002041
:1015900000B5FFF7F7FF04494968C1F3C221034AC8
:1015A000515CC84000BD000000100240F04E000831
:1015B000F0B585B00FF26C0C9CE8E01001A8A0E833
:1015C000E0101CA52D6800950021002200230024B6
:1015D0000020194D696801F00C05F5B1042D02D009
:1015E000082D19D101E0154819E001ADC1F383467A
:1015F000AC5D01F4803555B10F4D6D68C5F34045C4
:101600001DF805200D4D6543B5FBF2F302E00C4DCE
:1016100004FB05F3184602E000BF084800BF00BF06
:1016200005B0F0BD02030405060708090A0B0C0DFE
:101630000E0F1010010200000010024000127A008C
:1016400000093D00F8B504460CB90120F8BD20782A
:1016500000F00100002878D0F848406800F00C0045
:1016600004280CD0F548406800F00C00082811D17F
:10167000F248406800F48030B0F5803F0AD1EF486E
:10168000006800F4003000285FD0606800285CD15A
:101690000120DBE700BF6068B0F5803F06D1E74876
:1016A000006840F48030E549086028E0606858B977
:1016B000E248006820F48030E0490860084600688D
:1016C00020F4802008601AE06068B0F5A02F0BD1EC
:1016D000DA48006840F48020D8490860084600686D
:1016E00040F4803008600AE0D448006820F480307C
:1016F000D24908600846006820F48020086000BFD6
:10170000606888B1FFF74EFD054606E0FFF74AFD29
:10171000401B642801D9032098E7C848006800F4FA
:1017200000300028F2D010E0FFF73CFD054606E04F
:10173000FFF738FD401B642801D9032086E7BF4826
:10174000006800F400300028F2D1207800F0020098
:10175000022857D1B948406800F00C0050B1B74892
:10176000406800F00C00082818D1B448406800F424
:10177000803098B9B148006800F0020020B12069BB
:10178000012801D0012061E7AC48006820F0F80092
:10179000616940EAC100A949086033E02069E8B105
:1017A0000120A7490860FFF7FDFC054606E0FFF7AA
:1017B000F9FC401B022801D9032047E79F48006835
:1017C00000F002000028F2D09C48006820F0F800E9
:1017D000616940EAC1009949086013E00020984916
:1017E0000860FFF7DFFC054606E0FFF7DBFC401B67
:1017F000022801D9032029E79048006800F0020080
:101800000028F2D1207800F0080008282DD1A06926
:10181000B8B101208B490860FFF7C4FC054606E01B
:10182000FFF7C0FC401B022801D903200EE78348C4
:10183000406A00F002000028F2D0012001F07EF89A
:1018400013E000207F490860FFF7ACFC054606E086
:10185000FFF7A8FC401B022801D90320F6E67748D1
:10186000406A00F002000028F2D1207800F0040065
:10187000042873D100277148C06900F0805070B906
:1018800000BF6E48C06940F080506C49C86108468E
:10189000C06900F08050009000BF00BF01276A4877
:1018A000006800F48070B0B96748006840F4807048
:1018B00065490860FFF776FC054606E0FFF772FC15
:1018C000401B642801D90320C0E65F48006800F48B
:1018D00080700028F2D000BFE068012806D1574888
:1018E000006A40F001005549086227E0E06858B9F5
:1018F0005248006A20F00100504908620846006A18
:1019000020F00400086219E0E06805280BD14B487C
:10191000006A40F00400494908620846006A40F045
:10192000010008620AE04548006A20F001004349CE
:1019300008620846006A20F00400086200BFE06800
:10194000A0B1FFF72FFC054609E0FFF72BFC401B79
:1019500041F28831884202D9032077E622E03748F5
:10196000006A00F002000028EFD012E0FFF71AFC36
:10197000054608E0FFF716FC401B41F2883188421B
:1019800001D9032062E62D48006A00F00200002819
:10199000F0D1012F05D12948C06920F08050274996
:1019A000C86100BFE069C8B32448406800F00C007B
:1019B000082860D0E069022848D100202049086644
:1019C000FFF7F0FB054606E0FFF7ECFB401B0228A3
:1019D00001D903203AE61948006800F00070002899
:1019E000F2D1206AB0F5803F07D11448406820F456
:1019F0000030A168084311494860D4E90801084350
:101A00000E49496821F4741108430C4948600120CB
:101A10000B490866FFF7C6FB054607E03DE0FFF708
:101A2000C1FB401B022801D903200FE603480068D0
:101A300000F000700028F2D02FE0000000100240FB
:101A400000004242800442420070004000201449DD
:101A50000866FFF7A7FB054606E0FFF7A3FB401B60
:101A6000022801D90320F1E50E48006800F000705B
:101A70000028F2D111E0E069012800D1E6E509482B
:101A8000466806F48031206A814204D106F4701160
:101A9000606A814201D00120D8E50020D6E500002F
:101AA00000004242001002407047704710B50446E3
:101AB0000CB9012010BD94F83D0028B9002084F82D
:101AC0003C00204600F025F8022084F83D00211D4E
:101AD000206801F095F8012084F8460000BF84F8E2
:101AE0003E0001213F200155402001554120015574
:101AF00000BF00BF012084F842004320015544206C
:101B000001554520015500BF012084F83D0000200B
:101B1000D0E77047014691F83D00012801D001202F
:101B20007047022081F83D000868C06840F001005D
:101B30000B68D860124B086898420BD00868B0F167
:101B4000804F07D00F4B0868984203D00E4B0868AF
:101B500098420CD10868806800F00702062A0CD071
:101B60000868006840F001000B68186005E008682C
:101B7000006840F001000B6818600020D0E700000A
:101B8000002C01400004004000080040704710B5E0
:101B9000044620680069C0F34000D8B12068C068DE
:101BA000C0F34000B0B16FF002002168086101206D
:101BB00020772068806900F0030018B12046FFF705
:101BC000E5FF05E0204600F0ADF8204600F0ABF858
:101BD0000020207720680069C0F38000D8B1206819
:101BE000C068C0F38000B0B16FF0040021680861E4
:101BF000022020772068806900F4407018B12046E8
:101C0000FFF7C4FF05E0204600F08CF8204600F006
:101C10008AF80020207720680069C0F3C000D8B19E
:101C20002068C068C0F3C000B0B16FF00800216840
:101C30000861042020772068C06900F0030018B113
:101C40002046FFF7A3FF05E0204600F06BF8204692
:101C500000F069F80020207720680069C0F30010C8
:101C6000D8B12068C068C0F30010B0B16FF01000A8
:101C700021680861082020772068C06900F440705E
:101C800018B12046FFF782FF05E0204600F04AF831
:101C9000204600F048F8002020772068006900F016
:101CA000010058B12068C06800F0010030B16FF049
:101CB000010021680861204600F036F820680069BC
:101CC000C0F3C01058B12068C068C0F3C01030B174
:101CD0006FF08000216808612046FFF7E5FE20686C
:101CE0000069C0F3801058B12068C068C0F380104C
:101CF00030B16FF0400021680861204600F020F804
:101D000020680069C0F3401058B12068C068C0F373
:101D1000401030B16FF02000216808612046FFF7C5
:101D2000C4FE10BD7047704710B5044603492068D3
:101D3000884201D1FFF73CFA10BD0000002C0140A1
:101D4000704700BFFEE7000008B5054989690143F7
:101D5000034A9161114689690140009100BF08BDA5
:101D60000010024008B5054989690143034A9161A1
:101D7000114689690140009100BF08BD0010024072
:101D80002DE9F04102460B461868C0F30F2595FA7D
:101D9000A5F0B0FA80F480E00120A040284000289F
:101DA0007AD0082C04D240F2011000FA04F106E0C7
:101DB000A4F108004FF00116864046F08061586893
:101DC00008280ED11869D66826EA11260F0A97FA54
:101DD000A7F7B7FA87F700FA07F73E43D66000BFC8
:101DE00000BF586802EB116691FAA1FCBCFA8CFCAA
:101DF0004FEA8C084FF00F0C0CFA08FC376827EA02
:101E00000C0791FAA1FCBCFA8CFC4FEA8C0C00FA8E
:101E10000CFC47EA0C07376000BF5868012802D065
:101E20005868092838D1986802EB116691FAA1FC2C
:101E3000BCFA8CFC4FEA8C084FF0030C0CFA08FC3F
:101E4000376827EA0C0791FAA1FCBCFA8CFC4FEA30
:101E50008C0C00FA0CFC47EA0C07376000BFD8680E
:101E600002EB116691FAA1FCBCFA8CFC4FEA8C08DB
:101E70004FF0040C0CFA08FC376827EA0C0791FABB
:101E8000A1FCBCFA8CFC4FEA8C0C00FA0CFC47EA73
:101E90000C07376000BF00BF641C25FA04F000285F
:101EA0007FF47AAFBDE8F08110B5044600F08EFDF6
:101EB0002060206800F056FD6060606800F062FD00
:101EC000A060606800F070FDE06010BD016921F461
:101ED00090410161416921F02A0141617047C16867
:101EE00041F40051C16070472DE9FF4104460D46A1
:101EF00001270026204600F041F8002833D1E96888
:101F00006868084329690843E16841F20C6291431B
:101F10000843E060A868216921F440510143216130
:101F200000BF6869616921F440710143616100BFCC
:101F30006846FFF7B9FF0E48844201D1039E08E0CE
:101F40000C48844201D1029E03E00B48844200D138
:101F5000029E46B1286830B10027314620462A68E3
:101F600000F011F800BF384604B0BDE8F081000071
:101F70000038014000440040004800400146C86865
:101F8000C0F34030704770B501EBC10303EB0113A0
:101F90009400B3FBF4F301EBC10404EB01149500CE
:101FA000B4FBF5F46425B4FBF5F404EBC40505EBD0
:101FB0000414A3EB8403322404EB03136424B3FB63
:101FC000F4F303F0F00301EBC10404EB01149500FA
:101FD000B4FBF5F46425B4FBF5F403EB041401EB56
:101FE000C10303EB01139500B3FBF5F301EBC1054E
:101FF00005EB01159600B5FBF6F56426B5FBF6F585
:1020000005EBC50606EB0515A3EB8503322505EBAD
:1020100003136425B3FBF5F303F00F0323449BB2D2
:10202000836070BD10B502460B460024002104E019
:1020300032F81100204484B2491C9942F8D360421E
:1020400080B210BD10B50446208A20F00100401C6B
:102050002082208A20F004002082208A20F0800044
:1020600080302082208A20F002002082208A20F006
:1020700078002082207C00F500702082002161829F
:10208000A06920F0FF01491CA161A069C0F31501FE
:1020900001F18071A161E06920F0FF01491CE1615B
:1020A000E069C0F3150101F18071E161606A20F01F
:1020B0000401091D6162606A20F008010831616253
:1020C000606A20F040016162606A20F08001616214
:1020D000606A20F4807101F580716162606A20F4A9
:1020E000007101F500716162606A20F4806101F5A0
:1020F00080616162606A20F400616162606A20F45C
:10210000805101F580516162606A20F4005101F54F
:1021100000516162606A20F480316162606A20F47B
:1021200000316162606A20F480216162606A20F49B
:1021300000216162606A20F480116162606A20F4AB
:1021400000116162606A20F0807101F1807161624A
:10215000606A20F0007101F100716162606A20F034
:10216000806101F180616162606A20F0006101F1CB
:1021700000616162A06A20F00101A162A06A20F002
:102180000201A162A06A20F00401A162A06A20F00D
:102190000801A162A06A20F48071A162A06A20F403
:1021A0000071A162A06A20F48061A162A06A20F49B
:1021B0000061A1620E2340F6BE322146014800F0C4
:1021C00011F810BD00380140002101614161018A10
:1021D00021F0FF010C310182017C01F58071018247
:1021E000704700002DE9F04107460C4616461D4693
:1021F00048F2FF1020806680A5800020E080042146
:102200002046FFF70FFF2081294604F11000FFF759
:1022100009FF04F1100121F81500681C0A2101EBE7
:10222000400082B22146024800F014F8BDE8F08177
:102230000038014010B504462046FFF7C5FF0423CF
:1022400040F6BE3221460248FFF7CCFF10BD000029
:102250000038014010B50B4600210AE000BF0468B9
:1022600004F04004002CFAD05C5C446000BF4C1CBD
:10227000E1B29142F2DB10BD10B510481049086080
:10228000122048604FF040410D4881600021C1603C
:102290004FF4402101614FF480114161002101762A
:1022A0000121417681760021C176017701214177B4
:1022B000FEF72FFC08B1FEF714FA10BD00640040D1
:1022C000C00B002000B599B01E4903C9CDE9170124
:1022D0000022012117A800F01FFE1B4908601949C0
:1022E000083103C9CDE915010022114615A800F0F7
:1022F00013FE164908601C22124910310EA8FEF781
:10230000AEF800210EA800F0D7FD114908601C228C
:102310000C492C3107A8FEF7A2F8002107A800F00D
:10232000CBFD0C4908601C22064948316846FEF77F
:1023300096F80021684600F0BFFD0749086019B013
:1023400000BD00007C4E000810000020140000209A
:1023500020000020180000201C00002000B585B0DF
:1023600014216846FEF7CFF81020FFF7EDFC20207F
:10237000FFF7EAFC0420FFF7E7FC0820FFF7E4FC86
:102380000948C0F30F21094A516100BF00900120A4
:102390000190022002900020039069461046FFF74A
:1023A000EFFC05B000BD000020002004001001403B
:1023B0002DE9F0418CB01C2105A8FEF7A4F81421EA
:1023C0006846FEF7A0F84FF48040FFF7CBFC0820EA
:1023D000FFF7C8FC44F24000009009200190032060
:1023E00002900020039069464C48FFF7C9FC48F270
:1023F000800000900420019069464848FFF7C0FC27
:1024000000BF47484068474908434549486000BF06
:102410002521454B1B68C3F30220052400250346F4
:10242000C3F1070CBCF1040F02D94FF0040C01E01A
:10243000C3F1070C674603F1040CBCF1070F02D28D
:102440004FF0000C01E0A3F1030C66464FF0010CC5
:102450000CFA07FCACF1010C0CEA040C0CFA06FCBB
:102460004FF0010808FA06F8A8F1010808EA050883
:102470004CEA080200BF002904DB1007030E2B48BA
:10248000435407E01007040E27480C3001F00F03F7
:102490001B1FC45400BF2520002809DB00F01F02C9
:1024A000012191404209920002F1E022C2F800119C
:1024B00000BF00BF6FF020001D49086000BF00BFD3
:1024C0000846C06840F02000C86000BF00BF084652
:1024D000406940F00100486100BF4FF4E1300590D1
:1024E0000020069048140790002008900C200990C6
:1024F00000200A900B9005A90D48FFF7F5FC0C4849
:10250000FFF7E4FC0A48FFF7EAFC4FF48062094950
:10251000094800F0C1FA0CB0BDE8F081000C0140A0
:1025200000000140040000070CED00E000E400E0C2
:1025300000380140440C0020380C002000B58DB05C
:102540001C2106A8FDF7DFFF142101A8FDF7DBFF22
:102550004FF400301D49C96901431C4AD16111463D
:10256000C9690140009100BF00BF0420FFF7FAFBDA
:1025700040F20440019009200290032003900020C3
:10258000049001A91248FFF7FBFB40F608000190F8
:102590000420029001A90E48FFF7F2FB4FF4E1304E
:1025A000069000200790089009900C200A900020C7
:1025B0000B900C9006A90748FFF796FC0548FFF71B
:1025C00085FC0448FFF78BFC0DB000BD00100240F5
:1025D000000801400044004000BFFEE700BFFEE7E6
:1025E00000BF002441F288310F48006800F0BAFCB7
:1025F00001200E4981F8100200BF0C4800F02AF8B3
:102600000A4890F8100201280AD0084890F81032C1
:10261000224607A10E48FDF72DFE0D4800F038FBBD
:10262000642000F026FCE8E710000020C002002033
:1026300072657475726E20627974655F693D257587
:102640002C2073746174653D25750D0A000000002F
:10265000E80B00202DE9F84304464FF0FF36002731
:1026600048F2FF10208002E1854800F024FA054678
:1026700094F810020D287DD2DFE800F0F7070E195C
:102680001E232830353A3F5068002078A84202D1F6
:10269000022084F81002E9E06078A84203D1032008
:1026A00084F8100202E0012084F81002DEE0042029
:1026B00084F81002A570D9E0052084F81002E570B6
:1026C000D4E0062084F810022571CFE0072084F8BA
:1026D0001002657100206B490880C7E0A5710820D1
:1026E00084F81002C2E0E571092084F81002BDE010
:1026F00025720A2084F81002B8E06572604800F084
:10270000B9F98046424660A16348FDF7B3FD6248CF
:1027100000F0BEFA0B2084F81002A7E0A088400069
:102720005849098888420ADD04F110005549098892
:10273000455454480088401C5249088005E0002058
:10274000504908800C2084F810028FE0012084F8A2
:1027500010024B4800F084F904212046FFF762FC88
:102760002189884272D1608840F6BA32811A90423B
:1027700038D000E079E00BDCA0F69800002852D0B9
:10278000B0F5487F0BD0A0F22130002858D113E0DB
:10279000012932D004293BD0092951D117E0E06D3D
:1027A00000903EA13C48D4E91523FDF763FD3A486B
:1027B00000F06EFA012647E0A38862883DA1364802
:1027C000FDF758FD344800F063FA02263CE0A38888
:1027D000628838A13048FDF74DFD2F4800F058FAC7
:1027E000032631E0A388628832A12B48FDF742FD21
:1027F000294800F04DFA042626E0A38862882DA11E
:102800002548FDF737FD244800F042FA05261BE075
:10281000A38862882DA12048FDF72CFD1E4800F0FA
:1028200037FA062610E0E0880090A388628830A17D
:102830001948FDF71FFD184800F02AFA072603E0A3
:1028400033A000F025FA00BF0EE0FFE70421204688
:10285000FFF7E8FB80462389424631A10E48FDF789
:1028600009FD0D4800F014FA00E000BF00BF044865
:1028700000F000F900283FF7F7AE3046BDE8F883D6
:10288000380C0020080000206765745F6279746569
:102890003D25750D0A000000E80B0020686F757279
:1028A0003D25642C6D696E3D25642C7365633D2563
:1028B000640D0A0069643D25782C20646174615FB1
:1028C00073697A653D25780D0A00000067657420FC
:1028D0006D7367333030362C2069643D25782C20A9
:1028E000646174615F73697A653D25780D0A000043
:1028F00069643D25782C20646174615F73697A6531
:102900003D25782C2064756D6D793D25780D0A0084
:1029100070617263696E675F6572726F720D0A0033
:102920006865616465725F4352435F6572726F727E
:102930002C202578213D25780D0A000008B508498E
:102940000968C9084FF47A72B1FBF2F14143009172
:1029500000BF00BF00994A1E00920029F9D108BDAE
:1029600030000020014600BF0448406800F0F0003D
:102970000009034A125C21FA02F07047001002407D
:10298000E04E0008014600BF0548406800F4E060E2
:10299000044A02EB1020027821FA02F0704700008E
:1029A00000100240F04E0008014600BF0548406894
:1029B00000F46050044A02EBD020027821FA02F0C1
:1029C0007047000000100240F04E000810B50024CF
:1029D00000BF0B48406800F00C0020B1042804D070
:1029E000082808D103E0074C07E0064C05E000F09A
:1029F0000BF8044601E0034C00BF00BF204610BDA9
:102A00000010024000127A000021002200BF11488D
:102A1000406800F4803002461AB1B2F5803F0CD114
:102A200001E00D490BE000BF0A484068C0F3404098
:102A3000401C0A4BB3FBF0F101E0074900BF00BFA7
:102A400000BF0448406800F47010022303EB90407C
:102A5000484370470010024000093D0000127A0010
:102A600010B504460020A080E08021892068FDF791
:102A700028FD10BD014600208A88CB889A4206DADC
:102A80000A898B881A44CB88D21A90B203E08A88CC
:102A9000CB88D21A90B2704770B504460D461646E0
:102AA000268125602046FFF7DBFF206808B1012062
:102AB00070BD0020FCE70146CB885A1CCA800A681A
:102AC000D05CCA880B899A4201DB0022CA80704719
:102AD00083885A1C82800268D154828803899A4272
:102AE00001DB0022828070470548FDF7FDFDFA20DA
:102AF00000F0BFF900BF41F2883000F0BAF9FAE700
:102B0000A800002000BF10481049C968C0F30F2278
:102B10001140C0F30F22914201D1012100E00021B8
:102B200031B90948C0F30F21084A116100BF06E01E
:102B30000548C0F30F21054A516100BF00BF4FF4A3
:102B40007A7000F096F9DEE72000200400100140C2
:102B500010B500BF502080F31188BFF34F8FBFF333
:102B60006F8F00BF01F0AAFE18B14FF080500449EA
:102B7000086000BF002080F3118800BF10BD000076
:102B800004ED00E000B58FB0282105A8FDF7BBFCDF
:102B900014216846FDF7B7FC01200590000406905B
:102BA000002007900120099002200C90C1030D9194
:102BB0004FF4E0110E9105A8FEF744FD08B1FDF7B2
:102BC00090FD0F20009002200190002002904FF411
:102BD000806003900020049002216846FEF7EAFB23
:102BE00008B1FDF77EFD0FB000BD704710B502487B
:102BF000FEF7CDFF10BD000044100020704700001C
:102C000010B50268184B984208D0B0F1804F05D03B
:102C1000164B984202D0164B984203D122F0700214
:102C20004B681A43104B984208D0B0F1804F05D042
:102C30000E4B984202D00E4B984203D122F44072C0
:102C4000CB681A4322F080034C6943EA0402026015
:102C50008B68C3620B688362034B984201D10B6996
:102C600003630123436110BD002C014000040040B8
:102C70000008004000BF0549096801F04001002933
:102C8000F9D00249091D0860704700000044004067
:102C900000B5024602E01846FFF7ECFF12F8013BD0
:102CA000002BF8D100BD000010B500BF04484068FB
:102CB000C0B2044621460348FFF70AFF10BD0000DA
:102CC00000380140380C002008B500BF2D480068CE
:102CD000C0F3401040B100BF2A48C068C0F34010A4
:102CE00010B1FFF7E1FF4CE000BF26480068C0F3D9
:102CF000C00060B100BF23480068009000BF2148B9
:102D00004068009000BF00BF1FA0FFF7C1FF00BFD9
:102D10001C480068C0F3800060B100BF194800681B
:102D2000009000BF17484068009000BF00BF19A086
:102D3000FFF7AEFF00BF13480068C0F3400060B16A
:102D400000BF10480068009000BF0E484068009027
:102D500000BF00BF12A0FFF79BFF00BF094800683B
:102D600000F0010068B111A0FFF792FF00BF054815
:102D70000068009000BF03484068009000BF00BF9B
:102D800000BF08BD00380140466C61675F4F524587
:102D90000D0A0000466C61675F4E450D0A00000099
:102DA000466C61675F46450D0A000000466C61672E
:102DB0005F50450D0A00000010B50248FDF782FD86
:102DC00010BD0000C00B002000BFFEE702480068F5
:102DD000C0F30220704700000CED00E010B50028A1
:102DE00004DB0A07130E054A135406E00A07140E03
:102DF000034A00F00F031B1FD45410BD00E400E091
:102E000018ED00E000BFEFF3058008B10120704726
:102E10000020FCE786B0FEF7D7F9FFF7B3FE1822D3
:102E20000D496846FDF71BFBFDF765FC8DF80B00AF
:102E3000FFF794FAFFF782FBFFF7BAFAFFF71CFAE5
:102E40000648C0F30F21064A116100BFFFF73AFAA6
:102E500000F01BF800BFFEE7384E000820002004F9
:102E60000010014001460020842901D0CA1C1044F2
:102E7000704770B5044625460DB1294600E0012192
:102E8000084600F0CFFF002070BD10B501F046F8F5
:102E9000002010BD7047000010B504460448FFF73D
:102EA000C9F94FF4FA710348006800F05BF810BDEF
:102EB000A8000020140000207FB504460D4660697C
:102EC00098B1A06988B1B4F90800FFF7CBFF0646B6
:102ED000D4E90510CDE9006102902B462269D4E9BE
:102EE000001001F079FC039013E0B4F90800FFF73B
:102EF000B9FF064603A8CDE90060238A9AB22B46A3
:102F0000D4E9001001F036FC012802D0002004B002
:102F100070BD0398FBE700007CB504460D461646DD
:102F2000606878B1D4E90001CDE90001012D01D13B
:102F3000012000E0002002463346012108A001F0F4
:102F4000AEFE7CBD20680090012D01D1012000E083
:102F5000002002463346012101A001F085FEF0E782
:102F6000000000002DE9FC4106460C460027002029
:102F70000190254605B90125FFF744FFB0B10020B7
:102F800001AB2A4609210090304601F0FDFE0128E0
:102F900001D0FF2715E0019898B14FF080500A4901
:102FA0000860BFF34F8FBFF36F8F0AE00020034626
:102FB0002A4604210090304601F0E6FE012800D0A8
:102FC000FF273846BDE8FC8104ED00E02DE9F04123
:102FD00005460E461C4807681C480068001D00F0A6
:102FE000A1FD50B91948006890F82C1001208840C4
:102FF00017490968814316480160681C38B936B121
:1030000012480168091D134800F0E2FD1AE07C191E
:103010000E4800684460BC4207D20C480168091D94
:103020000D48006800F0BAFD0CE008480168091D71
:103030000A48006800F0B2FD09480068844201D2E5
:1030400007480460BDE8F0814800002034000020FB
:103050004C000020A81100203C0000203800002077
:103060006400002010B5044600F0BEFD234800684F
:10307000401C224908602248006840B9204804608A
:103080000846006801280DD100F016FA0AE01D4834
:10309000006838B91A480068C06AE16A884201D8F5
:1030A0001748046018480068401C1749086094F8E5
:1030B0002C1001208840154909680843134908600D
:1030C000E16A01EB8101124A02EB8100211D00F04F
:1030D0007FFD00F0B3FD0B48006868B10848006848
:1030E000C06AE16A884207D24FF0805009490860FF
:1030F000BFF34F8FBFF36F8F10BD0000440000205F
:103100003400002050000020600000204C0000200F
:10311000CC10002004ED00E008B500F065FD124879
:103120000068E8B9114800F029FD114800F026FDBB
:103130000E48104908600E480F49086000200F4BE8
:103140000F4A0C2100900A2001F00EF80649086091
:103150000846006820B10BA10348006800F026FE75
:1031600000F06CFD08BD000078000020BC110020BC
:10317000D01100207000002074000020E411002015
:103180002C120020546D72510000000010B516E0A2
:1031900000F02AFD0C48C068C468201D00F0C2FC85
:1031A0000A480068401E0949086009480068401E36
:1031B0000749086000F042FD204600F05EF8044830
:1031C00000680028E4D110BD9411002044000020C4
:1031D0004000002070B504460D46206C70B1216C93
:1031E000E0680844E0606168E068884201D32068D4
:1031F000E0602846226CE168FDF7ECF870BD2DE92F
:10320000F04104460F4615464FF00008A66B206CAF
:1032100040B9206860BB606801F0F4FB8046002084
:10322000606025E07DB93946226CA068FDF7D2F8D0
:10323000216CA0680844A060D4E90110884217D32B
:103240002068A06014E03946226CE068FDF7C2F8FF
:10325000216CE068401AE0602168E068884203D28F
:10326000216C6068401AE060022D01D106B1761E23
:10327000701CA0634046BDE8F08110B5044694F888
:10328000510030B9206B00F0F7FC204600F0F4FC50
:103290001AE094F85100012803D1204600F0ECFC1C
:1032A00012E094F85100022801D1012000E0002032
:1032B00050B900BF502080F31188BFF34F8FBFF388
:1032C0006F8F00BF00BFFEE710BD00000146084A37
:1032D000126812680AB9012200E000220A600A6836
:1032E00022B9034A1268D268106800E000207047D3
:1032F0007000002030B54FF44063174800F0070419
:103300002CB1C01D20F00700134C041B1B1B0246F0
:10331000124C22600024114D6C60D018083820F047
:1033200007000F4C206000240D4D2D686C600C4D83
:103330002D682C601146441A4C60094C24680C60BE
:10334000084D4C682C60084D4C682C604FF00044D0
:10335000064D2C6030BD0000A41200208400002027
:103360008C00002094000020900000209800002095
:1033700000BFFFF70BFF064800680128F9D94FF09E
:10338000805004490860BFF34F8FBFF36F8FF0E7A1
:10339000CC10002004ED00E02DE9F04106460D467A
:1033A00017469846069C0DB9246000E02760E66346
:1033B00025640121204600F047FFBDE8F0812DE99A
:1033C000FF5F81460F469246DDE90E6B109CAAF125
:1033D0000100216B01EB800828F0070808F00700C6
:1033E00008B9012000E0002050B900BF502080F350
:1033F0001188BFF34F8FBFF36F8F00BF00BFFEE791
:10340000002507E0795D04F134004155785D00B98D
:1034100002E06D1C102DF5D300BF002143200155A3
:10342000072E00D30626E66266640020A064201DF5
:1034300000F0B1FB04F1180000F0ADFB2461C6F10F
:103440000700A06164620020E06484F850004946EF
:103450004046039A00F054FB2060BBF1000F01D0FE
:10346000CBF80040BDE8FF9F2DE9F04706460D462A
:1034700017469846DDE908940DB1012000E00020D0
:1034800050B900BF502080F31188BFF34F8FBFF3B6
:103490006F8F00BF00BFFEE75CB1FFF73DFE266007
:1034A000A561E761C4F82080C4F82490201D00F0D5
:1034B00072FBBDE8F087000010B5002407E004EBC4
:1034C00084010F4A02EB810000F058FB641C072CBA
:1034D000F5D30C4800F052FB0B4800F04FFB0B48B3
:1034E00000F04CFB0A4800F049FB0A4800F046FB9C
:1034F00004480949086004480849086010BD0000F4
:10350000CC100020581100206C11002080110020E8
:1035100094110020A8110020380000203C00002059
:1035200010B50146164800E0006803688B42FBD3E3
:103530000246436813448B4204D143684C682344D9
:10354000436001460A464B6813440468A34211D104
:103550000C4C03682468A34208D04B680468646874
:1035600023444B6003681B680B6005E0054B1B6838
:103570000B6001E003680B60884200D0016010BD61
:10358000840000208C0000202DE9F04104460D4607
:1035900016461F464FF0000865602461B5420CD8FE
:1035A000F01BA169884202D34FF0010811E0211DF0
:1035B0000948006800F0F2FA0BE0BE4204D2BD42B6
:1035C00002D34FF0010804E0211D0448006800F018
:1035D000E5FA4046BDE8F08174000020700000204C
:1035E00070B5054600F000FBA86B08B9012400E0A7
:1035F000002400F023FB204670BD70B5054600F0A6
:10360000F3FAA86BE96B884201D1012400E00024A1
:1036100000F014FB204670BDF8B505460F4616486D
:103620000068C068C468201D00F07CFAE0690128C9
:103630001DD1A06941192B463A462046FFF7A4FF49
:10364000A8B1002003462A4601460090204601F01A
:103650009BFB064656B900BF502080F31188BFF38C
:103660004F8FBFF36F8F00BF00BFFEE700BF204644
:10367000616A8847F8BD00007000002070B586B010
:103680006DE0039800286ADB059C606908B9012099
:1036900000E0002010B9201D00F044FA02A800F05C
:1036A000BFF8054603980A2857D2DFE800F009055D
:1036B0000731334F0608323400BF00BF00BF00BFE0
:1036C0000498A269811803462A462046FFF75CFF4A
:1036D000E8B12046616A8847E069012817D10020D7
:1036E00000900498A169421800231946204601F071
:1036F0004BFB064656B900BF502080F31188BFF33C
:103700004F8FBFF36F8F00BF00BFFEE700BF25E004
:1037100000BF23E000BF0498A061A06908B10120A8
:1037200000E0002050B900BF502080F31188BFF3A3
:103730004F8FBFF36F8F00BF00BFFEE7A069411935
:103740002B462A462046FFF71FFF07E094F8280083
:1037500010B9204600F090FA00E000BF00BF002240
:1037600003A90448006800F00BFF002889D106B0C7
:1037700070BD000078000020F8B505460C4600F04A
:1037800029FC684600F04CF80646009820BB44B976
:10379000B54206D801F0E6F931462846FFF73CFF6E
:1037A0001CE03CB10E480068006808B9012000E048
:1037B00000200446A91B22460A48006800F00CFBC2
:1037C00001F0D0F950B94FF0805007490860BFF3BD
:1037D0004F8FBFF36F8F01E001F0C4F9F8BD000017
:1037E000740000207800002004ED00E00A49096818
:1037F000096809B9012100E0002121B14FF0FF3132
:10380000064A116006E004490968C968C868034AA5
:1038100041681160704700003800002064000020FB
:1038200070B5044601F044F8054607480068854233
:1038300004D200F00BF80120206001E0002020609D
:1038400001480560284670BD800000202DE9F8433E
:1038500032E024480068C068056822480068C068F3
:10386000C468201D00F05EF92046616A8847E0695F
:10387000012821D1A0694619AE4207D966602461AA
:10388000211D1848006800F089F915E00020034662
:103890002A4601460090204601F076FA074657B9BD
:1038A00000BF502080F31188BFF34F8FBFF36F8F9D
:1038B00000BF00BFFEE700BF0A480068006808B903
:1038C000012000E000200028C3D00648D0F8008086
:1038D00005480068034908600348C0F80080BDE857
:1038E000F883000070000020740000200E4800687B
:1038F000401C08B9012000E0002050B900BF502052
:1039000080F31188BFF34F8FBFF36F8F00BF00BFED
:10391000FEE700BF502080F31188BFF34F8FBFF345
:103920006F8F00BF00BFFEE79C00002008B500BFFE
:103930006846FFF7CBFC044620460099FFF71CFFC2
:10394000FFF79CFEF4E770B5044600F04DF994F9DA
:10395000455010E0606A08B9012000E0002038B945
:1039600004F1240001F0B2F818B100F095FA00E07B
:1039700003E0681E45B2002DECDC00BFFF2084F898
:10398000450000F05BF900F02FF994F9445010E085
:10399000206908B9012000E0002048B904F11000B6
:1039A00001F094F808B100F077FA681E45B200E023
:1039B00001E0002DECDC00BFFF2084F8440000F0A3
:1039C0003DF970BD2DE9F04104464FF0000800F0CC
:1039D00001FB4648006808B9FFF78CFC44480068C2
:1039E000204000286BD1D4B1083404F00700B0B1F6
:1039F00004F00700C0F10800044404F0070008B90F
:103A0000012000E0002050B900BF502080F3118851
:103A1000BFF34F8FBFF36F8F00BF00BFFEE7002CD7
:103A20004DD034480068844249D8334E304605684A
:103A300001E02E462D686868A04202D2286800285E
:103A4000F7D12A480068854239D0306800F108086B
:103A5000286830606868001B102819D92F1907F0F2
:103A6000070008B9012000E0002050B900BF502035
:103A700080F31188BFF34F8FBFF36F8F00BF00BF7C
:103A8000FEE76868001B78606C603846FFF748FD09
:103A9000184968680968081A1649086008460068E5
:103AA00016490968884203D2124800681349086021
:103AB0000F4968680968084368600020286001F0C1
:103AC00051F808F0070008B9012000E0002050B9C3
:103AD00000BF502080F31188BFF34F8FBFF36F8F6B
:103AE00000BF00BFFEE74046BDE8F0818C0000202B
:103AF0009800002090000020840000209400002006
:103B0000001F4FF080730360001F21F0010303606A
:103B1000001F034B03601438026020387047000018
:103B2000ED38000801460A69D1E901309860D1E911
:103B3000010358605068884201D1886850600020B5
:103B400008611068401E106010687047034B0360E6
:103B5000034B0B608023136070470000D8040020E3
:103B60002C050020034B0360034B0B604FF4807364
:103B7000136070472C0700208007002000F1080127
:103B800041604FF0FF31816000F10801C1600161C7
:103B900000210160704700210161704710B50246A5
:103BA0000B685C1C0CB9106907E002F1080000E02A
:103BB0004068446824689C42FAD944684C604C6868
:103BC000A160886041600A611468641C146010BDC3
:103BD00042684A6093688B6093685960916008619D
:103BE00003685B1C0360704700BF502080F311889E
:103BF000BFF34F8FBFF36F8F00BF0E480068401CAC
:103C00000C49086008460068012812D10A4800687B
:103C1000C0B208B9012000E0002050B900BF502018
:103C200080F31188BFF34F8FBFF36F8F00BF00BFCA
:103C3000FEE770479C00002004ED00E00D4800689E
:103C400050B900BF502080F31188BFF34F8FBFF3EE
:103C50006F8F00BF00BFFEE706480068401E0549A1
:103C600008600846006820B9002080F3118800BF72
:103C700000BF70479C00002070B506463546002EF8
:103C80003FD0083D2C461F4960680968084008B1CC
:103C9000012000E0002050B900BF502080F31188BF
:103CA000BFF34F8FBFF36F8F00BF00BFFEE72068E9
:103CB00008B9012000E0002050B900BF502080F377
:103CC0001188BFF34F8FBFF36F8F00BF00BFFEE7B8
:103CD0000C4960680968084098B1206888B90949AA
:103CE000606809688843606000F074F9064960689C
:103CF00009680844044908602046FFF711FC00F0F9
:103D000031FF70BD980000209000002000204FF08F
:103D1000E02108618861064800684FF47A71B0FBC1
:103D2000F1F0401E4FF0E021486107200861704724
:103D30003000002070B5FCF779FA0446102C16D339
:103D400004F1E02090F8F05315480078854201DB3B
:103D5000012000E0002050B900BF502080F31188FE
:103D6000BFF34F8FBFF36F8F00BF00BFFEE70D485B
:103D7000006800F4E0600C490968884201D801201D
:103D800000E0002050B900BF502080F31188BFF33D
:103D90004F8FBFF36F8F00BF00BFFEE770BD000005
:103DA000A00000200CED00E0A4000020024600204E
:103DB0000BE0084B53F8303033B9064B43F8301062
:103DC00003EBC0035A6002E0401C0828F1D300BF97
:103DD000704700008C1000202DE9F04105460E468A
:103DE00017462C46FFF700FF94F94400401C10B919
:103DF000002084F8440094F94500401C10B90020CC
:103E000084F84500FFF71AFFA06B28B93A463146FF
:103E100004F1240000F062F82046FFF794FDBDE8AD
:103E2000F081000070B504460025D4B11248006846
:103E300008B9012000E0002050B900BF502080F3F5
:103E40001188BFF34F8FBFF36F8F00BF00BFFEE736
:103E500000F0C0F800212046FFF7B8F800F082FE1D
:103E600005463DB94FF0805004490860BFF34F8FBD
:103E7000BFF36F8F70BD00006C00002004ED00E008
:103E800003490968016003490968416070470000FF
:103E90005C000020480000200120014908607047B4
:103EA0005800002070B504460D4654B900BF50209C
:103EB00080F31188BFF34F8FBFF36F8F00BF00BF38
:103EC000FEE70548016818312046FFF767FE01212B
:103ED0002846FFF77BF870BD3400002070B505461A
:103EE0000E46144655B900BF502080F31188BFF329
:103EF0004F8FBFF36F8F00BF00BFFEE7064801681A
:103F000018312846FFF764FE0CB14FF0FF3621460A
:103F10003046FFF75BF870BD3400002010B586B066
:103F200000200590049003AA04A905A8FFF70EFE3F
:103F30000022DDE904101346CDE9002102901EA104
:103F40001F48039A00F048FC1E49086008460068B4
:103F500008B1012400E00024012C02D100F0D8FEB9
:103F60000446012C15D100BF502080F31188BFF307
:103F70004F8FBFF36F8F00BF4FF0FF3012490860C3
:103F800001201249086000201149086000F070F813
:103F900010E0601C08B1012000E0002050B900BF13
:103FA000502080F31188BFF34F8FBFF36F8F00BF96
:103FB00000BFFEE706B010BD49444C4500000000BC
:103FC00071330008680000206400002050000020C9
:103FD0004800002002480068401C01490860704702
:103FE0006C0000201D48006818B101201C490860C1
:103FF00032E000201A4908601A480068B0FA80F0E0
:10400000C0F11F0101EB8100174A52F8200008B1EE
:10401000012000E0002050B900BF502080F311883B
:10402000BFF34F8FBFF36F8F00BF00BFFEE701EB01
:1040300081020D4B03EB820042685268426000F13E
:1040400008024368934202D1426852684260426863
:10405000D268064B1A6000BF704700006C00002059
:10406000580000204C000020CC100020340000201C
:104070001CB53849084600780190FF200A461070A8
:104080000846007800909DF8000000F0F0009DF8D0
:104090000020904201D1012000E0002050B900BF73
:1040A000502080F31188BFF34F8FBFF36F8F00BF95
:1040B00000BFFEE79DF8000000F05000264A107097
:1040C0000720264A106009E024480068401E234A61
:1040D00010609DF800004006000E00909DF8000062
:1040E00000F080008028EFD01C480068C0F1070075
:1040F000042801D1012000E0002050B900BF502069
:1041000080F31188BFF34F8FBFF36F8F00BF00BFE5
:10411000FEE7124800680002104A1060104600884E
:1041200000F4E06010600B4A019810700C480068C1
:1041300040F470000A4908600846006840F070408A
:104140000860FFF7E3FD002006490860FCF738F837
:1041500000201CBD00E400E0A0000020A40000201E
:1041600020ED00E09C0000202DE9F84380460E463B
:1041700017461D46DDF82090B8F1000F01D0012050
:1041800000E0002050B900BF502080F31188BFF339
:104190004F8FBFF36F8F00BF00BFFEE70DB101204F
:1041A00000E0002050B900BF502080F31188BFF319
:1041B0004F8FBFF36F8F00BF00BFFEE707B10EB197
:1041C000012000E0002050B900BF502080F311888A
:1041D000BFF34F8FBFF36F8F00BF00BFFEE707B97C
:1041E0000EB9012000E0002050B900BF502080F33C
:1041F0001188BFF34F8FBFF36F8F00BF00BFFEE783
:10420000482000900098482801D1012000E00020BB
:1042100050B900BF502080F31188BFF34F8FBFF318
:104220006F8F00BF00BFFEE72C464CB1012084F821
:1042300046004B463A46314640460094FFF7ACF8FC
:104240002046BDE8F883000070B505460E462C46B2
:1042500054B900BF502080F31188BFF34F8FBFF3D4
:104260006F8F00BF00BFFEE7FFF7BEFCD4E90F125F
:10427000206801FB020060600020A0632068A0604D
:10428000E06B401E226C216800FB0210E060FF2002
:1042900084F8440084F845009EB9206908B90120DB
:1042A00000E00020A8B904F1100000F00FFC80B17C
:1042B0004FF0805009490860BFF34F8FBFF36F8FF5
:1042C00007E004F11000FFF759FC04F12400FFF7A8
:1042D00055FCFFF7B3FC012070BD000004ED00E0C9
:1042E0002DE9FF4383B0064688461D464FF000097E
:1042F000344654B900BF502080F31188BFF34F8F6C
:10430000BFF36F8F00BF00BFFEE7B8F1000F01D110
:10431000206C08B9012000E0002050B900BF5020F7
:1043200080F31188BFF34F8FBFF36F8F00BF00BFC3
:10433000FEE7022D02D1E06B012801D1012000E04F
:10434000002050B900BF502080F31188BFF34F8F79
:10435000BFF36F8F00BF00BFFEE700F099FA08B906
:10436000059808B9012000E0002050B900BF502096
:1043700080F31188BFF34F8FBFF36F8F00BF00BF73
:10438000FEE700BFFFF730FCA06BE16B884201D372
:10439000022D28D12A4641462046FEF730FF074627
:1043A000606A08B9012000E0002068B904F1240027
:1043B00000F08CFB88B14FF0805032490860BFF3A9
:1043C0004F8FBFF36F8F08E03FB14FF080502D4902
:1043D0000860BFF34F8FBFF36F8FFFF72FFC0120F3
:1043E00007B0BDE8F083059818B9FFF727FC002057
:1043F000F6E7B9F1000F04D101A8FFF741FD4FF036
:104400000109FFF71BFCFFF7E5FDFFF7EDFB94F952
:104410004400401C10B9002084F8440094F9450081
:10442000401C10B9002084F84500FFF707FC05A9DF
:1044300001A800F059F9F0B92046FFF7DEF8A0B165
:1044400004F110000599FFF72DFD2046FFF77BFAD8
:1044500000F088FB002895D14FF080500949086092
:10446000BFF34F8FBFF36F8F8CE72046FFF76BFAD8
:1044700000F078FB86E72046FFF765FA00F072FB54
:104480000020ADE704ED00E02DE9F05F07468A4625
:1044900090461E463C4654B900BF502080F3118818
:1044A000BFF34F8FBFF36F8F00BF00BFFEE7BAF1BE
:1044B000000F01D1206C08B9012000E0002050B9A4
:1044C00000BF502080F31188BFF34F8FBFF36F8F71
:1044D00000BF00BFFEE7022E02D1E06B012801D130
:1044E000012000E0002050B900BF502080F3118867
:1044F000BFF34F8FBFF36F8F00BF00BFFEE7FFF723
:1045000019FC00BF5021EFF3118081F31188BFF334
:104510004F8FBFF36F8F00BF0546A06BE16B8842E2
:1045200001D3022E23D194F945B03246514620469C
:10453000FEF765FE0BF1010088B9606A08B9012039
:1045400000E0002080B904F1240000F0BFFA58B167
:10455000B8F1000F08D00120C8F8000004E00BF10A
:10456000010040B284F845004FF0010901E04FF02E
:10457000000900BF85F3118800BF4846BDE8F09FE1
:104580002DE9F74183B005460E464FF000082C4652
:1045900054B900BF502080F31188BFF34F8FBFF391
:1045A0006F8F00BF00BFFEE70EB9206C08B9012075
:1045B00000E0002050B900BF502080F31188BFF305
:1045C0004F8FBFF36F8F00BF00BFFEE700F060F9B1
:1045D00008B9059808B9012000E0002050B900BFD3
:1045E000502080F31188BFF34F8FBFF36F8F00BF50
:1045F00000BFFEE700BFFFF7F7FAA76BF7B1314640
:104600002046FEF7E7FD781EA063206908B9012067
:1046100000E0002060B904F1100000F057FA38B152
:104620004FF080502F490860BFF34F8FBFF36F8F5B
:10463000FFF704FB012006B0BDE8F081059818B92A
:10464000FFF7FCFA0020F6E7B8F1000F04D101A84B
:10465000FFF716FC4FF00108FFF7F0FAFFF7BAFC7E
:10466000FFF7C2FA94F94400401C10B9002084F806
:10467000440094F94500401C10B9002084F845001E
:10468000FFF7DCFA05A901A800F02EF8F0B92046E2
:10469000FEF7A6FFA0B104F124000599FFF702FC84
:1046A0002046FFF750F900F05DFA0028A3D14FF043
:1046B00080500C490860BFF34F8FBFF36F8F9AE7AC
:1046C0002046FFF740F900F04DFA94E72046FFF747
:1046D0003AF900F047FA2046FEF782FF00288AD018
:1046E0000020A8E704ED00E070B505460C4655B97A
:1046F00000BF502080F31188BFF34F8FBFF36F8F3F
:1047000000BF00BFFEE754B900BF502080F31188FE
:10471000BFF34F8FBFF36F8F00BF00BFFEE7FFF700
:1047200063FA124802686868131A2068401C08B9C6
:10473000002617E00E4928680968884204D0686896
:10474000904201D801260DE02068984207D92068E0
:10475000C01A20602846FFF793FB002602E00020E5
:1047600020600126FFF76AFA304670BD480000203D
:104770005C0000202DE9FF4F85B080468946174632
:10478000DDE912ABB800FFF71DF9064656B154201B
:10479000FFF718F904460CB1266304E03046FFF732
:1047A0006BFA00E000248CB1002084F85100CDE9C0
:1047B00000ABCDE902403A4649464046089BFEF729
:1047C000FEFD2046FEF74EFC012501E04FF0FF35CF
:1047D000284609B0BDE8F08F2DE9F04F85B00746B7
:1047E000884691469A46DDE90EB6109C0EB101202E
:1047F00000E0002050B900BF502080F31188BFF3C3
:104800004F8FBFF36F8F00BF00BFFEE70CB10120D9
:1048100000E0002050B900BF502080F31188BFF3A2
:104820004F8FBFF36F8F00BF00BFFEE75420039090
:104830000398542801D1012000E0002050B900BFA6
:10484000502080F31188BFF34F8FBFF36F8F00BFED
:1048500000BFFEE7B4B1AEB125462C462E63022060
:1048600085F85100002004A953464A46CDE900B11D
:10487000CDE9025041463846FEF7A1FD2846FEF735
:10488000F1FB01E000200490049805B0BDE8F08F32
:104890000549096809B9012005E00449096809B911
:1048A000022000E000207047500000206C00002033
:1048B0000149086870470000480000202DE9F041D8
:1048C0004FF0000844480068002877D1434800684A
:1048D000451C4248056015BB41480068006808B99E
:1048E000012000E0002050B900BF502080F3118863
:1048F000BFF34F8FBFF36F8F00BF00BFFEE7384895
:104900000768384800683649086036480760364806
:104910000068401C34490860FEF768FF00BF334858
:10492000006885423CD300BF2D480068006808B984
:10493000012000E0002020B14FF0FF302B4908603B
:104940002DE027480068C068C4686668B54202D296
:104950002648066023E0201DFFF7E4F8A06A18B19E
:1049600004F11800FFF7DEF894F82C1001208840BD
:104970001F49096808431E490860E16A01EB81018B
:104980001C4A02EB8100211DFFF722F91A49E06A57
:104990000968C96A8842C7D34FF00108C4E700BF5D
:1049A00015480068C06A00EB8000124951F82000E9
:1049B000012801D94FF0010805E0FFE70F48006822
:1049C000401C0E4908600E48006808B14FF001080D
:1049D0004046BDE8F08100006C0000204800002047
:1049E000380000203C0000205C0000206400002013
:1049F0004C000020CC100020340000205400002087
:104A00005800002070B505462C460026002D55D0D4
:104A10002B480068844201D1012000E0002050B9F9
:104A200000BF502080F31188BFF34F8FBFF36F8F0B
:104A300000BF00BFFEE7A06C50B900BF502080F35C
:104A40001188BFF34F8FBFF36F8F00BF00BFFEE72A
:104A5000A06C401EA064616CE06A88422ED0A06CFD
:104A600060BB201DFFF75EF878B9E06A00EB8000BC
:104A7000144951F8200040B994F82C1001208840C6
:104A800011490968814310480160606CE062E06A86
:104A9000C0F10700A06194F82C10012088400A4959
:104AA0000968084308490860E16A01EB8101054A89
:104AB00002EB8100211DFFF78BF80126304670BD07
:104AC00034000020CC1000204C00002070B50646B9
:104AD000F068C46854B900BF502080F31188BFF358
:104AE0004F8FBFF36F8F00BF00BFFEE704F11800C8
:104AF000FFF718F815480068A8B9201DFFF712F84D
:104B000094F82C1001208840114909680843104985
:104B10000860E16A01EB81010E4A02EB8100211D70
:104B2000FFF756F804E004F118010B48FFF750F8BE
:104B30000A49E06A0968C96A884204D90125012046
:104B40000749086000E00025284670BD6C00002081
:104B50004C000020CC1000208011002034000020E8
:104B60005800002070B5002400263648006850B96F
:104B700000BF502080F31188BFF34F8FBFF36F8FBA
:104B800000BF00BFFEE7FFF72FF82E480068401E69
:104B90002C4908600846006800284FD12A48006860
:104BA00000284BD024E02948C068C46804F11800EC
:104BB000FEF7B8FF201DFEF7B5FF94F82C1001207A
:104BC000884023490968084321490860E16A01EBEC
:104BD0008101204A02EB8100211DFEF7F9FF1E49E9
:104BE000E06A0968C96A884202D301201B4908604B
:104BF0001648006808B9012000E000200028D2D043
:104C00000CB1FEF7F3FD1648056865B100BFFFF76C
:104C100055FE10B10120114908606D1E002DF6D11E
:104C200000200F4908600D48006838B101263007A0
:104C30000C490860BFF34F8FBFF36F8FFEF7FEFF85
:104C4000304670BD6C000020440000208011002020
:104C50004C000020CC100020340000205800002020
:104C60005400002004ED00E02DE9FC4705460E4607
:104C700017469846DDF828902C20FEF7A3FE044640
:104C800054B143463A4631462846CDE90094FEF7F2
:104C9000EBFB002084F828002046BDE8FC872DE9C6
:104CA000FC4706460F4690469946DDE90AA52C20AA
:104CB000019001982C2801D1012000E0002050B97A
:104CC00000BF502080F31188BFF34F8FBFF36F8F69
:104CD00000BF00BFFEE755B900BF502080F3118828
:104CE000BFF34F8FBFF36F8F00BF00BFFEE72C46AF
:104CF00054B14B46424639463046CDE900A4FEF752
:104D0000B3FB012084F828002046BDE8FC870000A2
:104D100010B586B00024FEF7FFF916480068D0B140
:104D200000200590049003AA04A905A8FEF71AFF25
:104D30000222DDE904100023CDE9002102900EA13A
:104D40000F48039AFFF748FD0E49086008460068BF
:104D500000B1012400BF54B900BF502080F3118876
:104D6000BFF34F8FBFF36F8F00BF00BFFEE720463A
:104D700006B010BD78000020546D72205376630099
:104D80002D3900087C0000202DE9FE4304460D4625
:104D900016461F46DDF828804FF0000954B900BFC1
:104DA000502080F31188BFF34F8FBFF36F8F00BF88
:104DB00000BFFEE71448006810B300950196029406
:104DC000062D15DAFFF764FD022808D100234246BC
:104DD00069460D480068FFF783FA814610E000231A
:104DE0001A46694608480068FFF77AFA814607E0E4
:104DF00000233A46694604480068FFF745FB8146B0
:104E00004846BDE8FE830000780000200000000056
:104E1000040404000008000000080000080000006E
:104E20000800020406080A0C000102030405060833
:104E30001C3044586C80000000000000000000009E
:104E4000000008000000000000000000000080409A
:104E50000000000004040400000800000008000036
:104E6000080000000800020406080A0C0001020302
:104E7000040506081C3044586C800000992E000878
:104E800000000000952E000800000000444F0008BC
:104E9000E92A000800000000000000008000000077
:104EA0000000000000000000304F0008E12500086D
:104EB00000000000000000000001000000000000F1
:104EC00000000000204F0008052B0008FEFF000036
:104ED0000000000080000000000000000000000052
:104EE000000000000000000001020304060708099A
:104EF000000000000102030430313233343536370C
:104F0000383941424344454640305800303132330D
:104F1000343536373839616263646566403078000D
:104F20005461736B5F5377697463685F4C656400A9
:104F30005461736B5F50617273655F4750535F6D6F
:104F40007367000064656661756C745461736B000F
:104F5000704F000800000020A80000002801000891
:104F600018500008A8000020602600004401000836
:104F7000F5060008F4010000000001000000000038
:104F80000000000000000000000000000000000021
:104F90000000000000000000100000000100000000
:104FA0000024F400000000000000000000000000E9
:104FB00000000000000000000000000000000000F1
:104FC00000000000000000000000000000000000E1
:104FD00000000000000000000000000000000000D1
:104FE00000000000000000000000000000000000C1
:104FF00000000000000000000000000000000000B1
:10500000000000000000000000000000AAAAAAAAF8
:08501000000000000000000098
:04000005080000ED02
:00000001FF
