:020000040800F2
:10000000402500208D0200089D3F00080B360008A7
:10001000993F00081F1A0008AD48000800000000C2
:10002000000000000000000000000000F5010008D2
:10003000C51A000800000000390200083546000813
:10004000A7020008A7020008A7020008A7020008EC
:10005000A7020008A7020008A7020008A7020008DC
:10006000A7020008A7020008A7020008A7020008CC
:10007000A7020008A7020008A7020008A7020008BC
:10008000A7020008A7020008A7020008A7020008AC
:100090009D480008251A0008351A0008A702000824
:1000A000A7020008D1460008A7020008A70200081E
:1000B000A7020008E1460008A7020008A7020008FE
:1000C000A7020008A7020008A7020008A70200086C
:1000D000A7020008AD470008A7020008A702000811
:1000E000A7020008A7020008A702000800F002F813
:1000F00000F070F80AA090E8000C82448344AAF152
:100100000107DA4501D100F065F8AFF2090EBAE84F
:100110000F0013F0010F18BFFB1A43F0010318473B
:10012000E8730000087400000A444FF0000C10F857
:10013000013B13F0070408BF10F8014B1D1108BF65
:1001400010F8015B641E05D010F8016B641E01F805
:10015000016BF9D113F0080F1EBF10F8014BAD1C55
:100160000C1B09D16D1E58BF01F801CBFAD505E073
:1001700014F8016B01F8016B6D1EF9D59142D6D3CD
:10018000704700000023002400250026103A28BFF5
:1001900078C1FBD8520728BF30C148BF0B607047F9
:1001A000662907F01D80642900F0C880752900F0D9
:1001B000C580782900F0FE80002070471FB500F050
:1001C000B9FE04000020002106F03CFFE0601FBDE6
:1001D00010B510BD00F0B7FF1146FFF7EFFF04F0B8
:1001E0007AFC00F0D5FF03B4FFF7F2FF03BC00F088
:1001F0009BFE0000224B19680868B0E8F00F80F3FE
:100200000988BFF36F8F4FF0000080F311884EF024
:100210000D0E70470000000006480068006880F37B
:10022000088862B661B6BFF34F8FBFF36F8F00DFF0
:1002300000BF00BF08ED00E0EFF30980BFF36F8F50
:100240000F4B1A6820E9F00F106008B54FF050000E
:1002500080F31188BFF34F8FBFF36F8F05F0D4FF8A
:100260004FF0000080F31188BDE808401968086865
:10027000B0E8F00F80F30988BFF36F8F704700BFBD
:1002800080020020EFF30580704700000948804796
:1002900009480047FEE7FEE7FEE7FEE7FEE7FEE768
:1002A000FEE7FEE7FEE7FEE704480549054A064B80
:1002B00070470000CF460008ED000008401D0020F8
:1002C00040250020402000204020002010B54C1088
:1002D00084EA530404D54042C1F1000138BF491EED
:1002E0001B4204D55242C3F1000338BF5B1E00F02D
:1002F00002FB14F0804F04D04042C1F1000138BF2E
:10030000491E14F0004F04D05242C3F1000338BF1D
:100310005B1E10BD0FB41CB5074B06AA7B44694693
:100320000090059800F0CBFD0020694600F0DAFD52
:100330001CBC5DF814FB0000C50B00002DE9F0416A
:100340000646002410687529314616A510D0AFF373
:100350000080002802DA404213A507E031688A07CE
:1003600001D512A502E0490704D511A5012401E039
:10037000AFF3008000210A2206F1240709E0B0FB58
:10038000F2FCB0FBF2F302FB1C003030785418464C
:10039000491C0028F3D123462A463046BDE8F041E7
:1003A00000F020BB000000002D0000002B0000002A
:1003B0002000000070B504460D4621461068AFF3DA
:1003C00000802188090502D50F4A7A4402E00E4ACE
:1003D0007A440E32002104F1240305E000F00F06F8
:1003E0000009965D5E54491C0028F7D1207800234F
:1003F000000704D5702D02D009B102231132204626
:10040000BDE8704000F0EEBA2E7000002DE9F05FFC
:10041000894604464FF0000ADFF824B1FB44C0F8D7
:1004200020A02046E168884700287DD0252806D0F6
:10043000D4E901219047206A401C2062F1E70025A1
:100440005F462046E16888472028064607DB312EB4
:1004500005D2B81910F8200C08B10543F1E7A80738
:1004600001D525F00405C4F81CA00027C4F818A085
:100470002A2E09D0304604F04BFA38B304EB870833
:10048000303EC8F8186019E059F8041B204604EB08
:1004900087029161E1688847012F064618D1E0691B
:1004A000002820DA25F020051DE0D8F8180000EB20
:1004B000800006EB40003038C8F818002046E1689C
:1004C0008847064604F024FA0028EED1012F0AD00E
:1004D0002E2E08D12046E16888477F1C0646022F51
:1004E00045F02005C4DBA069002803DA404245F04E
:1004F0000105A061E80701D025F01005A6B1A6F11D
:100500004100192802D8203645F400654A46314694
:10051000204625604D46FFF743FE60B1012807D015
:10052000ED1D25F0070000E007E000F1080978E77D
:1005300005F1040975E730467AE7206ABDE8F09FC7
:10054000047000000EB5054614460E4613A000F0D8
:10055000D9FC284600F0D6FC16A000F0D3FC3046AB
:1005600000F0D0FC15A000F0CDFC00218DF80B10A0
:100570000A210DF10A008DF80A1008E094FBF1F24F
:1005800001FB124294FBF1F4303200F8012D002CF3
:10059000F4DC00F0B7FC00F0AAFC00002A2A2A20B4
:1005A000617373657274696F6E206661696C6564EE
:1005B0003A2000002C2066696C6520002C206C69B4
:1005C0006E652000032A40F2308010F0030C00F02A
:1005D000158011F8013BBCF1020F624498BF11F87D
:1005E00001CB00F8013B38BF11F8013BA2F1040236
:1005F00098BF00F801CB38BF00F8013B11F00303AE
:1006000000F02580083AC0F0088051F8043B083A11
:1006100051F804CBA0E80810F5E7121D5CBF51F8B3
:10062000043B40F8043BAFF30080D20724BF11F82D
:10063000013B11F801CB48BF11F8012B24BF00F892
:10064000013B00F801CB48BF00F8012B704710B503
:10065000203AC0F00B80B1E81850203AA0E81850BA
:10066000B1E81850A0E81850BFF4F5AF5FEA027C7B
:1006700024BFB1E81850A0E8185044BF18C918C0EA
:10068000BDE810405FEA827C24BF51F8043B40F88B
:10069000043B08BF7047D20728BF31F8023B48BF70
:1006A00011F8012B28BF20F8023B48BF00F8012BAE
:1006B00070474FF000020429C0F0128010F0030CC4
:1006C00000F01B80CCF1040CBCF1020F18BF00F845
:1006D000012BA8BF20F8022BA1EB0C0100F00DB8F4
:1006E0005FEAC17C24BF00F8012B00F8012B48BF52
:1006F00000F8012B70474FF0000200B513469446F6
:100700009646203922BFA0E80C50A0E80C50B1F169
:100710002001BFF4F7AF090728BFA0E80C5048BF7D
:100720000CC05DF804EB890028BF40F8042B08BF1B
:10073000704748BF20F8022B11F0804F18BF00F817
:10074000012B704710B503681C1404EB21449BB2C5
:1007500089B2194494FBF2F302FB134394FBF2F4C5
:1007600001EB034393FBF2F102FB113193FBF2F334
:1007700001E05B1E11440029FBDB016003EB044038
:1007800010BDF0B504464FF0FF3585B00068049009
:1007900060680290A0680390E06801902069009072
:1007A000666906F18040B0F1004F7CD83C22002100
:1007B00004A8FFF7C7FF3C22014602A8FFF7C2FFCB
:1007C0001822014603A8FFF7BDFF411E40F2B552B3
:1007D00001A8FFF7B7FF0C22074668460021FFF784
:1007E000B1FF414B00EB8700304400267B4411E011
:1007F000511A01910099491C0229009102D00C293B
:1008000008D105E0810705D00199491C019101E05B
:10081000401C00960099019A595C9142E8DD0099CC
:10082000012906D11C2A04D1810702D00221CDE979
:100830000016A0F146018B293CD2DDE900610022BF
:1008400002E09F5C521C3944B242FADB012E02DD09
:10085000820700D0491E40F2B55340F26D16C21710
:1008600000EB927292105A4300F0030303FB06223E
:1008700083070A4400D1521E039E02EB4203049FE9
:1008800006EBC303029EC3EB031306EB8303174E71
:1008900033441E149BB2C6EB0616C3EB0313B6001B
:1008A00007EB830300E005E006EB134666F31F4306
:1008B000360C02D0284605B0F0BD80C4029E40C46C
:1008C000039E40C4019E761C44F80C6B009E44E9D4
:1008D00002600720521C92FBF0F600FB162084E811
:1008E00023001846E7E70000456C0000A039CEFD64
:1008F00070477047704753EA020C00F069802DE999
:10090000F04B4FF00006002B1FBFB3FA83F503FA3C
:1009100005F424FA05F65E4012BF1643B2FA82F5DA
:1009200002FA05F4C5F120051EBF22FA05FC44EACF
:100930000C04203556EA044C4FEA144418BF641CDA
:100940004FF000084FF00009904271EB030C39D3CF
:10095000002919BFB1FA81F701FA07F6B0FA80F75A
:1009600000FA07F6C7F120071EBF20FA07FC46EA87
:100970000C062037B6FBF4FCA7EB0507103F07F089
:100980001F0BCBF120060CFA0BFB2CFA06F644BF2A
:10099000B3460026202FA4BF5E464FF0000B5BEA53
:1009A000060C08BF4FF0010B19EB0B09ABFB027CE7
:1009B00048EB0608C01B06FB02CC0BFB03CC71EB1B
:1009C0000C01C1E70B46024641464846BDE8F08BA4
:1009D00013B54FF000004FF00001AFF30080BDE809
:1009E0001C4070472DE9F0470D4699469246044653
:1009F00000F124080168880604D5E06921F010019F
:100A0000216000E00120A84201DD471B00E0002733
:100A1000A1697A1902EB0900081AA0612078C006C2
:100A200002D42046AFF30080002608E0D4E901217B
:100A30001AF806009047206A401C761C20624E453A
:100A4000F4DB2078C0060AD52046AFF3008006E02C
:100A5000D4E9012130209047206A401C2062381ED2
:100A6000A7F10107F4DC07E0D4E9012118F805003B
:100A70009047206A401C2062281EA5F10105F3DC86
:100A80002046AFF300802078000602D50220BDE8A2
:100A9000F0870120FBE770472DE9FF4F0C461E460B
:100AA0004FF0FF378BB0D2E90001DDF860800A908B
:100AB0008A46C1F30A5505B93D46002108464FF064
:100AC0000000BAF1000F00F4400005DA00EB8000EE
:100AD0004FF4400101EA50004FEA9059B9F1010F7B
:100AE00000DDB9460A9850EA4A000ED044F610508C
:100AF000A5F2FF3545432F14B8F1000F1ED0754203
:100B0000291E1EDDC9F100021CE0B8F1010F4FF0F3
:100B1000000001D0302103E0F24305E02154401CE5
:100B2000B042FBDB30460022002121540B99C1F872
:100B30000880C1E900200FB0BDE8F08FBD1B6D1C1F
:100B4000DEE74A4600DA694206A800F07DFA06AB05
:100B500093E8070003AB83E8070050460A9900F0CA
:100B600096FB8DE80700A0F500501F380090039811
:100B7000002D0ADD42F21F014A460844002303A962
:100B80000390684600F0FFFD09E0A0F500504A46DA
:100B90001F38002303A90390684600F009FE8DE882
:100BA00007000004000C03D04FF0FF30410800E0C4
:100BB0001046B8F1000F03D00022009215461EE047
:100BC000751E05D400F0BAF9303262556D1EF9D5A4
:100BD000B3460122084302D000227F1C04E02078A3
:100BE000302801D100227F1E002A099784D01DE001
:100BF000112D07DA00F0A2F9303262556D1C50EA6F
:100C00000102F5D1084302D00098C8B10EE00021DE
:100C1000681E05E0235C625C63542254401E491C3C
:100C20008142F7DBAB46A81B401E0990002004F868
:100C30000B000B98099AC0F80880C0E9002B7AE7EE
:100C400011264FF0000857E72DE9F04F884604467B
:100C5000D21D22F0070191B0D1E90001CDE90A01CE
:100C600003F026FE02460B98C00F01D02D2007E0AE
:100C70002068810701D52B2002E0202101EAC00075
:100C8000032A099001D0072A05DB03464146204686
:100C900000F09AF90BE12078800601D5E06900E0C8
:100CA0000620B8F1650F814606D0B8F1660F18D05E
:100CB000B8F1670F70D131E00020B9F1110F009049
:100CC00001DB112301E009F101030AAA01A90CA823
:100CD000FFF7E2FEDDE90C70002609F1010583460D
:100CE00047E001204B4600904FF000470AAA01A9B7
:100CF0000CA8FFF7D1FEDDE90DB00C995D4600268A
:100D000010B909F101000D18B9EB050003D4C0F1C9
:100D1000FF3609F10105A5EB09002BE0B9F1010F40
:100D200001DA4FF001090020B9F1110F0090484697
:100D300001DD112300E003460AAA01A90CA8FFF770
:100D4000ABFEDDE90C704D46002683462078000797
:100D50000AD4AB4500DA5D4601A8012D04DD411936
:100D600011F8011C302907D04F4502DA17F1040FA2
:100D700004DA012082460FE06D1EEEE7002F02DC50
:100D8000ED1B3E4403E0781CA84200DD7D1CB81B2F
:100D900000F1010A4FF000472078000703D4AA456C
:100DA00001DB4FF0FF3A0021B7F1004F0DF143088E
:100DB0008DF8431024D002202B23002F01DA7F422C
:100DC0002D230A21021EA0F1010000DC5FB197FB78
:100DD000F1FC97FBF1F201FB1C7C17460CF1300C87
:100DE00008F801CDEEE7A8F101000370218809059C
:100DF00001D5452100E06521A0F1010800F8011CA2
:100E000009980FA9A1EB0807FF1D00B101204119A6
:100E100001EBEA70A1693844081A401EA0612078ED
:100E2000C00602D42046AFF30080099828B1D4E967
:100E300001219047206A401C20622078C00622D5FC
:100E40002046AFF300801EE0002E04DBB34502DD38
:100E500001A8805D00E03020D4E901219047206A9C
:100E6000401C2062761CAAF101005FEA000A0AD148
:100E700000F060F8C0680168405CD4E90121904747
:100E8000206A401C2062281EA5F10105DCDC07E079
:100E9000D4E9012118F8010B9047206A401C206218
:100EA000381EA7F10107F3DC2046AFF300800320D2
:100EB00011B041E601694A1C02610878704700B52B
:100EC0008FB0CDE901310021059105497944CDE983
:100ED000031011466846FFF799FA0FB000BD0000F5
:100EE000E5FFFFFF0A6802F8010B0A60704710B5C2
:100EF000002000F01BF9FFF76BF9BDE8104001205E
:100F000000F012B810B5044602E0641C00F004F8CA
:100F100020780028F9D110BD08B569468DF8000089
:100F20000320ABBE08BD000001491820ABBEFEE7A0
:100F30002600020000487047FC1C002030B5B0F1CC
:100F40000A024FEA900E71F100034EEA817EB0EB87
:100F50000E0061EB91014FEA101E4EEA017E10EB8C
:100F60000E0041EB11114FEA102E4EEA016E10EB0C
:100F70000E0041EB11214FEA104E4EEA014E10EBEC
:100F80000E0041EB1141401841F100014FEAD00041
:100F900040EA41704FEAD10110EB80054FEA81042D
:100FA00044EA907444EB01046D1944EB0404521BB1
:100FB000A3414FF0000348BF0A3200D530BD401CAA
:100FC00041F1000130BD00002DE9F0411F4604460B
:100FD00003260168072A01F4006004DB08B116A5A6
:100FE00005E016A503E008B115A500E015A521F060
:100FF00010002060A069C01EA0610FB1401EA0615A
:101000002046AFF300804FB1D4E901213846904724
:10101000206A401C2062C01C206206E0206AFAE7B9
:10102000D4E9012115F8010B9047761EF8D220462D
:10103000AFF30080BDE8F0814E414E006E616E005E
:10104000494E4600696E66002DE9F0478146164616
:101050008AB0354878440DC88DE80D003248784490
:10106000801C03AC0DC884E80D0041F69B30084499
:10107000372190FBF1F290FBF1F5A5F1800501FB22
:1010800012041B3C02D56442012000E00020DFF87E
:1010900098A080460027FA44AAF1BE0A0EE0E007B5
:1010A0000AD03246684607EB470101230AEB81016B
:1010B00000F07EFB8DE8070064107F1C002CEED151
:1010C000194F7F44AE3F19E0E80715D007EB041035
:1010D0000DF1180A90E80E008AE80E00C068F04290
:1010E00001D1981908903246012306A903A800F0FF
:1010F0005FFB03AB83E807006D10641C002DE3D198
:101100004FF0010332466946B8F1000F03A802D040
:1011100000F039FB01E000F04BFBC9E90001C9F820
:1011200008200AB0BDE8F0876864000010B500F040
:101130003DF8BDE8104000F034B8000000487047AA
:10114000DC1C002070477546FFF7F8FFAE4605002F
:101150006946534620F00700854618B020B5FFF7D2
:10116000A3F8BDE820404FF000064FF000074FF015
:1011700000084FF0000B21F00701AC46ACE8C009B5
:10118000ACE8C009ACE8C009ACE8C0098D467047BE
:1011900010B50446AFF300802046BDE81040FFF7CD
:1011A00022B8002801D0FFF7BFBE704710B500215C
:1011B00002A000F053F8012010BD00005349474140
:1011C0004252543A2041626E6F726D616C207465B8
:1011D000726D696E6174696F6E0000004FF0013CC2
:1011E00050F8042B51F8043B9A4221D1A2EB0C0396
:1011F000934313EACC1317D150F8042B51F8043B56
:101200009A4215D1A2EB0C03934313EACC130BD1F2
:1012100050F8042B51F8043B9A4209D1A2EB0C037D
:10122000934313EACC13DBD04FF00000704700BFAC
:10123000D01A01BAB1FA81F101F0180122FA01F0D5
:10124000CB40C1F12001DBB2C0B2C01A2CFA01F3CD
:10125000D11A914311EAC311E6D1704770B5054622
:101260000C460A2000E06D1CFFF756FE35B12878C9
:101270000028F8D102E0641CFFF74EFE14B120787C
:101280000028F8D1BDE870400A20FFF745BE5FEAAC
:10129000400C08BF91F0000F4FEA8C234FEAC122A7
:1012A00043EA51514FEA1C5018BF00F5F0404FEA95
:1012B000300018BF41F000415FEA6C5C00F029800B
:1012C000BCF1FF3F08BF40F080407047130C06BFE1
:1012D00012044FF0100C4FF0000C130E04BF12025A
:1012E0000CF1080C130F04BF12010CF1040C930F46
:1012F00004BF92000CF1020CD30F04BF52000CF19A
:10130000010C11464FF00002A0F11F00A0EB0C00F1
:10131000704711F0004F08BF704731F000413FF4B3
:10132000D5AF0B0C06BF09044FF0100C4FF0000CAA
:101330000B0E04BF09020CF1080C0B0F04BF0901CE
:101340000CF1040C8B0F04BF89000CF1020CCB0FC5
:1013500004BF49000CF1010CCCF12003A0EB0C0000
:1013600022FA03F302FA0CF241EA030100F1010050
:10137000704720F07F4C80EA030023F07F47ACEBFE
:10138000070303F57C5300F0004003F1FF032DE950
:1013900080494FEA154B09B44FEA144325EA0B4E36
:1013A00024EA03480FF2042606EB132749083E7887
:1013B0005FEA320203FB0667C7F5000707FB06F684
:1013C0004FEA54374FEAD64606F1020607FB066C91
:1013D000CCF1005C4FEA1C472CEA074C07FB06F4F3
:1013E0000CFB06F504EB15464FEA961634BF0020B9
:1013F0004FF000404FEAD13706FB07FC4FEA1C4C88
:101400000CFB0BF7D21B03FB0CF761EB07010CFB8A
:101410000EF7B0EB074072EB17420CFB08F734BF36
:10142000A2EB0742B2EB074261EB17414FEA0C44D3
:101430004FEA910706FB07FC4FEA1C4C0CFB0BF72D
:10144000B0EBC74072EB573203FB0CF734BFA2EB93
:10145000C742B2EBC74261EB57310CFB0EF7B0EB62
:10146000C70072EB57720CFB08F734BFA2EBC70240
:10147000B2EBC70261EB5771039F4FEA816141EA0A
:10148000921104EBCC044FEAD1374FEA826206FB9B
:1014900007FC42EA90124FEA80604FEA1C4C0CFBBA
:1014A0000BF7D21B03FB0CF761EB07010CFB0EF7EC
:1014B000B0EB074072EB17420CFB08F734BFA2EB0E
:1014C0000742B2EB074261EB17414FEA8C554FEAF6
:1014D000910704EB9C2406FB07FC4FEA1C4C0CFB19
:1014E0000BF7B0EBC74072EB573203FB0CF734BF7E
:1014F000A2EBC742B2EBC74261EB57310CFB0EF7D0
:10150000B0EBC70072EB57720CFB08F734BFA2EBCD
:10151000C702B2EBC70261EB577115EB4C254FEADE
:10152000816141EA92114FEA82624FEAD13742EA81
:10153000901206FB07FC44F100044FEA80604FEA7A
:101540001C4C0CFB0BF7D21B03FB0CF761EB0701E8
:101550000CFB0EF7B0EB074072EB17420CFB08F7E1
:1015600034BFA2EB0742B2EB074261EB174115EB28
:101570001C154FEA813141EA92414FEA823242EA38
:1015800090424FEA80304FEA0C7644F1000448EA7A
:1015900003434EEA0B484FF0000EB2EB080C71EB20
:1015A000030724BF624639464EEB0E0E4FF0000B88
:1015B0000018524149414BEB0B0BB2EB080C71EB9D
:1015C00003077BF1000B24BF624639464EEB0E0E3B
:1015D0004FF0000B0018524149414BEB0B0BB2EBA3
:1015E000080C71EB03077BF1000B24BF6246394600
:1015F0004EEB0E0E51EA020718BF46F0010616EB3D
:101600000E7655F1000254F1000103D5BDE88901C1
:10161000BDE80088BDE88901BDE80048B61952411F
:1016200041EB0101A3F10103704780807F7E7D7C47
:101630007B7A7978777676757473727171706F6E64
:101640006E6D6C6C6B6A6A6968686766666564640F
:10165000636362616160605F5F5E5E5D5D5C5C5B99
:101660005B5A5A5959585857575656555555545408
:10167000535352525251515050504F4F4F4E4E4D66
:101680004D4D4C4C4C4B4B4B4A4A4A4949494848B2
:1016900048474747474646464545454444444443F2
:1016A00043434342424242414141002B9C4630D495
:1016B00077002BD01CB54FEA370703B44FF010006A
:1016C0004FF01001BAF1000F06D0BCF1000FDCBFE3
:1016D00040F0080040F008014FF000000FBCBDE8EA
:1016E00010400BF1010BBBF1010F08BF5FEA1707B8
:1016F00022BF12F1010211F101014FF0004143F14B
:10170000000300F0004043EA00007047F9D3570897
:10171000D0E746EA064613F1400F4FEA16461FDDB2
:1017200013F1200FDFBF16430A46002120335B422E
:10173000BED0C3F1200746EA064602FA07F74FEA91
:10174000164646EA0706C3F1200722FA03F201FA19
:1017500007F721FA03F14FF0000342EA0702A7E777
:1017600046EA020646EA06464FEA164646EA0106F9
:10177000BCBF46EA0646360C4FF000034FF00002AD
:101780004FF0000194E72DE9804C9A46934670B4DF
:1017900091E8380007C831EA400C48BF34EA430CEE
:1017A00003D5FFF7E6FDFFF780FFF0BCBDE8008C36
:1017B0002DE9804C9A46934670B491E8380007C8EA
:1017C00010F0804F08BF13F0804F03D100F005F8F0
:1017D000FFF76BFFF0BCBDE8008C20F07F4780EA8C
:1017E000030023F07F4C07EB0C03A3F57C5300F0C0
:1017F0000040A3F1FE0392F0000F00F0B38095F0DB
:10180000000F00F077802DE901494FEA11404FEABF
:10181000144621EA004800FB06FC24EA064708FBC0
:1018200006F607FB08F800FB07F718EB06484CEB39
:10183000164C4FEA124B18EB07484FEA15464CEB93
:10184000174022EA0B4E0BFB06FC25EA06470EFB6F
:1018500006F607FB0EFE0BFB07F71EEB064E4CEBE6
:10186000164C4FF000061EEB074E4CEB174B18EBD7
:101870000B0840F1000018EB0E0B58EB000840F18C
:1018800000008F1A4FF000013CBFC943661B14BF14
:10189000B5EB040C00213CBFC943F61B4FEA1744CB
:1018A0004EEA8E0E27EA04454FEA1C4704FB076206
:1018B0002CEA074C05FB07F70CFB05F604FB0CFCB8
:1018C00016EB074642EB174216EB0C4642EB1C4266
:1018D0001BEB060658EB0202414146EA9E0601D583
:1018E000BDE80189B619524141EB0101A3F10103A1
:1018F000BDE801894FEA14454FEA114724EA05463D
:1019000021EA074C05FB07F406FB07F70CFB06F181
:1019100005FB0CFC11EB074144EB17444FEA12475F
:1019200011EB0C4144EB1C4422EA074C05FB07F287
:1019300006FB07F70CFB06F605FB0CFC16EB07464F
:1019400042EB174216EB0C4642EB1C456A1854F169
:10195000000148BF7047B619524141EB0101A3F1A4
:101960000103704795F0000F37D04FEA11424FEA5C
:10197000144721EA024624EA074C02FB07F106FB62
:1019800007F70CFB06F402FB0CFC14EB074441EBDD
:1019900017414FEA154714EB0C4441EB1C4125EA73
:1019A000074C02FB07F506FB07F70CFB06F602FBEC
:1019B0000CFC16EB074645EB174516EB0C4645EBC2
:1019C0001C42121951F1000148BF7047B61952412B
:1019D00041EB0101A3F1010370474FEA14454FEABF
:1019E000114724EA054621EA074C05FB07F106FBEF
:1019F00007F70CFB06F24FF0000605FB0CFC12EBA0
:101A0000074241EB174112EB0C4251EB1C4148BF1E
:101A10007047921841EB0101A3F10103704700BF29
:101A2000FEE7000010B5024800F04FFB10BD0000BB
:101A3000F80B002010B5024800F047FB10BD000075
:101A4000F80B00202DE9F04106460F46002500E086
:101A50006D1C194800F01EFB18B94FF6FF70854247
:101A6000F6D14FF6FF70854203D103200446BDE84E
:101A7000F0811248006800F0806018B10020104921
:101A8000086010E00D48006800F0006018B1012007
:101A90000B49086007E00948006800F0805010B169
:101AA000022007490860064B3A463146024800F0DA
:101AB000E4F80446DBE70000F80B0020086400406F
:101AC00050020020704772B600BFFEE710B5044612
:101AD000204601F029FF10BD2DE9D04F90B082467D
:101AE000DAF868B03B484168584605F0FFFA40D242
:101AF000DAF850000890DAF84C000990DAF848005B
:101B0000A0F26C700A90DAF854000790DAF85800E6
:101B10000690DAF85C003C2802D13B20059002E0F8
:101B2000DAF85C00059005A802F0F0FF04462A49A7
:101B3000601A284908609AF8A000C0F3001028B184
:101B40009AF8A000C0F34010002840D12148407A04
:101B500000F0040028B91F48407A401C1D49487213
:101B600035E01C48807A20F0800080301949887266
:101B70002DE01848407A20B11648407A401E154999
:101B800048721448807A20F0800012498872DAF88E
:101B9000680005F073FA06460F46DAF86C0005F0A7
:101BA0006DFA80460B469AF8A000C0F340109AF8F0
:101BB000A010C1F300114246CDE90067CDE9021043
:101BC00006A10E48FEF7A6FB0C4802F0D3FD10B0AC
:101BD000BDE8D08F0000002080436D3870444F5026
:101BE0003D25302E32662C2067444F503D25302E47
:101BF00032662C2025752025750D0A00200C00204A
:101C000070B504464FF0FF350E4802F027FC00285F
:101C100015DD204602F0F8F9051E10DD0A48C07AED
:101C200020F040000849C8722046FFF755FF0648DB
:101C3000807AC00918B10449D1F8120080472846BB
:101C400070BD0000700C00200000002003207047D1
:101C500010B5024692F82030012B01D0022B06D19C
:101C600010684069084314686061002010BD506A24
:101C700040F4802050620120F8E7F0B504460D469C
:101C80001E4694F8207020688368A86800B900E0B8
:101C900000BF012F01D0022F7CD103F0806030B94A
:101CA00003F0006018B903F08050002873D0C3F32C
:101CB0000161022905D9606A40F4000060620120D8
:101CC000F0BD012088403060A86860B9B5F800C058
:101CD000E86840EA4C5C206800F5C07000EB011039
:101CE000C0F800C00FE0D5E901C040EACC00D5F84B
:101CF0000CC040EA0C00D4F800C00CF5C07C0CEB22
:101D0000011CCCF80000D5F810C0206800F5C070A8
:101D100000EB0110C0F804C0287D01280ED1206816
:101D200000F5C07000EB0110406840F4807C206832
:101D300000F5C07000EB0110C0F804C0D0790006B7
:101D400092F806C040EA0C4092F805C040EA0C2C1C
:101D500010794CEA000C206800F5C07000EB01100F
:101D6000C0F80CC0D078000692F802C040EA0C40DF
:101D700092F801C040EA0C2092F800C040EA0C0042
:101D8000D4F800C00CF5C07C0CEB011CCCF80800AA
:101D9000206801E016E00FE000F5C07000EB0110D4
:101DA000006840F0010C206800F5C07000EB0110E5
:101DB000C0F800C0002083E7606A40F40010606251
:101DC00001207DE7606A40F480206062012077E7AF
:101DD000F0B504460A46216894F82050012D01D040
:101DE000022D74D1D1F8000240F00100C1F80002C8
:101DF000107D00F01F06012000FA06F3D1F81C0246
:101E00009843C1F81C02D069C8B9D1F80C029843B4
:101E1000C1F80C02908880B2968940EA064601F526
:101E20001070576940F83760108880B2168940EA10
:101E3000064601F51070576900EBC7004660D0698F
:101E4000012819D1D1F80C021843C1F80C0290886E
:101E500080B2168840EA064601F51070576940F8CE
:101E60003760908980B2168940EA064601F5107005
:101E7000576900EBC7004660906928B9D1F80402A1
:101E80009843C1F8040204E0D1F804021843C1F8F1
:101E90000402106928B9D1F814029843C1F8140259
:101EA00004E0D1F814021843C1F81402106A0128A2
:101EB00004D1D1F81C021843C1F81C02D1F8000269
:101EC00020F00100C1F800020020F0BDFFE7606AC9
:101ED00040F4802060620120F7E7000070B50446FE
:101EE0000025204600F016F8051E07D02A4604A15A
:101EF0000748FEF70FFA064802F03CFC70BD0000F0
:101F000043414E315F4552524F523D25750D0A00F7
:101F1000200C00200146486A704770B5044694F8CA
:101F20002050012D01D0022D7DD151B92068C0680B
:101F300000F0030080B9606A40F400106062012084
:101F400070BD2068006900F0030028B9606A40F4A1
:101F5000001060620120F3E7206800F5D87000EB04
:101F60000110006800F004009060906840B920689B
:101F700000F5D87000EB01100068400D106007E01C
:101F8000206800F5D87000EB01100068C0085060B0
:101F9000206800F5D87000EB0110006800F0020026
:101FA000D060206800F5D87000EB0110406800F0A8
:101FB0000F001061206800F5D87000EB0110406838
:101FC00000F47F40000A9061206800F5D87000EBB3
:101FD00001104068000C5061206800F5D87000EBDB
:101FE000011080681870206800F5D87000EB0110AF
:101FF000806800F47F40000A5870206800F5D870AF
:1020000000EB0110806800F47F00000C98702068DD
:1020100000F5D87000EB01108068000ED8702068C1
:1020200000F5D87000E02FE000EB0110C0681871D7
:10203000206800F5D87000EB0110C06800F47F4004
:10204000000A5871206800F5D87000EB0110C068D4
:1020500000F47F00000C9871206800F5D87000EB48
:102060000110C068000ED87131B92068C06840F016
:1020700020002668F06005E02068006940F020003C
:102080002668306100205BE7606A40F4802060626F
:10209000012055E70146002091F82020012A01D0B7
:1020A000022A11D10B689B6803F0806303B1401CC6
:1020B0000B689B6803F0006303B1401C0B689B68CE
:1020C00003F0805303B1401C70472DE9F05F0446D4
:1020D0000025206846692068D0F804902068876849
:1020E0002068D0F80CA02068D0F810B02068D0F894
:1020F000188006F00100002855D007F00100C0B19B
:1021000001202168886007F0020018B1204600F025
:1021100016FB0EE007F0040010B145F4006508E07E
:1021200007F0080010B145F4805502E0204600F0A9
:1021300005FB07F48070C8B14FF480702168886097
:1021400007F4007018B1204600F0FBFA0EE007F427
:10215000806010B145F4005508E007F4006010B14C
:1021600045F4804502E0204600F0EAFA07F48030AA
:10217000C8B14FF480302168886007F4003018B18E
:10218000204600F0E0FA0EE007F4802010B145F49C
:10219000004508E007F4002010B145F4803502E066
:1021A000204600F0CFFA06F0080038B10AF010001F
:1021B00020B145F4007510202168C86006F00400C5
:1021C00040B10AF0080028B108202168C860204604
:1021D00000F0B8F906F0020038B12068C06800F0DD
:1021E000030010B1204600F0C1F906F0400038B1FC
:1021F0000BF0100020B145F48065102021680861C3
:1022000006F0200040B10BF0080028B1082021683A
:102210000861204600F0FCF906F0100038B1206893
:10222000006900F0030010B1204600F005FA06F442
:10223000003040B109F0100028B11020216848603A
:10224000204600F04BFA06F4803040B109F0080057
:1022500028B1082021684860204600F075FA06F48D
:10226000004088B309F0040078B306F4807020B110
:1022700008F0010008B145F0010506F4007020B136
:1022800008F0020008B145F0020506F4806020B1B4
:1022900008F0040008B145F0040506F40060A0B1A0
:1022A00008F0700088B108F07000402817D006DCF4
:1022B00010280BD020280CD0302819D10CE0502841
:1022C00010D0602814D110E01DE019E045F0080599
:1022D0000FE045F010050CE045F0200509E045F061
:1022E000400506E045F0800503E045F4807500E018
:1022F00000BF00BF2068806920F0700021688861FD
:102300000420216848602DB1606A2843606220463D
:10231000FFF7E4FDBDE8F09F70B504460CB901205D
:1023200070BD94F8200010B9204600F0AFF8206886
:10233000006840F001002168086000F097FB054646
:102340000DE000F093FB401B0A2808D9606A40F4B6
:1023500000306062052084F820000120E0E720685A
:10236000406800F001000028EBD02068006820F0F1
:1023700002002168086000F079FB05460DE000F0DE
:1023800075FB401B0A2808D9606A40F4003060627F
:10239000052084F820000120C2E72068406800F092
:1023A00002000028EBD1207E012806D120680068B9
:1023B00040F080002168086005E02068006820F097
:1023C000800021680860607E012806D120680068CE
:1023D00040F040002168086005E02068006820F0B7
:1023E000400021680860A07E012806D120680068AE
:1023F00040F020002168086005E02068006820F0B7
:10240000200021680860E07E012806D1206800686D
:1024100020F010002168086005E02068006840F0A6
:10242000100021680860207F012806D1206800681C
:1024300040F008002168086005E02068006820F08E
:10244000080021680860607F012806D120680068C4
:1024500040F004002168086005E02068006820F072
:10246000040021680860D4E9020108432169084397
:10247000616908436168491E08432168C8610020FA
:102480006062012084F82000002049E710B586B082
:10249000044600200290039004900590264920688D
:1024A000884246D100BF2548C06940F000702349EA
:1024B000C8610846C06900F00070019000BF00BF0D
:1024C00000BF0846806940F00400886108468069C2
:1024D00000F00400019000BF00BFC814029000206B
:1024E0000390049002A9164800F030F94FF4805090
:1024F0000290022003900320059002A9104800F0EA
:1025000025F900220721142000F066FB142000F0BA
:1025100053FB00220721152000F05EFB152000F080
:102520004BFB00220721162000F056FB162000F07E
:1025300043FB06B010BD00000064004000100240E4
:102540000008014010B5044603A10748FDF7E2FE6C
:10255000054802F00FF910BD43414E5F4649464F12
:10256000305F46756C6C0000200C002010B588B000
:102570000446194B194A00212046FFF7CEFC40BB08
:1025800003201549491E08700846007AC979124A85
:10259000521E9279104B5B1E5B79CDE90332CDE977
:1025A00005100D48401E00790B49491EC9780A4A9A
:1025B000521E9278CDE9002102900748401E4378D0
:1025C000064807A102681148FDF7A4FE0F4802F073
:1025D000D1F808B010BD0000ED0B0020D00B00209A
:1025E0004649464F305F69643D25782C6D73673DE1
:1025F00025785F25785F25785F25785F25785F25CA
:10260000785F25785F25780D0A000000200C0020F7
:1026100010B5044603A10748FDF77CFE054802F00B
:10262000A9F810BD43414E5F4649464F315F46759C
:102630006C6C0000200C002010B588B00446194BCB
:10264000194A01212046FFF768FC40BB04201549C8
:10265000491E08700846007AC979124A521E9279BA
:10266000104B5B1E5B79CDE90332CDE905100D48B7
:10267000401E00790B49491EC9780A4A521E9278B9
:10268000CDE9002102900748401E4378064807A183
:1026900002681148FDF73EFE0F4802F06BF808B0E3
:1026A00010BD0000ED0B0020D00B00204649464F26
:1026B000315F69643D25782C6D73673D25785F2512
:1026C000785F25785F25785F25785F25785F2578A6
:1026D0005F25780D0A000000200C0020704770B5BF
:1026E000044694F82000012822D1022084F820001A
:1026F0002068006820F001002168086000F0B6F949
:1027000005460DE000F0B2F9401B0A2808D9606ABE
:1027100040F400306062052084F82000012070BD84
:102720002068406800F001000028EBD16062F6E705
:10273000606A40F4002060620120F0E77047704753
:102740007047704770477047704700002DE9F847A1
:102750000346002294466EE14FF0010808FA02F4A5
:10276000D1F8008008EA0400A0427DD1DFF8DCA2A5
:10277000D1F80480A8EB0A09D0453AD014DCB8F1AE
:10278000030F50D009DCB8F1000F31D0B8F1010FC0
:102790001CD0B8F1020F49D120E0B8F1110F18D0C8
:1027A000B8F1120F42D11EE0B9F5881F25D006DC22
:1027B000B9F5803F20D0B9F5801F37D11AE0B9F5BF
:1027C000001F18D0B9F5041F30D117E0D1F80CC0A4
:1027D0002DE0D1F80C8008F1040C28E0D1F80C8031
:1027E00008F1080C23E0D1F80C8008F10C0C1EE075
:1027F00000BF00BF00BF00BF00BF00BFD1F808800E
:10280000B8F1000F02D14FF0040C0BE0D1F80880B2
:10281000B8F1010F03D14FF0080C1C6102E04FF03A
:10282000080C5C6103E04FF0000C00E000BF00BF4B
:10283000FF2801D8984601E003F104084646FF2826
:1028400002D84FEA820803E0A2F108084FEA88089C
:102850004746D6F800804FF00F0909FA07F928EA31
:1028600009080CFA07F900E088E048EA0908C6F808
:102870000080D1F8048008F08058B8F1805F7DD1E5
:1028800000BFDFF8CC81D8F8188048F00108DFF8E5
:10289000C091C9F81880C846D8F8188008F0010817
:1028A000CDF8008000BF00BF4FEAB9384FEA920967
:1028B00058F829504FEA82784FEA18794FF00F08FC
:1028C00008FA09F825EA0805DFF88881434502D1AE
:1028D0004FF0000816E0DFF88081434502D14FF049
:1028E00001080FE0DFF87481434502D14FF0020880
:1028F00008E0DFF86C81434502D14FF0030801E0A6
:102900004FF004084FEA82794FEA197908FA09F87A
:1029100048EA0505DFF84C814FEA920948F829504A
:10292000D1F8048008F48038B8F5803F0AD1DFF888
:102930003881D8F8008048EA0008DFF82C91C9F8FF
:10294000008009E0DFF82081D8F8008028EA00083C
:10295000DFF81491C9F80080D1F8048008F4003839
:10296000B8F5003F10D1DFF8008108F10408D8F86D
:10297000008048EA0008DFF8F09000E05AE009F132
:102980000409C9F800800DE0DFF8DC8008F10408D4
:10299000D8F8008028EA0008DFF8CC9009F1040993
:1029A000C9F80080D1F8048008F48018B8F5801FB9
:1029B0000ED1DFF8B48008F10808D8F8008048EAA2
:1029C0000008DFF8A49009F10809C9F800800DE0BB
:1029D000DFF8948008F10808D8F8008028EA000899
:1029E000DFF8849009F10809C9F80080D1F8048063
:1029F00008F40018B8F5001F0ED1DFF86C8008F15C
:102A00000C08D8F8008048EA0008DFF85C9009F16B
:102A10000C09C9F800800DE0DFF84C8008F10C08C3
:102A2000D8F8008028EA0008DFF83C9009F10C098A
:102A3000C9F80080521CD1F8008028FA02F8B8F1D9
:102A4000000F7FF489AEBDE8F88700000000111088
:102A50000010024000080140000C0140001001403D
:102A600000140140080001400004014001480068D2
:102A7000704700007002002003480068034909788D
:102A80000844014908607047700200207802002065
:102A900010B50848006840F010000649086003209F
:102AA00000F0D8F80F2000F007F800F055F80020EB
:102AB00010BD000000200240F0B587B0044600269B
:102AC0000027002500BF1F48806940F400601D49B1
:102AD00088610846806900F40060009000BF00BF74
:102AE00001A902A800F090F900F0B6F906461648D0
:102AF000B6FBF0F0471E15481549086040F2E73173
:102B00001348C1604760002101618160816100F06C
:102B100031FC054695B90E4800F060FC05466DB9DC
:102B2000192000F049F8102C07D200222146192064
:102B300000F052F80748046000E00125284607B07D
:102B4000F0BD00000010024040420F00002C014088
:102B50007C0E00207402002008B500BF1448806974
:102B600040F00100124988610846806900F00100C8
:102B7000009000BF00BF00BF0846C06940F0805011
:102B8000C8610846C06900F08050009000BF00BFD7
:102B900000220F21901E00F01FF800BF0549486871
:102BA00020F0E06040F00070486000BF08BD000009
:102BB000001002400000014001460846002809DBE1
:102BC00000F01F0301229A4043099B0003F1E02318
:102BD000C3F8002100BF70472DE9F05F80460D4625
:102BE0001646002701F078FE074639462A46334646
:102BF00001F00700C0F1070ABAF1040F02D94FF043
:102C0000040A01E0C0F1070AD14600F1040ABAF152
:102C1000070F02D24FF0000A01E0A0F1030AD446E8
:102C20004FF0010A0AFA09FAAAF1010A0AEA020AAD
:102C30000AFA0CFA4FF0010B0BFA0CFBABF1010B8B
:102C40000BEA030B4AEA0B042146404601F04CFE16
:102C5000BDE8F09F00BF00F00702064B19684FF671
:102C6000FF031940044B0B4343EA0221014B196057
:102C700000BF70470CED00E00000FA0570B5044697
:102C80000D460CB9012070BD5A48006800F00700DD
:102C9000A8420ED25748006820F007002843554943
:102CA00008600846006800F00700A84201D0012033
:102CB000E9E7207800F0020002281DD1207800F01A
:102CC0000400042805D14C48406840F4E0604A49BB
:102CD0004860207800F00800082805D14648406880
:102CE00040F46050444948604348406820F0F00098
:102CF000A168084340494860207800F0010078B39B
:102D00006068012806D13C48006800F4003090B9A2
:102D10000120B8E76068022806D13748006800F053
:102D2000007040B90120AEE73348006800F00200AF
:102D300008B90120A7E73048406820F00300616827
:102D400008432D494860FFF791FE064609E0FFF76A
:102D50008DFE801B41F28831884202D9032092E720
:102D600007E02548406800F00C006168B0EB810F77
:102D7000EDD12048006800F00700A8420ED91D4898
:102D8000006820F0070028431A49086008460068D8
:102D900000F00700A84201D0012074E7207800F07D
:102DA0000400042807D11448406820F4E060E1687A
:102DB000084311494860207800F00800082808D12D
:102DC0000D48406820F46050216940EAC1000A497A
:102DD000486000F051F808494968C1F30311074AF7
:102DE000515CC8400649086006480068FFF764FE69
:102DF000002048E700200240001002407C720008DA
:102E00007C020020740200200F2202600D4A5268EA
:102E100002F0030242600B4A526802F0F002826044
:102E2000084A526802F4E062C260064A526802F43C
:102E30006052D2080261044A126802F007020A6076
:102E40007047000000100240002002400148006866
:102E5000704700007C02002000B5FFF7F7FF04492F
:102E60004968C1F3C221034A515CC84000BD00005B
:102E7000001002408C720008F0B585B00FF26C0CA7
:102E80009CE8E01001A8A0E8E0101CA52D680095C2
:102E900000210022002300240020194D696801F060
:102EA0000C05F5B1042D02D0082D19D101E015480B
:102EB00019E001ADC1F38346AC5D01F4803555B135
:102EC0000F4D6D68C5F340451DF805200D4D654358
:102ED000B5FBF2F302E00C4D04FB05F3184602E0EB
:102EE00000BF084800BF00BF05B0F0BD02030405E5
:102EF000060708090A0B0C0D0E0F10100102000046
:102F00000010024000127A0000093D00F8B50446A6
:102F10000CB90120F8BD207800F00100002878D01D
:102F2000F848406800F00C0004280CD0F5484068D0
:102F300000F00C00082811D1F248406800F48030FD
:102F4000B0F5803F0AD1EF48006800F40030002857
:102F50005FD0606800285CD10120DBE700BF6068BB
:102F6000B0F5803F06D1E748006840F48030E5497D
:102F7000086028E0606858B9E248006820F48030B2
:102F8000E04908600846006820F4802008601AE0E4
:102F90006068B0F5A02F0BD1DA48006840F48020BB
:102FA000D84908600846006840F4803008600AE0AC
:102FB000D448006820F48030D24908600846006890
:102FC00020F48020086000BF606888B1FFF74EFDE4
:102FD000054606E0FFF74AFD401B642801D903209F
:102FE00098E7C848006800F400300028F2D010E0EC
:102FF000FFF73CFD054606E0FFF738FD401B64285F
:1030000001D9032086E7BF48006800F4003000289B
:10301000F2D1207800F00200022857D1B948406868
:1030200000F00C0050B1B748406800F00C000828D0
:1030300018D1B448406800F4803098B9B1480068AD
:1030400000F0020020B12069012801D0012061E7D1
:10305000AC48006820F0F800616940EAC100A94965
:10306000086033E02069E8B10120A7490860FFF754
:10307000FDFC054606E0FFF7F9FC401B022801D9DC
:10308000032047E79F48006800F002000028F2D0C4
:103090009C48006820F0F800616940EAC100994945
:1030A000086013E0002098490860FFF7DFFC054640
:1030B00006E0FFF7DBFC401B022801D9032029E7CB
:1030C0009048006800F002000028F2D1207800F05B
:1030D000080008282DD1A069B8B101208B490860EB
:1030E000FFF7C4FC054606E0FFF7C0FC401B0228C2
:1030F00001D903200EE78348406A00F0020000284F
:10310000F2D0012001F00EF913E000207F490860A1
:10311000FFF7ACFC054606E0FFF7A8FC401B0228C1
:1031200001D90320F6E67748406A00F00200002843
:10313000F2D1207800F00400042873D100277148F0
:10314000C06900F0805070B900BF6E48C06940F09F
:1031500080506C49C8610846C06900F080500090FA
:1031600000BF00BF01276A48006800F48070B0B952
:103170006748006840F4807065490860FFF776FC96
:10318000054606E0FFF772FC401B642801D90320C6
:10319000C0E65F48006800F480700028F2D000BFED
:1031A000E068012806D15748006A40F001005549FF
:1031B000086227E0E06858B95248006A20F0010030
:1031C000504908620846006A20F00400086219E0CD
:1031D000E06805280BD14B48006A40F004004949DB
:1031E00008620846006A40F0010008620AE04548AB
:1031F000006A20F00100434908620846006A20F096
:103200000400086200BFE068A0B1FFF72FFC05468C
:1032100009E0FFF72BFC401B41F28831884202D9BC
:10322000032077E622E03748006A00F00200002819
:10323000EFD012E0FFF71AFC054608E0FFF716FC96
:10324000401B41F28831884201D9032062E62D48B3
:10325000006A00F002000028F0D1012F05D12948B2
:10326000C06920F080502749C86100BFE069C8B339
:103270002448406800F00C00082860D0E06902286B
:1032800048D1002020490866FFF7F0FB054606E01C
:10329000FFF7ECFB401B022801D903203AE619484E
:1032A000006800F000700028F2D1206AB0F5803F7D
:1032B00007D11448406820F40030A1680843114940
:1032C0004860D4E9080108430E49496821F47411A3
:1032D00008430C49486001200B490866FFF7C6FB0C
:1032E000054607E03DE0FFF7C1FB401B022801D97E
:1032F00003200FE60348006800F000700028F2D0B9
:103300002FE00000001002400000424280044242D0
:1033100000700040002014490866FFF7A7FB05462F
:1033200006E0FFF7A3FB401B022801D90320F1E5CB
:103330000E48006800F000700028F2D111E0E0694A
:10334000012800D1E6E50948466806F48031206A84
:10335000814204D106F47011606A814201D00120DB
:10336000D8E50020D6E500000000424200100240EF
:103370007047704710B504460CB9012010BD94F891
:103380003D0028B9002084F83C00204600F025F8D4
:10339000022084F83D00211D206801F0A3F90120DE
:1033A00084F8460000BF84F83E0001213F2001550B
:1033B000402001554120015500BF00BF012084F885
:1033C000420043200155442001554520015500BFCE
:1033D000012084F83D000020D0E77047014691F8B5
:1033E0003D00012801D001207047022081F83D00F6
:1033F0000868C06840F001000B68D860124B08688C
:1034000098420BD00868B0F1804F07D00F4B086886
:10341000984203D00E4B086898420CD10868806827
:1034200000F00702062A0CD00868006840F001008E
:103430000B68186005E00868006840F001000B6840
:1034400018600020D0E70000002C0140000400407C
:1034500000080040704710B5044620680069C0F3BA
:103460004000D8B12068C068C0F34000B0B16FF030
:10347000020021680861012020772068806900F03F
:10348000030018B12046FFF7E5FF05E0204600F0F5
:10349000ADF8204600F0ABF80020207720680069E6
:1034A000C0F38000D8B12068C068C0F38000B0B11C
:1034B0006FF004002168086102202077206880698D
:1034C00000F4407018B12046FFF7C4FF05E0204625
:1034D00000F08CF8204600F08AF800202077206861
:1034E0000069C0F3C000D8B12068C068C0F3C00054
:1034F000B0B16FF0080021680861042020772068CF
:10350000C06900F0030018B12046FFF7A3FF05E0F3
:10351000204600F06BF8204600F069F80020207784
:1035200020680069C0F30010D8B12068C068C0F3FB
:103530000010B0B16FF010002168086108202077FA
:103540002068C06900F4407018B12046FFF782FF80
:1035500005E0204600F04AF8204600F048F8002038
:1035600020772068006900F0010058B12068C06829
:1035700000F0010030B16FF00100216808612046C1
:1035800000F036F820680069C0F3C01058B1206818
:10359000C068C0F3C01030B16FF0800021680861CE
:1035A0002046FFF7E5FE20680069C0F3801058B19F
:1035B0002068C068C0F3801030B16FF0400021680F
:1035C0000861204600F020F820680069C0F3401030
:1035D00058B12068C068C0F3401030B16FF02000CF
:1035E000216808612046FFF7C4FE10BD7047704790
:1035F00010B5044603492068884201D1FFF73CFA20
:1036000010BD0000002C0140704700BFFEE7000025
:1036100008B5054989690143034A916111468969E1
:103620000140009100BF08BD0010024008B50549E7
:1036300089690143034A91611146896901400091FA
:1036400000BF08BD001002402DE9F04102460B46C4
:103650001868C0F30F2595FAA5F0B0FA80F480E061
:103660000120A040284000287AD0082C04D240F243
:10367000011000FA04F106E0A4F108004FF0011671
:10368000864046F08061586808280ED11869D668CF
:1036900026EA11260F0A97FAA7F7B7FA87F700FA72
:1036A00007F73E43D66000BF00BF586802EB1166C3
:1036B00091FAA1FCBCFA8CFC4FEA8C084FF00F0C7D
:1036C0000CFA08FC376827EA0C0791FAA1FCBCFA4F
:1036D0008CFC4FEA8C0C00FA0CFC47EA0C073760B4
:1036E00000BF5868012802D05868092838D1986866
:1036F00002EB116691FAA1FCBCFA8CFC4FEA8C0833
:103700004FF0030C0CFA08FC376827EA0C0791FA13
:10371000A1FCBCFA8CFC4FEA8C0C00FA0CFC47EACA
:103720000C07376000BFD86802EB116691FAA1FC64
:10373000BCFA8CFC4FEA8C084FF0040C0CFA08FC25
:10374000376827EA0C0791FAA1FCBCFA8CFC4FEA17
:103750008C0C00FA0CFC47EA0C07376000BF00BF76
:10376000641C25FA04F000287FF47AAFBDE8F081EC
:10377000C1F30F220261704710B5044600F01AFE33
:103780002060206800F0E2FD6060606800F0EEFDFF
:10379000A060606800F0FCFDE06010BD016921F4EC
:1037A00090410161416921F02A0141617047C1687E
:1037B00041F40051C16070472DE9FF4104460D46B8
:1037C00001270026204600F041F8002833D1E9689F
:1037D0006868084329690843E16841F20C62914333
:1037E0000843E060A868216921F440510143216148
:1037F00000BF6869616921F440710143616100BFE4
:103800006846FFF7B9FF0E48844201D1039E08E0E5
:103810000C48844201D1029E03E00B48844200D14F
:10382000029E46B1286830B10027314620462A68FA
:1038300000F011F800BF384604B0BDE8F081000088
:103840000038014000440040004800400146C8687C
:10385000C0F34030704770B501EBC10303EB0113B7
:103860009400B3FBF4F301EBC10404EB01149500E5
:10387000B4FBF5F46425B4FBF5F404EBC40505EBE7
:103880000414A3EB8403322404EB03136424B3FB7A
:10389000F4F303F0F00301EBC10404EB0114950011
:1038A000B4FBF5F46425B4FBF5F403EB041401EB6D
:1038B000C10303EB01139500B3FBF5F301EBC10565
:1038C00005EB01159600B5FBF6F56426B5FBF6F59C
:1038D00005EBC50606EB0515A3EB8503322505EBC5
:1038E00003136425B3FBF5F303F00F0323449BB2EA
:1038F000836070BD02490348C0F812107047000091
:10390000D14400080000002010B502460B460024F8
:10391000002104E032F81100204484B2491C99428D
:10392000F8D3604280B210BD10B50446208A20F062
:103930000100401C2082208A20F004002082208A7E
:1039400020F0800080302082208A20F00200208237
:10395000208A20F078002082207C00F500702082F0
:1039600000216182A06920F0FF01491CA161A069CA
:10397000C0F3150101F18071A161E06920F0FF0140
:10398000491CE161E069C0F3150101F18071E16159
:10399000606A20F00401091D6162606A20F008017C
:1039A00008316162606A20F040016162606A20F063
:1039B00080016162606A20F4807101F5807161624A
:1039C000606A20F4007101F500716162606A20F4A0
:1039D000806101F580616162606A20F4006161626A
:1039E000606A20F4805101F580516162606A20F4C0
:1039F000005101F500516162606A20F4803101F5E7
:103A000080316162606A20F400316162606A20F492
:103A1000802101F580216162606A20F400216162E9
:103A2000606A20F480116162606A20F400116162B2
:103A3000606A20F0807101F180716162606A20F03B
:103A4000007101F100716162606A20F0806101F132
:103A500080616162606A20F0006101F10061616271
:103A6000A06A20F00101491CA162A06A20F00201B5
:103A7000A162A06A20F00401A162A06A20F00801FE
:103A8000A162A06A20F4807101F58071A162A06A30
:103A900020F40071A162A06A20F48061A162A06A92
:103AA00020F40061A1620E2240F6BE31204600F0F3
:103AB00001F810BD70B504460E46154648F2FF10D9
:103AC00020806680A5800020E08004212046FFF74A
:103AD0001BFF2081294604F11000FFF715FF04F1B8
:103AE000100121F815000A21204600F01FF8681C7B
:103AF0004FF6FF7202EA400104F1100000F016F8E0
:103B000070BD10B50446002020616061208A20F05D
:103B1000FF000C302082207C00F58070208204227F
:103B200040F6BE312046FFF7C5FF10BD10B5034675
:103B30000C46002204E0985C00F006F8501CC2B26B
:103B4000A242F8DB10BD000000BF0549096801F082
:103B500040010029F9D00249091D086070470000A2
:103B60000038014000B58BB03C483D490860122048
:103B700048604FF040413A4881600021C1604FF4F5
:103B8000402101614FF48011416100210176012142
:103B9000417681760021C176017701214177FEF7D8
:103BA000BBFB08B1FDF78FFF002006902D48407B3E
:103BB00040F40070400101902A48407B40F40070BE
:103BC000400102902748407B40F400704001039080
:103BD0002448407B40F40070400104900020059090
:103BE00001200790002008900120099001A91C489D
:103BF000FEF7EEF808B1FDF766FF012006901948C0
:103C0000407B40F02000400101901648407B40F08E
:103C10002000400102901348407B40F0200040010A
:103C200003901048407B40F02000400104900120A8
:103C30000590099001A90A48FEF7CAF808B1FDF7F6
:103C400042FF0748FEF74BFD48F612410448FDF7D6
:103C5000FFFF0020044908700BB000BD0064004065
:103C6000F80B002000000020EC0B002000B59BB0FA
:103C7000244903C9CDE919010022012119A801F045
:103C800043F8214908601F49083103C9CDE91701EC
:103C90000022114617A801F037F81C49086019499D
:103CA000103103C9CDE915010022114615A801F014
:103CB0002BF8174908601C22124918310EA8FCF78E
:103CC000C6FC00210EA800F0EFFF124908601C227C
:103CD0000C49343107A8FCF7BAFC002107A800F012
:103CE000E3FF0D4908601C22064950316846FCF785
:103CF000AEFC0021684600F0D7FF084908601BB001
:103D000000BD0000107200083802002040020020B0
:103D10003C0200204C020020440200204802002007
:103D200000B585B014216846FCF7E5FC1020FFF7CC
:103D30006FFC2020FFF76CFC0420FFF769FC0820D3
:103D4000FFF766FC0948C0F30F21094A516100BF23
:103D5000009001200190022002900020039069460B
:103D60001046FFF771FC05B000BD000020002004E4
:103D7000001001402DE9F0418CB01C2105A8FCF792
:103D8000BAFC14216846FCF7B6FC4FF48040FFF7FC
:103D90004DFC0820FFF74AFC44F240000090092047
:103DA0000190032002900020039069464B48FFF7E2
:103DB0004BFC48F28000009004200190694647487F
:103DC000FFF742FC00BF4648406846490843444963
:103DD000486000BF2521444B1B68C3F30220052423
:103DE00000250346C3F1070CBCF1040F02D94FF0C4
:103DF000040C01E0C3F1070C674603F1040CBCF1AD
:103E0000070F02D24FF0000C01E0A3F1030C66464D
:103E10004FF0010C0CFA07FCACF1010C0CEA040C9D
:103E20000CFA06FC4FF0010808FA06F8A8F10108A0
:103E300008EA05084CEA080200BF002904DB100765
:103E4000030E2A48435407E01007040E26480C309E
:103E500001F00F031B1FC45400BF2520002809DBFD
:103E600000F01F02012191404209920002F1E0227C
:103E7000C2F8001100BF00BF6FF020001C490860AD
:103E800000BF00BF0846C06840F02000C86000BF07
:103E900000BF0846406940F00100486100BF4FF490
:103EA000E130059000200690079008900C200990C2
:103EB00000200A900B9005A90D48FFF77DFC0C48E7
:103EC000FFF76CFC0A48FFF772FC4FF400720949D7
:103ED000094800F0D5FA0CB0BDE8F081000C0140B3
:103EE00000000140040000070CED00E000E400E0E9
:103EF000003801407C0C0020700C002000B58DB013
:103F00001C2106A8FCF7F7FB142101A8FCF7F3FB22
:103F10004FF400301D49C96901431C4AD161114663
:103F2000C9690140009100BF00BF0420FFF77EFB7C
:103F300040F20440019009200290032003900020E9
:103F4000049001A91248FFF77FFB40F6080001909A
:103F50000420029001A90E48FFF776FB4FF4E130F0
:103F6000069000200790089009900C200A900020ED
:103F70000B900C9006A90748FFF71EFC0548FFF7B9
:103F80000DFC0448FFF713FC0DB000BD001002400B
:103F9000000801400044004000BFFEE700BFFEE70C
:103FA00008B500BF00F01FFE009041F288311148B3
:103FB000006800F0CFFE00BF0F48FDF721FE00288B
:103FC00011DD41F288310B48006800F0C3FE0B4858
:103FD000407A40B94FF47A70094988803221094803
:103FE000006800F0B7FE06488188684600F0E8FDEA
:103FF000E2E7000038020020180000200000002046
:104000003002002040020020F8B504464FF0FF3691
:1040100048F2FF10208012E18D4800F040FA05467A
:1040200094F810020D287DD2DFE800F07C070E190D
:104030001E232830353A3F4463002078A84202D13D
:10404000022084F81002F9E06078A84203D103202E
:1040500084F8100202E0012084F81002EEE004204F
:1040600084F81002A570E9E0052084F81002E570DC
:10407000E4E0062084F810022571DFE0072084F8D0
:1040800010026571002073490880D7E0A5710820EF
:1040900084F81002D2E0E571092084F81002CDE026
:1040A00025720A2084F81002C8E065720B2084F89B
:1040B0001002C3E0A088400066490988884211DDEB
:1040C00004F1100063490988455462480088401C87
:1040D0006049088008460088B0F5007F08DB0020B2
:1040E000088005E000205B4908800C2084F810025D
:1040F000A4E0012084F8100204212046FFF704FC0C
:104100002189884272D1608840F6BA32811A904281
:1041100038D00DDCA0F69800002862D0B0F5487FBA
:104120000DD000E089E0A0F22130002868D113E032
:10413000012932D004293BD0092961D117E0E06D73
:10414000009045A14A48D4E91523FCF7E3F8484814
:1041500000F010FB01265DE0A388628845A1444879
:10416000FCF7D8F8424800F005FB022652E0A3888D
:10417000628840A13E48FCF7CDF83D4800F0FAFACD
:10418000032647E0A38862883AA13948FCF7C2F8C1
:10419000374800F0EFFA04263CE0A388628835A196
:1041A0003348FCF7B7F8324800F0E4FA052631E06E
:1041B000208A030AA28835A12D48FCF7ABF82C48C9
:1041C00000F0D8FA208A0721B1EB102F07D139A1CE
:1041D00027486269FCF79EF8254800F0CBFA0626CE
:1041E00018E0E0880090A388628800E013E035A121
:1041F0001F48FCF78FF81E4800F0BCFA072609E0BC
:10420000A388628837A11A48FCF784F8184800F0A0
:10421000B1FA00BF0DE004212046FFF775FB074609
:1042200023893A4638A11248FCF774F8104800F088
:10423000A1FA074800F008F900E000BF00BF0448F9
:1042400000F00CF900283FF7E7AE3046F8BD00005B
:10425000700C002016000020686F75723D25642CDC
:104260006D696E3D25642C7365633D25640D0A0000
:10427000200C002069643D25782C20646174615F06
:1042800073697A653D25780D0A0000006765742022
:104290006D7367333030362C20646174615F7369ED
:1042A0007A653D25782C20636F64653D25750D0A80
:1042B00000000000696E74657276616C3D25750DB5
:1042C0000A00000069643D25782C20646174615FF8
:1042D00073697A653D25782C2064756D6D793D256F
:1042E000780D0A0070617263696E675F6572726F44
:1042F000722C69643D25782C646174615F73697AFE
:10430000653D25780D0A00006865616465725F434C
:1043100052435F6572726F722C202578213D25789B
:104320000D0A000008B508490968C9084FF47A72F7
:10433000B1FBF2F14143009100BF00BF00994A1E5A
:1043400000920029F9D108BD7C020020014600BF7F
:104350000448406800F0F0000009034A125C21FAAA
:1043600002F07047001002407C720008014600BF56
:104370000548406800F4E060044A02EB102002782F
:1043800021FA02F070470000001002408C72000811
:10439000014600BF0548406800F46050044A02EB43
:1043A000D020027821FA02F070470000001002408D
:1043B0008C72000810B5002400BF0B48406800F064
:1043C0000C0020B1042804D0082808D103E0074CD1
:1043D00007E0064C05E000F00BF8044601E0034C52
:1043E00000BF00BF204610BD0010024000127A003E
:1043F0000021002200BF1148406800F480300246CE
:104400001AB1B2F5803F0CD101E00D490BE000BFBD
:104410000A484068C0F34040401C0A4BB3FBF0F12F
:1044200001E0074900BF00BF00BF0448406800F436
:104430007010022303EB9040484370470010024085
:1044400000093D0000127A0010B504460020A0804B
:10445000E08021892068FCF72CF910BD014600207E
:104460008A88CB889A4206DA0A898B881A44CB88D4
:10447000D21A90B203E08A88CB88D21A90B27047E1
:1044800070B504460D461646268125602046FFF786
:10449000DBFF206808B1012070BD0020FCE7014669
:1044A000CB885A1CCA800A68D05CCA880B899A4299
:1044B00001DB0022CA80704783885A1C8280026810
:1044C000D154828803899A4201DB0022828070479E
:1044D0001CB52248407B40F02000214908600020A4
:1044E0004860C860886008200861002008751B4883
:1044F000017B1C48007861F3C7001A490870084620
:10450000007820F00700401C087014480068C1F8CB
:104510000100124890F9080048711048807A420959
:104520000846817962F3861181710C48807A82098C
:104530000C48817962F3C7118171807920F00701FD
:10454000084881718021C171014603C9CDE900018C
:1045500069460348FDF776FA20461CBD000000209E
:10456000B80B00205C02002070B504460D46208A7E
:1045700020F00100401C2082208A20F004002082CC
:10458000208A20F0800080302082208A20F00200E3
:104590002082208A20F078002082207C00F5E060D4
:1045A0002082002161826561042240F6BE312046EE
:1045B000FFF780FA70BD00000948FDF787FA642014
:1045C00000F0F2FA4FF4FA610548FFF7CDFF6420DE
:1045D00000F0EAFA00BF41F2883000F0E5FAFAE7AD
:1045E000F802002011491248FFF7C2F800BF0F4837
:1045F0000F49C968C0F30F221140C0F30F22914246
:1046000001D1012100E0002121B908490848FFF744
:10461000AFF806E00548C0F30F21054A516100BF1D
:1046200000BF4FF47A7000F0BFFAE0E720002004EA
:104630000010014010B500BF502080F31188BFF377
:104640004F8FBFF36F8F00BF02F054FA18B14FF0D5
:1046500080500449086000BF002080F3118800BF2B
:1046600010BD000004ED00E000B58FB0282105A8C2
:10467000FCF741F814216846FCF73DF8012005904D
:1046800000040690002007900120099002200C9061
:10469000C1030D914FF4E0110E9105A8FEF736FC11
:1046A00008B1FDF710FA0F200090022001900020C1
:1046B00002904FF48060039000200490022168462D
:1046C000FEF7DCFA08B1FDF7FEF90FB000BD704748
:1046D00010B50248FEF7BFFE10BD00007C0E0020A2
:1046E0007047000010B50268184B984208D0B0F12E
:1046F000804F05D0164B984202D0164B984203D1FA
:1047000022F070024B681A43104B984208D0B0F167
:10471000804F05D00E4B984202D00E4B984203D1E9
:1047200022F44072CB681A4322F080034C6943EABA
:10473000040202608B68C3620B688362034B984279
:1047400001D10B6903630123436110BD002C0140BB
:10475000000400400008004000BF0549096801F05E
:1047600040010029F9D00249091D08607047000086
:104770000044004000B5024602E01846FFF7ECFF97
:1047800012F8013B002BF8D100BD000010B500BFAE
:1047900004484068C0B2044621460348FFF78CFE37
:1047A00010BD000000380140700C002008B500BFAB
:1047B0002D480068C0F3401040B100BF2A48C068CF
:1047C000C0F3401010B1FFF7E1FF4CE000BF2648F6
:1047D0000068C0F3C00060B100BF234800680090CB
:1047E00000BF21484068009000BF00BF1FA0FFF736
:1047F000C1FF00BF1C480068C0F3800060B100BF6B
:1048000019480068009000BF17484068009000BF3A
:1048100000BF19A0FFF7AEFF00BF13480068C0F348
:10482000400060B100BF10480068009000BF0E4813
:104830004068009000BF00BF12A0FFF79BFF00BFC1
:104840000948006800F0010068B111A0FFF792FF6D
:1048500000BF05480068009000BF03484068009012
:1048600000BF00BF00BF08BD00380140466C616753
:104870005F4F52450D0A0000466C61675F4E450D63
:104880000A000000466C61675F46450D0A000000A3
:10489000466C61675F50450D0A00000010B5024884
:1048A000FDF713FC10BD0000F80B002000BFFEE771
:1048B000490050EAC12018BF04204A0D18BF40F03B
:1048C000010040F2FF72B2EB515F08BF40F00200FE
:1048D000012808BF0520704702480068C0F3022085
:1048E000704700000CED00E010B5002804DB0A075B
:1048F000130E054A135406E00A07140E034A00F08B
:104900000F031B1FD45410BD00E400E018ED00E0BD
:1049100030380A2801D20120704700207047024633
:1049200050694B69984201DD0120704750694B691D
:10493000984202DA4FF0FF30F7E710690B699842AE
:1049400001DD0120F1E710690B69984202DA4FF0AE
:10495000FF30EAE7D068CB68984201DD0120E4E748
:10496000D068CB68984202DA4FF0FF30DDE79068FC
:104970008B68984201DD0120D7E790688B689842E8
:1049800002DA4FF0FF30D0E750684B68984201DD03
:104990000120CAE750684B68984202DA4FF0FF30B6
:1049A000C3E710680B68984201DD0120BDE710687D
:1049B0000B68984202DA4FF0FF30B6E70020B4E708
:1049C00070B504460D4624B92C212846FBF793FE0A
:1049D00004E02C2221462846FBF739FE70BD70B555
:1049E00004460D4624B92C212846FBF784FE04E03A
:1049F0002C2221462846FBF72AFE70BD2DE9F04700
:104A000004460D4600BF4FF4FA61661A65F10007CF
:104A10000020091BA84102DA761E67F10007642214
:104A2000002330463946FBF751FC804689464FF457
:104A3000C872002330463946FBF748FCB8EB000843
:104A400069EB0109102200214046A0FB020A09FB84
:104A500002A208FB0121BDE8F08770B505460E46AD
:104A6000144631462846FFF75AFF401C08B900207B
:104A700070BD21462846FFF752FF012801D10020D2
:104A8000F6E70120F4E700BFEFF3058008B101204D
:104A900070470020FCE770B504460D4664220023F1
:104AA00020462946FBF712FC00214A404B401A439E
:104AB0000DD14FF4C872002320462946FBF706FCAF
:104AC00000214A404B401A4301D0012000E0002061
:104AD0000646304670BDFDF7DBFFFFF7C5FDFFF76B
:104AE0001FF9FFF70BFAFFF745F9FFF73BF8FEF761
:104AF00001FFFFF7BBF800F071F800BFFEE70146C9
:104B00000020842901D0CA1C104470472DE9F047C9
:104B100096B08246DAF8140000F26C70C7170646A9
:104B20001F4A20495046FFF798FF88B10BA950460D
:104B3000FFF746FF0BA8FBF724FE0025044651466D
:104B40000BA8FFF74CFF2046294616B0BDE8F087BA
:104B50002C2251466846FBF77AFD3046394600F074
:104B6000D9FEA0F26C7005900BA96846FFF728FFEC
:104B70000BA8FBF706FE0025044651460BA8FFF7DD
:104B80002EFF109800F26C70C317804642463046E4
:104B9000394600F091FF04194D4120462946D4E7DB
:104BA00094720008C072000870B5044625460DB125
:104BB000294600E00121084601F0DCF9002070BD23
:104BC00070B505460C4626460EB1304600E0012081
:104BD0000146284601F0FCF9002070BD10B501F037
:104BE000AFFA002010BD10B5FFF74DFF10B101F076
:104BF00077FF10BD01F06EFFFBE7000010B5044623
:104C00000D488079012802D0022811D109E0022044
:104C100009498871084641880848006800F09AF8F8
:104C200007E00748FCF752FF64200349888000E052
:104C300000BF00BF10BD0000300200203C02002079
:104C4000F802002010B504460648FEF75AFF01207E
:104C500005498871084601880448006800F07AF820
:104C600010BD0000F8020020300200203C020020AD
:104C700010B5044606A10A48FBF74CFB0848FFF7AD
:104C800079FD32210748006800F064F810BD00008B
:104C90006770735F74696D656F75740D0A0000004D
:104CA000200C0020400200207FB504460D466069BC
:104CB00098B1A06988B1B4F90800FFF720FF064653
:104CC000D4E90510CDE9006102902B462269D4E9B0
:104CD000001001F093FE039013E0B4F90800FFF711
:104CE0000EFF064603A8CDE90060238A9AB22B4640
:104CF000D4E9001001F050FE012802D0002004B0D9
:104D000070BD0398FBE700007CB504460D461646CF
:104D1000606878B1D4E90001CDE90001012D01D12D
:104D2000012000E0002002463346012108A002F0E5
:104D3000D2F87CBD20680090012D01D1012000E057
:104D4000002002463346012101A002F0A9F8F0E755
:104D5000000000002DE9FC4106460C46002700201B
:104D60000190254605B90125FFF78DFEB0B1002061
:104D700001AB2A4609210090304602F021F90128B2
:104D800001D0FF2715E0019898B14FF080500A49F3
:104D90000860BFF34F8FBFF36F8F0AE00020034618
:104DA0002A4604210090304602F00AF9012800D07A
:104DB000FF273846BDE8FC8104ED00E02DE9F04115
:104DC00005460E461C4807681C480068001D00F098
:104DD00051FF50B91948006890F82C100120884004
:104DE00017490968814316480160681C38B936B113
:104DF00012480168091D134800F092FF1AE07C195F
:104E00000E4800684460BC4207D20C480168091D86
:104E10000D48006800F06AFF0CE008480168091DB1
:104E20000A48006800F062FF09480068844201D225
:104E300007480460BDE8F081940200208002002051
:104E400098020020E00F0020880200208402002049
:104E5000B002002010B5044600F06EFF2348006841
:104E6000401C224908602248006840B9204804607C
:104E70000846006801280DD100F016FA0AE01D4826
:104E8000006838B91A480068C06AE16A884201D8E7
:104E90001748046018480068401C1749086094F8D7
:104EA0002C100120884015490968084313490860FF
:104EB000E16A01EB8101124A02EB8100211D00F041
:104EC0002FFF00F063FF0B48006868B108480068D6
:104ED000C06AE16A884207D24FF0805009490860F1
:104EE000BFF34F8FBFF36F8F10BD00009002002003
:104EF000800200209C020020AC02002098020020CA
:104F0000040F002004ED00E008B500F015FF124882
:104F10000068E8B9114800F0D9FE114800F0D6FE4B
:104F20000E48104908600E480F49086000200F4BDA
:104F30000F4A0C2100900A2001F028FA0649086067
:104F40000846006820B10BA10348006800F0D6FFB6
:104F500000F01CFF08BD0000C4020020F40F002078
:104F600008100020BC020020C00200201C100020FD
:104F700064100020546D72510000000010B516E05E
:104F800000F0DAFE0C48C068C468201D00F072FE14
:104F90000A480068401E0949086009480068401E28
:104FA0000749086000F0F2FE204600F05EF8044871
:104FB00000680028E4D110BDCC0F00209002002032
:104FC0008C02002070B504460D46206C70B1216C37
:104FD000E0680844E0606168E068884201D32068C6
:104FE000E0602846226CE168FBF7ECFA70BD2DE921
:104FF000F04104460F4615464FF00008A66B206CA2
:1050000040B9206860BB606801F018FE804600204F
:10501000606025E07DB93946226CA068FBF7D2FAC2
:10502000216CA0680844A060D4E90110884217D31D
:105030002068A06014E03946226CE068FBF7C2FAF1
:10504000216CE068401AE0602168E068884203D281
:10505000216C6068401AE060022D01D106B1761E15
:10506000701CA0634046BDE8F08110B5044694F87A
:10507000510030B9206B00F0A7FE204600F0A4FEDE
:105080001AE094F85100012803D1204600F09CFE5C
:1050900012E094F85100022801D1012000E0002024
:1050A00050B900BF502080F31188BFF34F8FBFF37A
:1050B0006F8F00BF00BFFEE710BD00000146084A29
:1050C000126812680AB9012200E000220A600A6828
:1050D00022B9034A1268D268106800E000207047C5
:1050E000BC02002030B54FF44063174800F00704BD
:1050F0002CB1C01D20F00700134C041B1B1B0246E3
:10510000124C22600024114D6C60D018083820F039
:1051100007000F4C206000240D4D2D686C600C4D75
:105120002D682C601146441A4C60094C24680C60B0
:10513000084D4C682C60084D4C682C604FF00044C2
:10514000064D2C6030BD0000DC100020D002002095
:10515000D8020020E0020020DC020020E40200204F
:1051600000BFFFF70BFF064800680128F9D94FF090
:10517000805004490860BFF34F8FBFF36F8FF0E793
:10518000040F002004ED00E02DE9F04106460D4635
:1051900017469846069C0DB9246000E02760E66338
:1051A00025640121204601F061F9BDE8F0812DE977
:1051B000FF5F81460F469246DDE90E6B109CAAF117
:1051C0000100216B01EB800828F0070808F00700B8
:1051D00008B9012000E0002050B900BF502080F342
:1051E0001188BFF34F8FBFF36F8F00BF00BFFEE783
:1051F000002507E0795D04F134004155785D00B980
:1052000002E06D1C102DF5D300BF00214320015595
:10521000072E00D30626E66266640020A064201DE7
:1052200000F061FD04F1180000F05DFD2461C6F19D
:105230000700A06164620020E06484F850004946E1
:105240004046039A00F054FB2060BBF1000F01D0F0
:10525000CBF80040BDE8FF9F2DE9F04706460D461C
:1052600017469846DDE908940DB1012000E00020C2
:1052700050B900BF502080F31188BFF34F8FBFF3A8
:105280006F8F00BF00BFFEE75CB1FFF73DFE2660F9
:10529000A561E761C4F82080C4F82490201D00F0C7
:1052A00022FDBDE8F087000010B5002407E004EB04
:1052B00084010F4A02EB810000F008FD641C072CFA
:1052C000F5D30C4800F002FD0B4800F0FFFC0B4842
:1052D00000F0FCFC0A4800F0F9FC0A4800F0F6FC7B
:1052E00004480949086004480849086010BD0000E6
:1052F000040F0020900F0020A40F0020B80F002002
:10530000CC0F0020E00F0020840200208802002043
:1053100010B50146164800E0006803688B42FBD3D5
:105320000246436813448B4204D143684C682344CB
:10533000436001460A464B6813440468A34211D1F6
:105340000C4C03682468A34208D04B680468646866
:1053500023444B6003681B680B6005E0054B1B682A
:105360000B6001E003680B60884200D0016010BD53
:10537000D0020020D80200202DE9F04104460D465D
:1053800016461F464FF0000865602461B5420CD8F0
:10539000F01BA169884202D34FF0010811E0211DE2
:1053A0000948006800F0A2FC0BE0BE4204D2BD42F6
:1053B00002D34FF0010804E0211D0448006800F00A
:1053C00095FC4046BDE8F081C0020020BC020020F0
:1053D00070B5054600F0B0FCA86B08B9012400E0E8
:1053E000002400F0D3FC204670BD70B5054600F0E7
:1053F000A3FCA86BE96B884201D1012400E00024E2
:1054000000F0C4FC204670BDF8B505460F461648AE
:105410000068C068C468201D00F02CFCE069012809
:105420001DD1A06941192B463A462046FFF7A4FF3B
:10543000A8B1002003462A4601460090204601F00C
:10544000BFFD064656B900BF502080F31188BFF358
:105450004F8FBFF36F8F00BF00BFFEE700BF204636
:10546000616A8847F8BD0000BC02002070B586B0B4
:105470006DE0039800286ADB059C606908B901208B
:1054800000E0002010B9201D00F0F4FB02A800F09D
:10549000BFF8054603980A2857D2DFE800F009054F
:1054A0000731334F0608323400BF00BF00BF00BFD2
:1054B0000498A269811803462A462046FFF75CFF3C
:1054C000E8B12046616A8847E069012817D10020C9
:1054D00000900498A169421800231946204601F063
:1054E0006FFD064656B900BF502080F31188BFF308
:1054F0004F8FBFF36F8F00BF00BFFEE700BF25E0F7
:1055000000BF23E000BF0498A061A06908B101209A
:1055100000E0002050B900BF502080F31188BFF395
:105520004F8FBFF36F8F00BF00BFFEE7A069411927
:105530002B462A462046FFF71FFF07E094F8280075
:1055400010B9204600F040FC00E000BF00BF002280
:1055500003A90448006801F025F9002889D106B0A4
:1055600070BD0000C4020020F8B505460C4600F0EE
:1055700043FE684600F04CF80646009820BB44B94C
:10558000B54206D801F00AFC31462846FFF73CFF39
:105590001CE03CB10E480068006808B9012000E03A
:1055A00000200446A91B22460A48006800F0BCFC03
:1055B00001F0F4FB50B94FF0805007490860BFF389
:1055C0004F8FBFF36F8F01E001F0E8FBF8BD0000E3
:1055D000C0020020C402002004ED00E00A4909686E
:1055E000096809B9012100E0002121B14FF0FF3124
:1055F000064A116006E004490968C968C868034A98
:10560000416811607047000084020020B002002051
:1056100070B5044601F05EFA054607480068854209
:1056200004D200F00BF80120206001E0002020608F
:1056300001480560284670BDCC0200202DE9F843E2
:1056400032E024480068C068056822480068C068E5
:10565000C468201D00F00EFB2046616A8847E0699F
:10566000012821D1A0694619AE4207D9666024619C
:10567000211D1848006800F039FB15E000200346A2
:105680002A4601460090204601F09AFC074657B989
:1056900000BF502080F31188BFF34F8FBFF36F8F8F
:1056A00000BF00BFFEE700BF0A480068006808B9F5
:1056B000012000E000200028C3D00648D0F8008078
:1056C00005480068034908600348C0F80080BDE849
:1056D000F8830000BC020020C00200200E480068D1
:1056E000401C08B9012000E0002050B900BF502044
:1056F00080F31188BFF34F8FBFF36F8F00BF00BFE0
:10570000FEE700BF502080F31188BFF34F8FBFF337
:105710006F8F00BF00BFFEE7E802002008B500BFA2
:105720006846FFF7CBFC044620460099FFF71CFFB4
:10573000FFF79CFEF4E770B5044600F0FDFA94F91B
:10574000455010E0606A08B9012000E0002038B937
:1057500004F1240001F0D6FA18B100F0AFFC00E02B
:1057600003E0681E45B2002DECDC00BFFF2084F88A
:10577000450000F00BFB00F0DFFA94F9445010E014
:10578000206908B9012000E0002048B904F11000A8
:1057900001F0B8FA08B100F091FC681E45B200E0D3
:1057A00001E0002DECDC00BFFF2084F8440000F095
:1057B000EDFA70BD2DE9F04104464FF0000800F00D
:1057C0001BFD4648006808B9FFF78CFC4448006898
:1057D000204000286BD1D4B1083404F00700B0B1E8
:1057E00004F00700C0F10800044404F0070008B901
:1057F000012000E0002050B900BF502080F3118844
:10580000BFF34F8FBFF36F8F00BF00BFFEE7002CC9
:105810004DD034480068844249D8334E304605683C
:1058200001E02E462D686868A04202D22868002850
:10583000F7D12A480068854239D0306800F108085D
:10584000286830606868001B102819D92F1907F0E4
:10585000070008B9012000E0002050B900BF502027
:1058600080F31188BFF34F8FBFF36F8F00BF00BF6E
:10587000FEE76868001B78606C603846FFF748FDFB
:10588000184968680968081A1649086008460068D7
:1058900016490968884203D2124800681349086013
:1058A0000F4968680968084368600020286001F0B3
:1058B00075FA08F0070008B9012000E0002050B98F
:1058C00000BF502080F31188BFF34F8FBFF36F8F5D
:1058D00000BF00BFFEE74046BDE8F081D8020020CF
:1058E000E4020020DC020020D0020020E0020020C0
:1058F000001F4FF080730360001F21F0010303605D
:10590000001F034B0360143802602038704700000A
:10591000DD5600082DE9F04104460D4640F2B37112
:10592000611A75F1000008DB40F2F5710020091BD7
:10593000A84102DB2046BDE8F08120462946FFF75A
:105940005DF8061941EB050740F2B371611A75F174
:10595000000002DA083E67F1000720462946FFF7FB
:105960009AF810B10B3647F10007621E65F100018D
:105970001046FFF790F810B1113647F100071C22CE
:10598000002330463946FAF7A1FC16461F4600218F
:105990000846711A77EB000002DA1C3647F100075F
:1059A00000210846711A77EB000000DB05E040F2A9
:1059B00079121EA122A0FAF7C5FD1C21711A77F1F8
:1059C000000000DA05E04FF4BD7218A120A0FAF73C
:1059D000B9FD40F2B371611A75F1000003DA244891
:1059E00050F8268010E040F2F5710020091BA84114
:1059F00003DA204830F9168005E04FF4C0720BA19D
:105A00001DA0FAF79FFD00BF40F2F570804504DC51
:105A100040F2B370804500DB05E040F2851203A13F
:105A200016A0FAF78FFD404685E700002E2E5C5445
:105A3000696D6536345C74696D6536342E630000BB
:105A4000796561725F6379636C65203E3D2030004B
:105A5000796561725F6379636C65203C20534F4CBC
:105A600041525F4359434C455F4C454E47544800B3
:105A700070730008387300083000000073616665B9
:105A80005F79656172203C3D204D41585F5341462E
:105A9000455F5945415220262620736166655F792E
:105AA000656172203E3D204D494E5F534146455F42
:105AB00059454152000000002DE9FC5F04460D46A7
:105AC00016461F46301B77EB050001DA012001E086
:105AD0004FF0FF3083464FF00008C1464FF4166187
