:020000040800F2
:10000000582500208D02000851350008AF2C00084B
:100010004D35000829160008593E00080000000070
:10002000000000000000000000000000F5010008D2
:100030004D1600080000000039020008E13B0008EE
:10004000A7020008A7020008A7020008A7020008EC
:10005000A7020008A7020008A7020008A7020008DC
:10006000A7020008A7020008A7020008A7020008CC
:10007000A7020008A7020008A7020008A7020008BC
:10008000A7020008A7020008A7020008A7020008AC
:10009000493E00082D1600083D160008A70200087A
:1000A000A70200087D3C0008A7020008A70200087C
:1000B000A70200088D3C0008A7020008A70200085C
:1000C000A7020008A7020008A7020008A70200086C
:1000D000A7020008593D0008A7020008A70200086F
:1000E000A7020008A7020008A702000800F002F813
:1000F00000F070F80AA090E8000C82448344AAF152
:100100000107DA4501D100F065F8AFF2090EBAE84F
:100110000F0013F0010F18BFFB1A43F0010318473B
:1001200034790000547900000A444FF0000C10F8B4
:10013000013B13F0070408BF10F8014B1D1108BF65
:1001400010F8015B641E05D010F8016B641E01F805
:10015000016BF9D113F0080F1EBF10F8014BAD1C55
:100160000C1B09D16D1E58BF01F801CBFAD505E073
:1001700014F8016B01F8016B6D1EF9D59142D6D3CD
:10018000704700000023002400250026103A28BFF5
:1001900078C1FBD8520728BF30C148BF0B607047F9
:1001A000662907F0C182642900F0A480752900F057
:1001B000A180782900F0DA80002070471FB500F098
:1001C000F7FC04000020002106F078FCE0601FBD71
:1001D00010B510BD00F0F1FD1146FFF7EFFF03F081
:1001E000F2FE00F00FFE03B4FFF7F2FF03BC00F0D5
:1001F000D9FC0000224B19680868B0E8F00F80F3C2
:100200000988BFF36F8F4FF0000080F311884EF024
:100210000D0E70470000000006480068006880F37B
:10022000088862B661B6BFF34F8FBFF36F8F00DFF0
:1002300000BF00BF08ED00E0EFF30980BFF36F8F50
:100240000F4B1A6820E9F00F106008B54FF050000E
:1002500080F31188BFF34F8FBFF36F8F05F010FD50
:100260004FF0000080F31188BDE808401968086865
:10027000B0E8F00F80F30988BFF36F8F704700BFBD
:1002800098020020EFF3058070470000094880477E
:1002900009480047FEE7FEE7FEE7FEE7FEE7FEE768
:1002A000FEE7FEE7FEE7FEE704480549054A064B80
:1002B000704700007B3C0008ED000008581D00203E
:1002C0005825002058200020582000200FB41CB5CD
:1002D000074B06AA7B4469460090059800F049FC4C
:1002E0000020694600F058FC1CBC5DF814FB0000BF
:1002F000C10800002DE9F041064600241068752968
:10030000314616A510D0AFF30080002802DA404233
:1003100013A507E031688A0701D512A502E0490755
:1003200004D511A5012401E0AFF3008000210A22C9
:1003300006F1240709E0B0FBF2FCB0FBF2F302FB8C
:100340001C00303078541846491C0028F3D123464D
:100350002A463046BDE8F04100F09EB9000000009A
:100360002D0000002B0000002000000070B50446A6
:100370000D4621461068AFF300802188090502D59B
:100380000F4A7A4402E00E4A7A440E32002104F108
:10039000240305E000F00F060009965D5E54491C39
:1003A0000028F7D120780023000704D5702D02D053
:1003B00009B1022311322046BDE8704000F06CB94B
:1003C0003E7500002DE9F05F894604464FF0000AB3
:1003D000DFF824B1FB44C0F820A02046E16888473C
:1003E00000287DD0252806D0D4E901219047206A35
:1003F000401C2062F1E700255F462046E1688847FF
:100400002028064607DB312E05D2B81910F8200C3B
:1004100008B10543F1E7A80701D525F00405C4F8A4
:100420001CA00027C4F818A02A2E09D0304603F0DB
:10043000BBFD38B304EB8708303EC8F8186019E0FC
:1004400059F8041B204604EB87029161E168884754
:10045000012F064618D1E069002820DA25F0200592
:100460001DE0D8F8180000EB800006EB40003038A3
:10047000C8F818002046E1688847064603F094FD56
:100480000028EED1012F0AD02E2E08D12046E16897
:1004900088477F1C0646022F45F02005C4DBA06973
:1004A000002803DA404245F00105A061E80701D0C9
:1004B00025F01005A6B1A6F14100192802D8203672
:1004C00045F400654A463146204625604D46FFF713
:1004D00067FE60B1012807D0ED1D25F0070000E0A0
:1004E00007E000F1080978E705F1040975E73046EF
:1004F0007AE7206ABDE8F09F14750000032A40F2F5
:10050000308010F0030C00F0158011F8013BBCF1B5
:10051000020F624498BF11F801CB00F8013B38BFCD
:1005200011F8013BA2F1040298BF00F801CB38BFDB
:1005300000F8013B11F0030300F02580083AC0F0F9
:10054000088051F8043B083A51F804CBA0E80810A1
:10055000F5E7121D5CBF51F8043B40F8043BAFF3D4
:100560000080D20724BF11F8013B11F801CB48BF2E
:1005700011F8012B24BF00F8013B00F801CB48BF64
:1005800000F8012B704710B5203AC0F00B80B1E89D
:100590001850203AA0E81850B1E81850A0E81850B8
:1005A000BFF4F5AF5FEA027C24BFB1E81850A0E8C1
:1005B000185044BF18C918C0BDE810405FEA827CDB
:1005C00024BF51F8043B40F8043B08BF7047D207F2
:1005D00028BF31F8023B48BF11F8012B28BF20F893
:1005E000023B48BF00F8012B70474FF0000204297E
:1005F000C0F0128010F0030C00F01B80CCF1040C52
:10060000BCF1020F18BF00F8012BA8BF20F8022B85
:10061000A1EB0C0100F00DB85FEAC17C24BF00F82B
:10062000012B00F8012B48BF00F8012B70474FF059
:10063000000200B5134694469646203922BFA0E832
:100640000C50A0E80C50B1F12001BFF4F7AF09073E
:1006500028BFA0E80C5048BF0CC05DF804EB89002F
:1006600028BF40F8042B08BF704748BF20F8022B72
:1006700011F0804F18BF00F8012B7047704770478A
:10068000704710B500F098FA006810BD10B5044628
:1006900000F092FA046010BD2DE9F0470D4699462E
:1006A0009246044600F124080168880604D5E069F2
:1006B00021F01001216000E00120A84201DD471B6C
:1006C00000E00027A1697A1902EB0900081AA0616D
:1006D0002078C00602D42046AFF30080002608E050
:1006E000D4E901211AF806009047206A401C761CC4
:1006F00020624E45F4DB2078C0060AD52046AFF3D1
:10070000008006E0D4E9012130209047206A401C97
:100710002062381EA7F10107F4DC07E0D4E90121CB
:1007200018F805009047206A401C2062281EA5F199
:100730000105F3DC2046AFF300802078000602D5E7
:100740000220BDE8F0870120FBE770472DE9FF4F4D
:100750000C461E464FF0FF378BB0D2E90001DDF8A2
:1007600060800A908A46C1F30A5505B93D460021CA
:1007700008464FF00000BAF1000F00F4400005DA1F
:1007800000EB80004FF4400101EA50004FEA90591D
:10079000B9F1010F00DDB9460A9850EA4A000ED0BF
:1007A00044F61050A5F2FF3545432F14B8F1000F61
:1007B0001ED07542291E1EDDC9F100021CE0B8F1F1
:1007C000010F4FF0000001D0302103E0F24305E0BB
:1007D0002154401CB042FBDB304600220021215452
:1007E0000B99C1F80880C1E900200FB0BDE8F08F77
:1007F000BD1B6D1CDEE74A4600DA694206A800F020
:1008000065FA06AB93E8070003AB83E807005046A0
:100810000A9900F041FB8DE80700A0F500501F3851
:1008200000900398002D0ADD42F21F014A46084459
:10083000002303A90390684600F0AAFD09E0A0F593
:1008400000504A461F38002303A90390684600F071
:10085000B4FD8DE807000004000C03D04FF0FF301A
:10086000410800E01046B8F1000F03D000220092CA
:1008700015461EE0751E05D400F0A2F9303262550F
:100880006D1EF9D5B3460122084302D000227F1C19
:1008900004E02078302801D100227F1E002A099729
:1008A00084D01DE0112D07DA00F08AF9303262554C
:1008B0006D1C50EA0102F5D1084302D00098C8B17E
:1008C0000EE00021681E05E0235C625C6354225444
:1008D000401E491C8142F7DBAB46A81B401E099015
:1008E000002004F80B000B98099AC0F80880C0E9B2
:1008F000002B7AE711264FF0000857E72DE9F04F5B
:1009000088460446D21D22F0070191B0D1E90001CA
:10091000CDE90A0103F0A2FA02460B98C00F01D0FC
:100920002D2007E02068810701D52B2002E020213F
:1009300001EAC000032A099001D0072A05DB03461B
:100940004146204600F082F90BE12078800601D56F
:10095000E06900E00620B8F1650F814606D0B8F1E5
:10096000660F18D0B8F1670F70D131E00020B9F1EF
:10097000110F009001DB112301E009F101030AAA24
:1009800001A90CA8FFF7E2FEDDE90C70002609F1D1
:100990000105834647E001204B4600904FF0004799
:1009A0000AAA01A90CA8FFF7D1FEDDE90DB00C9948
:1009B0005D46002610B909F101000D18B9EB0500DC
:1009C00003D4C0F1FF3609F10105A5EB09002BE0C6
:1009D000B9F1010F01DA4FF001090020B9F1110F4F
:1009E0000090484601DD112300E003460AAA01A950
:1009F0000CA8FFF7ABFEDDE90C704D4600268346E0
:100A0000207800070AD4AB4500DA5D4601A8012D25
:100A100004DD411911F8011C302907D04F4502DAD5
:100A200017F1040F04DA012082460FE06D1EEEE795
:100A3000002F02DCED1B3E4403E0781CA84200DDE1
:100A40007D1CB81B00F1010A4FF000472078000719
:100A500003D4AA4501DB4FF0FF3A0021B7F1004F64
:100A60000DF143088DF8431024D002202B23002FD2
:100A700001DA7F422D230A21021EA0F1010000DCD1
:100A80005FB197FBF1FC97FBF1F201FB1C7C174671
:100A90000CF1300C08F801CDEEE7A8F1010003706D
:100AA0002188090501D5452100E06521A0F1010853
:100AB00000F8011C09980FA9A1EB0807FF1D00B160
:100AC0000120411901EBEA70A1693844081A401E5F
:100AD000A0612078C00602D42046AFF300800998B8
:100AE00028B1D4E901219047206A401C2062207877
:100AF000C00622D52046AFF300801EE0002E04DBA6
:100B0000B34502DD01A8805D00E03020D4E9012179
:100B10009047206A401C2062761CAAF101005FEA1F
:100B2000000A0AD100F044F8C0680168405CD4E9CA
:100B300001219047206A401C2062281EA5F1010572
:100B4000DCDC07E0D4E9012118F8010B9047206AAA
:100B5000401C2062381EA7F10107F3DC2046AFF3EA
:100B60000080032011B041E601694A1C0261087847
:100B7000704700B58FB0CDE90131002105910549DD
:100B80007944CDE9031011466846FFF71BFC0FB00E
:100B900000BD0000E5FFFFFF0A6802F8010B0A60D4
:100BA0007047000001491820ABBEFEE72600020096
:100BB00000487047141D002000487047F41C0020B6
:100BC00030B5B0F10A024FEA900E71F100034EEA1F
:100BD000817EB0EB0E0061EB91014FEA101E4EEAF0
:100BE000017E10EB0E0041EB11114FEA102E4EEA80
:100BF000016E10EB0E0041EB11214FEA104E4EEA50
:100C0000014E10EB0E0041EB1141401841F1000183
:100C10004FEAD00040EA41704FEAD10110EB800565
:100C20004FEA810444EA907444EB01046D1944EBEB
:100C30000404521BA3414FF0000348BF0A3200D501
:100C400030BD401C41F1000130BD00002DE9F041F4
:100C50001F46044603260168072A01F4006004DBEE
:100C600008B116A505E016A503E008B115A500E03A
:100C700015A521F010002060A069C01EA0610FB171
:100C8000401EA0612046AFF300804FB1D4E901219E
:100C900038469047206A401C2062C01C206206E053
:100CA000206AFAE7D4E9012115F8010B9047761E76
:100CB000F8D22046AFF30080BDE8F0814E414E00EF
:100CC0006E616E00494E4600696E66002DE9F04780
:100CD000814616468AB0354878440DC88DE80D0027
:100CE00032487844801C03AC0DC884E80D0041F6FE
:100CF0009B300844372190FBF1F290FBF1F5A5F110
:100D0000800501FB12041B3C02D56442012000E077
:100D10000020DFF898A080460027FA44AAF1BE0A16
:100D20000EE0E0070AD03246684607EB4701012390
:100D30000AEB810100F041FB8DE8070064107F1C85
:100D4000002CEED1194F7F44AE3F19E0E80715D0D3
:100D500007EB04100DF1180A90E80E008AE80E0067
:100D6000C068F04201D1981908903246012306A9C3
:100D700003A800F022FB03AB83E807006D10641C9E
:100D8000002DE3D14FF0010332466946B8F1000F60
:100D900003A802D000F0FCFA01E000F00EFBC9E964
:100DA0000001C9F808200AB0BDE8F087306D0000E6
:100DB00000487047F41C002070477546FFF7F8FFA5
:100DC000AE4605006946534620F00700854618B038
:100DD00020B5FFF769FABDE820404FF000064FF05C
:100DE00000074FF000084FF0000B21F00701AC4660
:100DF000ACE8C009ACE8C009ACE8C009ACE8C0097F
:100E00008D46704710B50446AFF300802046BDE81C
:100E10001040FFF7E8B900004FF0013C50F8042BF8
:100E200051F8043B9A4221D1A2EB0C03934313EAFD
:100E3000CC1317D150F8042B51F8043B9A4215D12A
:100E4000A2EB0C03934313EACC130BD150F8042B01
:100E500051F8043B9A4209D1A2EB0C03934313EAE5
:100E6000CC13DBD04FF00000704700BFD01A01BA9E
:100E7000B1FA81F101F0180122FA01F0CB40C1F181
:100E80002001DBB2C0B2C01A2CFA01F3D11A91438F
:100E900011EAC311E6D170475FEA400C08BF91F038
:100EA000000F4FEA8C234FEAC12243EA51514FEA27
:100EB0001C5018BF00F5F0404FEA300018BF41F059
:100EC00000415FEA6C5C00F02980BCF1FF3F08BF85
:100ED00040F080407047130C06BF12044FF0100C16
:100EE0004FF0000C130E04BF12020CF1080C130F8C
:100EF00004BF12010CF1040C930F04BF92000CF11B
:100F0000020CD30F04BF52000CF1010C11464FF03C
:100F10000002A0F11F00A0EB0C00704711F0004F81
:100F200008BF704731F000413FF4D5AF0B0C06BF4E
:100F300009044FF0100C4FF0000C0B0E04BF090217
:100F40000CF1080C0B0F04BF09010CF1040C8B0F02
:100F500004BF89000CF1020CCB0F04BF49000CF157
:100F6000010CCCF12003A0EB0C0022FA03F302FAEF
:100F70000CF241EA030100F10100704720F07F4CC0
:100F800080EA030023F07F47ACEB070303F57C53B3
:100F900000F0004003F1FF032DE980494FEA154BB3
:100FA00009B44FEA144325EA0B4E24EA03480FF232
:100FB000042606EB132749083E785FEA320203FB5A
:100FC0000667C7F5000707FB06F64FEA54374FEAF6
:100FD000D64606F1020607FB066CCCF1005C4FEA30
:100FE0001C472CEA074C07FB06F40CFB06F504EB48
:100FF00015464FEA961634BF00204FF000404FEAE6
:10100000D13706FB07FC4FEA1C4C0CFB0BF7D21B3D
:1010100003FB0CF761EB07010CFB0EF7B0EB07408D
:1010200072EB17420CFB08F734BFA2EB0742B2EB9E
:10103000074261EB17414FEA0C444FEA910706FB68
:1010400007FC4FEA1C4C0CFB0BF7B0EBC74072EBF4
:10105000573203FB0CF734BFA2EBC742B2EBC742D7
:1010600061EB57310CFB0EF7B0EBC70072EB577218
:101070000CFB08F734BFA2EBC702B2EBC70261EB6F
:101080005771039F4FEA816141EA921104EBCC044E
:101090004FEAD1374FEA826206FB07FC42EA901220
:1010A0004FEA80604FEA1C4C0CFB0BF7D21B03FB92
:1010B0000CF761EB07010CFB0EF7B0EB074072EB8E
:1010C00017420CFB08F734BFA2EB0742B2EB074212
:1010D00061EB17414FEA8C554FEA910704EB9C24D2
:1010E00006FB07FC4FEA1C4C0CFB0BF7B0EBC740B0
:1010F00072EB573203FB0CF734BFA2EBC742B2EBE3
:10110000C74261EB57310CFB0EF7B0EBC70072EB37
:1011100057720CFB08F734BFA2EBC702B2EBC70251
:1011200061EB577115EB4C254FEA816141EA921151
:101130004FEA82624FEAD13742EA901206FB07FC7F
:1011400044F100044FEA80604FEA1C4C0CFB0BF7A3
:10115000D21B03FB0CF761EB07010CFB0EF7B0EBA6
:10116000074072EB17420CFB08F734BFA2EB0742B3
:10117000B2EB074261EB174115EB1C154FEA8131C9
:1011800041EA92414FEA823242EA90424FEA80308D
:101190004FEA0C7644F1000448EA03434EEA0B4858
:1011A0004FF0000EB2EB080C71EB030724BF624650
:1011B00039464EEB0E0E4FF0000B001852414941DC
:1011C0004BEB0B0BB2EB080C71EB03077BF1000B45
:1011D00024BF624639464EEB0E0E4FF0000B00184E
:1011E000524149414BEB0B0BB2EB080C71EB03077F
:1011F0007BF1000B24BF624639464EEB0E0E51EADE
:10120000020718BF46F0010616EB0E7655F10002F4
:1012100054F1000103D5BDE88901BDE80088BDE8AF
:101220008901BDE80048B619524141EB0101A3F123
:101230000103704780807F7E7D7C7B7A797877762A
:1012400076757473727171706F6E6E6D6C6C6B6AA3
:101250006A69686867666665646463636261616041
:10126000605F5F5E5E5D5D5C5C5B5B5A5A595958BE
:101270005857575656555555545453535252525128
:10128000515050504F4F4F4E4E4D4D4D4C4C4C4B7E
:101290004B4B4A4A4A4949494848484747474746C5
:1012A0004646454545444444444343434342424201
:1012B00042414141002B9C4630D477002BD01CB5D5
:1012C0004FEA370703B44FF010004FF01001BAF1A6
:1012D000000F06D0BCF1000FDCBF40F0080040F06A
:1012E00008014FF000000FBCBDE810400BF1010BEE
:1012F000BBF1010F08BF5FEA170722BF12F101021D
:1013000011F101014FF0004143F1000300F00040F2
:1013100043EA00007047F9D35708D0E746EA06468B
:1013200013F1400F4FEA16461FDD13F1200FDFBF08
:1013300016430A46002120335B42BED0C3F120078A
:1013400046EA064602FA07F74FEA164646EA070655
:10135000C3F1200722FA03F201FA07F721FA03F199
:101360004FF0000342EA0702A7E746EA020646EA10
:1013700006464FEA164646EA0106BCBF46EA06465E
:10138000360C4FF000034FF000024FF0000194E7DD
:101390002DE9804C9A46934670B491E8380007C80E
:1013A00031EA400C48BF34EA430C03D5FFF7E6FDB1
:1013B000FFF780FFF0BCBDE8008C2DE9804C9A4619
:1013C000934670B491E8380007C810F0804F08BF0A
:1013D00013F0804F03D100F005F8FFF76BFFF0BC6E
:1013E000BDE8008C20F07F4780EA030023F07F4CAB
:1013F00007EB0C03A3F57C5300F00040A3F1FE03C0
:1014000092F0000F00F0B38095F0000F00F07780AD
:101410002DE901494FEA11404FEA144621EA0048FC
:1014200000FB06FC24EA064708FB06F607FB08F863
:1014300000FB07F718EB06484CEB164C4FEA124B33
:1014400018EB07484FEA15464CEB174022EA0B4EC3
:101450000BFB06FC25EA06470EFB06F607FB0EFE15
:101460000BFB07F71EEB064E4CEB164C4FF000063D
:101470001EEB074E4CEB174B18EB0B0840F100002E
:1014800018EB0E0B58EB000840F100008F1A4FF0DC
:1014900000013CBFC943661B14BFB5EB040C00211F
:1014A0003CBFC943F61B4FEA17444EEA8E0E27EAAB
:1014B00004454FEA1C4704FB07622CEA074C05FB76
:1014C00007F70CFB05F604FB0CFC16EB074642EB9A
:1014D000174216EB0C4642EB1C421BEB060658EB80
:1014E0000202414146EA9E0601D5BDE80189B619CE
:1014F000524141EB0101A3F10103BDE801894FEA2B
:1015000014454FEA114724EA054621EA074C05FB3A
:1015100007F406FB07F70CFB06F105FB0CFC11EBCF
:10152000074144EB17444FEA124711EB0C4144EBDF
:101530001C4422EA074C05FB07F206FB07F70CFBED
:1015400006F605FB0CFC16EB074642EB174216EBC2
:101550000C4642EB1C456A1854F1000148BF704725
:10156000B619524141EB0101A3F10103704795F017
:10157000000F37D04FEA11424FEA144721EA0246E2
:1015800024EA074C02FB07F106FB07F70CFB06F405
:1015900002FB0CFC14EB074441EB17414FEA1547E3
:1015A00014EB0C4441EB1C4125EA074C02FB07F508
:1015B00006FB07F70CFB06F602FB0CFC16EB0746D6
:1015C00045EB174516EB0C4645EB1C42121951F141
:1015D000000148BF7047B619524141EB0101A3F128
:1015E000010370474FEA14454FEA114724EA0546C4
:1015F00021EA074C05FB07F106FB07F70CFB06F297
:101600004FF0000605FB0CFC12EB074241EB1741C3
:1016100012EB0C4251EB1C4148BF7047921841EB52
:101620000101A3F10103704700BFFEE710B50248B6
:1016300000F0FEF810BD0000100C002010B50248AC
:1016400000F0F6F810BD0000100C0020704772B6D4
:1016500000BFFEE710B50446204601F0ADFC10BD0A
:10166000704703207047000070B5044600252046EF
:1016700000F01EF8051E0ED00748006820F001009B
:10168000401C054908602A4604A10848FEF71EFED2
:10169000064802F045FB70BD7802002043414E3100
:1016A0005F4552524F523D25750D0A00380C0020FF
:1016B0000146486A704770B5044694F82050012DE1
:1016C00001D0022D7DD151B92068C06800F003001F
:1016D00080B9606A40F400106062012070BD20682B
:1016E000006900F0030028B9606A40F400106062ED
:1016F0000120F3E7206800F5D87000EB01100068C6
:1017000000F004009060906840B9206800F5D8703F
:1017100000EB01100068400D106007E0206800F544
:10172000D87000EB01100068C0085060206800F518
:10173000D87000EB0110006800F00200D060206853
:1017400000F5D87000EB0110406800F00F00106148
:10175000206800F5D87000EB0110406800F47F406D
:10176000000A9061206800F5D87000EB0110406815
:10177000000C5061206800F5D87000EB0110806803
:101780001870206800F5D87000EB0110806800F434
:101790007F40000A5870206800F5D87000EB0110F7
:1017A000806800F47F00000C9870206800F5D87005
:1017B00000EB01108068000ED870206800F5D8702A
:1017C00000E02FE000EB0110C0681871206800F500
:1017D000D87000EB0110C06800F47F40000A587117
:1017E000206800F5D87000EB0110C06800F47F009D
:1017F000000C9871206800F5D87000EB0110C068EB
:10180000000ED87131B92068C06840F02000266809
:10181000F06005E02068006940F020002668306133
:1018200000205BE7606A40F480206062012055E799
:101830002DE9F05F04460025206846692068D0F84D
:101840000490206887682068D0F80CA02068D0F841
:1018500010B02068D0F8188006F00100002855D09C
:1018600007F00100C0B101202168886007F0020084
:1018700018B1204600F0B6FA0EE007F0040010B1EF
:1018800045F4006508E007F0080010B145F4805504
:1018900002E0204600F0A5FA07F48070C8B14FF4CA
:1018A00080702168886007F4007018B1204600F04D
:1018B0009BFA0EE007F4806010B145F4005508E093
:1018C00007F4006010B145F4804502E0204600F0C6
:1018D0008AFA07F48030C8B14FF4803021688860FC
:1018E00007F4003018B1204600F080FA0EE007F44B
:1018F000802010B145F4004508E007F4002010B145
:1019000045F4803502E0204600F06FFA06F008004A
:1019100038B10AF0100020B145F40075102021689C
:10192000C86006F0040040B10AF0080028B10820A1
:101930002168C860204600F0B9F906F0020038B10D
:101940002068C06800F0030010B1204600F0CCF918
:1019500006F0400038B10BF0100020B145F480656E
:1019600010202168086106F0200040B10BF008004B
:1019700028B1082021680861204600F0E3F906F04C
:10198000100038B12068006900F0030010B1204653
:1019900000F0F6F906F4003040B109F0100028B16B
:1019A000102021684860204600F01AFA06F48030C2
:1019B00040B109F0080028B108202168486020469D
:1019C00000F015FA06F4004088B309F0040078B37B
:1019D00006F4807020B108F0010008B145F001055F
:1019E00006F4007020B108F0020008B145F00205CD
:1019F00006F4806020B108F0040008B145F0040549
:101A000006F40060A0B108F0700088B108F0700022
:101A1000402817D006DC10280BD020280CD0302806
:101A200019D10CE0502810D0602814D110E01DE02E
:101A300019E045F008050FE045F010050CE045F011
:101A4000200509E045F0400506E045F0800503E08B
:101A500045F4807500E000BF00BF2068806920F079
:101A60007000216888610420216848602DB1606A97
:101A7000284360622046FFF7F7FDBDE8F09F70B590
:101A800004460CB9012070BD94F8200010B920461E
:101A900000F0B0F82068006840F00100216808609C
:101AA00000F036FB05460DE000F032FB401B0A2833
:101AB00008D9606A40F400306062052084F8200094
:101AC0000120E0E72068406800F001000028EBD02A
:101AD0002068006820F002002168086000F018FB10
:101AE00005460DE000F014FB401B0A2808D9606A87
:101AF00040F400306062052084F820000120C2E735
:101B00002068406800F002000028EBD1207E012808
:101B100006D12068006840F080002168086005E078
:101B20002068006820F0800021680860607E01283D
:101B300006D12068006840F040002168086005E098
:101B40002068006820F0400021680860A07E01281D
:101B500006D12068006840F020002168086005E098
:101B60002068006820F0200021680860E07E0128DD
:101B700006D12068006820F010002168086005E0A8
:101B80002068006840F0100021680860207F01286C
:101B900006D12068006840F008002168086005E070
:101BA0002068006820F0080021680860607F012834
:101BB00006D12068006840F004002168086005E054
:101BC0002068006820F0040021680860D4E9020160
:101BD000084321690843616908436168491E084355
:101BE0002168C86100206062012084F82000002084
:101BF00049E7000010B586B004460020029003902B
:101C00000490059026492068884246D100BF2548A7
:101C1000C06940F000702349C8610846C06900F0FF
:101C20000070019000BF00BF00BF0846806940F00F
:101C3000040088610846806900F00400019000BF3C
:101C400000BFC814029000200390049002A9164817
:101C500000F0CEF84FF48050029002200390032051
:101C6000059002A9104800F0C3F8002207211420B3
:101C700000F004FB142000F0F1FA002207211520E7
:101C800000F0FCFA152000F0E9FA002207211620E6
:101C900000F0F4FA162000F0E1FA06B010BD0000E2
:101CA00000640040001002400008014010B50446E6
:101CB0000748006820F00100401C0549086005A1A4
:101CC0000848FEF703FB074802F02AF810BD0000A1
:101CD0007802002043414E5F4649464F305F4675CB
:101CE0006C6C0000380C002038B504460C4B0D4AD3
:101CF00000212046FFF7DFFC88B903200849491E70
:101D0000087008468078009008464378054806A188
:101D100002680B48FEF7DAFA094802F001F838BD0C
:101D2000050C0020E80B00204649464F305F6964EF
:101D30003D25782C6D73673D25785F25780D0A0069
:101D4000380C002010B504460748006820F0010058
:101D5000401C0549086005A10848FEF7B7FA074886
:101D600001F0DEFF10BD00007802002043414E5F0D
:101D70004649464F315F46756C6C0000380C0020B8
:101D800038B504460C4B0D4A01212046FFF793FC61
:101D900088B904200849491E0870084680780090D8
:101DA00008464378054806A102680C48FEF78EFAFB
:101DB0000A4801F0B5FF38BD050C0020E80B0020F3
:101DC0004649464F315F69643D25782C206D736725
:101DD0003D25785F25780D0A00000000380C0020B2
:101DE000704770477047704770477047704770473B
:101DF0002DE9F8470346002294466EE14FF00108B2
:101E000008FA02F4D1F8008008EA0400A0427DD16B
:101E1000DFF8DCA2D1F80480A8EB0A09D0453AD05B
:101E200014DCB8F1030F50D009DCB8F1000F31D049
:101E3000B8F1010F1CD0B8F1020F49D120E0B8F180
:101E4000110F18D0B8F1120F42D11EE0B9F5881F5A
:101E500025D006DCB9F5803F20D0B9F5801F37D1F9
:101E60001AE0B9F5001F18D0B9F5041F30D117E0FA
:101E7000D1F80CC02DE0D1F80C8008F1040C28E05A
:101E8000D1F80C8008F1080C23E0D1F80C8008F19F
:101E90000C0C1EE000BF00BF00BF00BF00BF00BFB2
:101EA000D1F80880B8F1000F02D14FF0040C0BE01C
:101EB000D1F80880B8F1010F03D14FF0080C1C6174
:101EC00002E04FF0080C5C6103E04FF0000C00E012
:101ED00000BF00BFFF2801D8984601E003F10408C5
:101EE0004646FF2802D84FEA820803E0A2F108081C
:101EF0004FEA88084746D6F800804FF00F0909FAE4
:101F000007F928EA09080CFA07F900E088E048EA2E
:101F10000908C6F80080D1F8048008F08058B8F1AC
:101F2000805F7DD100BFDFF8CC81D8F8188048F001
:101F30000108DFF8C091C9F81880C846D8F81880A1
:101F400008F00108CDF8008000BF00BF4FEAB938A3
:101F50004FEA920958F829504FEA82784FEA1879E7
:101F60004FF00F0808FA09F825EA0805DFF888811C
:101F7000434502D14FF0000816E0DFF88081434569
:101F800002D14FF001080FE0DFF87481434502D120
:101F90004FF0020808E0DFF86C81434502D14FF0B2
:101FA000030801E04FF004084FEA82794FEA1979FB
:101FB00008FA09F848EA0505DFF84C814FEA92096A
:101FC00048F82950D1F8048008F48038B8F5803FEB
:101FD0000AD1DFF83881D8F8008048EA0008DFF835
:101FE0002C91C9F8008009E0DFF82081D8F8008042
:101FF00028EA0008DFF81491C9F80080D1F80480BD
:1020000008F40038B8F5003F10D1DFF8008108F17E
:102010000408D8F8008048EA0008DFF8F09000E0F3
:102020005AE009F10409C9F800800DE0DFF8DC800E
:1020300008F10408D8F8008028EA0008DFF8CC90FE
:1020400009F10409C9F80080D1F8048008F4801867
:10205000B8F5801F0ED1DFF8B48008F10808D8F871
:10206000008048EA0008DFF8A49009F10809C9F8DF
:1020700000800DE0DFF8948008F10808D8F80080AF
:1020800028EA0008DFF8849009F10809C9F80080FF
:10209000D1F8048008F40018B8F5001F0ED1DFF85D
:1020A0006C8008F10C08D8F8008048EA0008DFF8D6
:1020B0005C9009F10C09C9F800800DE0DFF84C8054
:1020C00008F10C08D8F8008028EA0008DFF83C90F6
:1020D00009F10C09C9F80080521CD1F8008028FAD7
:1020E00002F8B8F1000F7FF489AEBDE8F887000070
:1020F000000011100010024000080140000C0140D7
:10210000001001400014014008000140000401409B
:1021100001480068704700008802002003480068FA
:102120000349097808440149086070478802002083
:102130009002002010B50848006840F010000649E1
:102140000860032000F0D8F80F2000F007F800F036
:1021500055F8002010BD000000200240F0B587B007
:10216000044600260027002500BF1F48806940F470
:1021700000601D4988610846806900F40060009095
:1021800000BF00BF01A902A800F090F900F0B6F965
:1021900006461648B6FBF0F0471E1548154908607C
:1021A00040F2E7311348C16047600021016181605E
:1021B000816100F031FC054695B90E4800F060FCE5
:1021C00005466DB9192000F049F8102C07D20022FD
:1021D0002146192000F052F80748046000E001256C
:1021E000284607B0F0BD00000010024040420F003A
:1021F000002C0140940E00208C02002008B500BF86
:102200001448806940F001001249886108468069DD
:1022100000F00100009000BF00BF00BF0846C06989
:1022200040F08050C8610846C06900F080500090BE
:1022300000BF00BF00220F21901E00F01FF800BF5A
:102240000549486820F0E06040F00070486000BF39
:1022500008BD000000100240000001400146084691
:10226000002809DB00F01F0301229A4043099B006C
:1022700003F1E023C3F8002100BF70472DE9F05FB0
:1022800080460D461646002701F0FCFD07463946FC
:102290002A46334601F00700C0F1070ABAF1040FDD
:1022A00002D94FF0040A01E0C0F1070AD14600F15B
:1022B000040ABAF1070F02D24FF0000A01E0A0F1C0
:1022C000030AD4464FF0010A0AFA09FAAAF1010AF0
:1022D0000AEA020A0AFA0CFA4FF0010B0BFA0CFB9D
:1022E000ABF1010B0BEA030B4AEA0B042146404613
:1022F00001F0D0FDBDE8F09F00BF00F00702064BE3
:1023000019684FF6FF031940044B0B4343EA0221BF
:10231000014B196000BF70470CED00E00000FA05AA
:1023200070B504460D460CB9012070BD5A480068CE
:1023300000F00700A8420ED25748006820F00700BE
:102340002843554908600846006800F00700A84285
:1023500001D00120E9E7207800F0020002281DD119
:10236000207800F00400042805D14C48406840F46F
:10237000E0604A494860207800F00800082805D14C
:102380004648406840F460504449486043484068CB
:1023900020F0F000A168084340494860207800F030
:1023A000010078B36068012806D13C48006800F459
:1023B000003090B90120B8E76068022806D137489C
:1023C000006800F0007040B90120AEE733480068B3
:1023D00000F0020008B90120A7E73048406820F06B
:1023E0000300616808432D494860FFF791FE0646E7
:1023F00009E0FFF78DFE801B41F28831884202D947
:10240000032092E707E02548406800F00C0061686F
:10241000B0EB810FEDD12048006800F00700A84222
:102420000ED91D48006820F0070028431A490860AB
:102430000846006800F00700A84201D0012074E7B8
:10244000207800F00400042807D11448406820F4E4
:10245000E060E168084311494860207800F0080016
:10246000082808D10D48406820F46050216940EAEE
:10247000C1000A49486000F051F808494968C1F3B1
:102480000311074A515CC8400649086006480068C5
:10249000FFF764FE002048E70020024000100240E1
:1024A000AC780008940200208C0200200F22026009
:1024B0000D4A526802F0030242600B4A526802F071
:1024C000F0028260084A526802F4E062C260064A82
:1024D000526802F46052D2080261044A126802F0A3
:1024E00007020A607047000000100240002002400E
:1024F00001480068704700009402002000B5FFF713
:10250000F7FF04494968C1F3C221034A515CC8403E
:1025100000BD000000100240BC780008F0B585B096
:102520000FF26C0C9CE8E01001A8A0E8E0101CA5DC
:102530002D68009500210022002300240020194D61
:10254000696801F00C05F5B1042D02D0082D19D1F0
:1025500001E0154819E001ADC1F38346AC5D01F41B
:10256000803555B10F4D6D68C5F340451DF8052008
:102570000D4D6543B5FBF2F302E00C4D04FB05F392
:10258000184602E000BF084800BF00BF05B0F0BD1C
:1025900002030405060708090A0B0C0D0E0F1010A4
:1025A000010200000010024000127A0000093D0004
:1025B000F8B504460CB90120F8BD207800F0010000
:1025C000002878D0F848406800F00C0004280CD0AF
:1025D000F548406800F00C00082811D1F248406826
:1025E00000F48030B0F5803F0AD1EF48006800F475
:1025F000003000285FD0606800285CD10120DBE754
:1026000000BF6068B0F5803F06D1E748006840F43D
:102610008030E549086028E0606858B9E248006801
:1026200020F48030E04908600846006820F48020EB
:1026300008601AE06068B0F5A02F0BD1DA48006896
:1026400040F48020D84908600846006840F4803093
:1026500008600AE0D448006820F48030D24908605D
:102660000846006820F48020086000BF606888B1D8
:10267000FFF74EFD054606E0FFF74AFD401B6428C4
:1026800001D9032098E7C848006800F4003000280A
:10269000F2D010E0FFF73CFD054606E0FFF738FDFD
:1026A000401B642801D9032086E7BF48006800F476
:1026B00000300028F2D1207800F00200022857D123
:1026C000B948406800F00C0050B1B748406800F0CD
:1026D0000C00082818D1B448406800F4803098B93C
:1026E000B148006800F0020020B12069012801D043
:1026F000012061E7AC48006820F0F800616940EA19
:10270000C100A949086033E02069E8B10120A74968
:102710000860FFF7FDFC054606E0FFF7F9FC401BEB
:10272000022801D9032047E79F48006800F0020013
:102730000028F2D09C48006820F0F800616940EA67
:10274000C1009949086013E0002098490860FFF72C
:10275000DFFC054606E0FFF7DBFC401B022801D941
:10276000032029E79048006800F002000028F2D119
:10277000207800F0080008282DD1A069B8B1012008
:102780008B490860FFF7C4FC054606E0FFF7C0FC74
:10279000401B022801D903200EE78348406A00F05D
:1027A00002000028F2D0012001F008F913E0002017
:1027B0007F490860FFF7ACFC054606E0FFF7A8FC80
:1027C000401B022801D90320F6E67748406A00F052
:1027D00002000028F2D1207800F00400042873D110
:1027E00000277148C06900F0805070B900BF6E4882
:1027F000C06940F080506C49C8610846C06900F06B
:102800008050009000BF00BF01276A48006800F4B4
:102810008070B0B96748006840F48070654908600E
:10282000FFF776FC054606E0FFF772FC401B6428C4
:1028300001D90320C0E65F48006800F480700028DA
:10284000F2D000BFE068012806D15748006A40F086
:1028500001005549086227E0E06858B95248006A0B
:1028600020F00100504908620846006A20F0040088
:10287000086219E0E06805280BD14B48006A40F077
:102880000400494908620846006A40F001000862F5
:102890000AE04548006A20F0010043490862084602
:1028A000006A20F00400086200BFE068A0B1FFF7F2
:1028B0002FFC054609E0FFF72BFC401B41F2883155
:1028C000884202D9032077E622E03748006A00F008
:1028D00002000028EFD012E0FFF71AFC054608E0DE
:1028E000FFF716FC401B41F28831884201D90320D2
:1028F00062E62D48006A00F002000028F0D1012FA6
:1029000005D12948C06920F080502749C86100BF1F
:10291000E069C8B32448406800F00C00082860D083
:10292000E069022848D1002020490866FFF7F0FB43
:10293000054606E0FFF7ECFB401B022801D9032007
:102940003AE61948006800F000700028F2D1206AC9
:10295000B0F5803F07D11448406820F40030A168EA
:10296000084311494860D4E9080108430E49496801
:1029700021F4741108430C49486001200B49086692
:10298000FFF7C6FB054607E03DE0FFF7C1FB401B34
:10299000022801D903200FE60348006800F0007008
:1029A0000028F2D02FE00000001002400000424258
:1029B0008004424200700040002014490866FFF77E
:1029C000A7FB054606E0FFF7A3FB401B022801D941
:1029D0000320F1E50E48006800F000700028F2D1F5
:1029E00011E0E069012800D1E6E50948466806F4EF
:1029F0008031206A814204D106F47011606A8142FC
:102A000001D00120D8E50020D6E5000000004242B8
:102A1000001002407047704710B504460CB9012001
:102A200010BD94F83D0028B9002084F83C002046F1
:102A300000F025F8022084F83D00211D206801F0F7
:102A400027F9012084F8460000BF84F83E000121E8
:102A50003F200155402001554120015500BF00BFD6
:102A6000012084F8420043200155442001554520AF
:102A7000015500BF012084F83D000020D0E77047D9
:102A8000014691F83D00012801D001207047022045
:102A900081F83D000868C06840F001000B68D8600C
:102AA000124B086898420BD00868B0F1804F07D0ED
:102AB0000F4B0868984203D00E4B086898420CD11F
:102AC0000868806800F00702062A0CD008680068D1
:102AD00040F001000B68186005E00868006840F0ED
:102AE00001000B6818600020D0E70000002C0140B6
:102AF0000004004000080040704710B504462068FC
:102B00000069C0F34000D8B12068C068C0F340003D
:102B1000B0B16FF0020021680861012020772068C1
:102B2000806900F0030018B12046FFF7E5FF05E0DB
:102B3000204600F0ADF8204600F0ABF800202077EA
:102B400020680069C0F38000D8B12068C068C0F375
:102B50008000B0B16FF00400216808610220207786
:102B60002068806900F4407018B12046FFF7C4FF68
:102B700005E0204600F08CF8204600F08AF800209E
:102B8000207720680069C0F3C000D8B12068C06811
:102B9000C0F3C000B0B16FF00800216808610420E4
:102BA00020772068C06900F0030018B12046FFF7C5
:102BB000A3FF05E0204600F06BF8204600F069F81E
:102BC0000020207720680069C0F30010D8B1206889
:102BD000C068C0F30010B0B16FF010002168086148
:102BE000082020772068C06900F4407018B12046A2
:102BF000FFF782FF05E0204600F04AF8204600F08B
:102C000048F8002020772068006900F0010058B1E2
:102C10002068C06800F0010030B16FF00100216849
:102C20000861204600F036F820680069C0F3C01043
:102C300058B12068C068C0F3C01030B16FF0800098
:102C4000216808612046FFF7E5FE20680069C0F3AF
:102C5000801058B12068C068C0F3801030B16FF0A8
:102C6000400021680861204600F020F820680069D3
:102C7000C0F3401058B12068C068C0F3401030B1B4
:102C80006FF02000216808612046FFF7C4FE10BDE8
:102C90007047704710B5044603492068884201D147
:102CA000FFF73CFA10BD0000002C0140704700BF48
:102CB000FEE7000008B5054989690143034A9161AF
:102CC000114689690140009100BF08BD0010024013
:102CD00008B5054989690143034A9161114689692B
:102CE0000140009100BF08BD001002402DE9F041F5
:102CF00002460B461868C0F30F2595FAA5F0B0FA06
:102D000080F480E00120A040284000287AD0082CE0
:102D100004D240F2011000FA04F106E0A4F1080028
:102D20004FF00116864046F08061586808280ED1A1
:102D30001869D66826EA11260F0A97FAA7F7B7FA94
:102D400087F700FA07F73E43D66000BF00BF586818
:102D500002EB116691FAA1FCBCFA8CFC4FEA8C08DC
:102D60004FF00F0C0CFA08FC376827EA0C0791FAB1
:102D7000A1FCBCFA8CFC4FEA8C0C00FA0CFC47EA74
:102D80000C07376000BF5868012802D0586809282E
:102D900038D1986802EB116691FAA1FCBCFA8CFC60
:102DA0004FEA8C084FF0030C0CFA08FC376827EA4E
:102DB0000C0791FAA1FCBCFA8CFC4FEA8C0C00FACF
:102DC0000CFC47EA0C07376000BFD86802EB1166BD
:102DD00091FAA1FCBCFA8CFC4FEA8C084FF0040C71
:102DE0000CFA08FC376827EA0C0791FAA1FCBCFA38
:102DF0008CFC4FEA8C0C00FA0CFC47EA0C0737609D
:102E000000BF00BF641C25FA04F000287FF47AAFED
:102E1000BDE8F081C1F30F220261704710B504468E
:102E200000F014FE2060206800F0DCFD6060606847
:102E300000F0E8FDA060606800F0F6FDE06010BD05
:102E4000016921F490410161416921F02A01416148
:102E50007047C16841F40051C16070472DE9FF41DE
:102E600004460D4601270026204600F041F80028C0
:102E700033D1E9686868084329690843E16841F289
:102E80000C6291430843E060A868216921F4405135
:102E90000143216100BF6869616921F44071014308
:102EA000616100BF6846FFF7B9FF0E48844201D157
:102EB000039E08E00C48844201D1029E03E00B48C7
:102EC000844200D1029E46B1286830B100273146C5
:102ED00020462A6800F011F800BF384604B0BDE86B
:102EE000F0810000003801400044004000480040EC
:102EF0000146C868C0F34030704770B501EBC103AC
:102F000003EB01139400B3FBF4F301EBC10404EBF6
:102F100001149500B4FBF5F46425B4FBF5F404EB5F
:102F2000C40505EB0414A3EB8403322404EB031360
:102F30006424B3FBF4F303F0F00301EBC10404EBEE
:102F400001149500B4FBF5F46425B4FBF5F403EB30
:102F5000041401EBC10303EB01139500B3FBF5F37C
:102F600001EBC10505EB01159600B5FBF6F56426EE
:102F7000B5FBF6F505EBC50606EB0515A3EB8503DA
:102F8000322505EB03136425B3FBF5F303F00F03C0
:102F900023449BB2836070BD10B502460B460024EB
:102FA000002104E032F81100204484B2491C994207
:102FB000F8D3604280B210BD10B50446208A20F0DC
:102FC0000100401C2082208A20F004002082208AF8
:102FD00020F0800080302082208A20F002002082B1
:102FE000208A20F078002082207C00F5007020826A
:102FF00000216182A06920F0FF01491CA161A06944
:10300000C0F3150101F18071A161E06920F0FF01B9
:10301000491CE161E069C0F3150101F18071E161D2
:10302000606A20F00401091D6162606A20F00801F5
:1030300008316162606A20F040016162606A20F0DC
:1030400080016162606A20F4807101F580716162C3
:10305000606A20F4007101F500716162606A20F419
:10306000806101F580616162606A20F400616162E3
:10307000606A20F4805101F580516162606A20F439
:10308000005101F500516162606A20F48031616293
:10309000606A20F400316162606A20F4802101F5E9
:1030A00080216162606A20F400216162606A20F41C
:1030B00080116162606A20F400116162606A20F030
:1030C000807101F180716162606A20F0007101F12C
:1030D00000716162606A20F0806101F1806161626B
:1030E000606A20F0006101F100616162A06A20F075
:1030F0000101491CA162A06A20F00201A162A06A3C
:1031000020F00401A162A06A20F00801A162A06A77
:1031100020F4807101F58071A162A06A20F4007131
:10312000A162A06A20F48061A162A06A20F400611B
:10313000A1620E2340F6BE322146024800F004F898
:1031400010BD0000003801402DE9F04107460C4653
:1031500016461D4648F2FF1020806680A58000209C
:10316000E08004212046FFF717FF2081294604F163
:103170001000FFF711FF04F1100121F81500681C81
:103180000A2101EB400082B22146084800F01EF8F7
:10319000681C0A2101EB4003324605A10A48FDF7ED
:1031A00095F8094800F0BCFDBDE8F0810038014009
:1031B0007075745F4D736749643D25752C20627985
:1031C00074653D25750D0A00380C002010B50B46BE
:1031D00000210AE000BF046804F04004002CFAD08B
:1031E0005C5C446000BF4C1CE1B29142F2DB10BD5C
:1031F00010B5104810490860122048604FF0404157
:103200000D4881600021C1604FF4402101614FF4FD
:1032100080114161002101760121417681760021F2
:10322000C176017701214177FEF729FC08B1FEF74D
:103230000EFA10BD00640040100C002000B599B0DB
:103240001E4903C9CDE917010022012117A800F08A
:1032500035FF1B4908601949083103C9CDE915013B
:103260000022114615A800F029FF164908601C220B
:10327000124910310EA8FDF786F900210EA800F0C2
:10328000EEFE114908601C220C492C3107A8FDF7FD
:103290007AF9002107A800F0E2FE0C4908601C2220
:1032A000064948316846FDF76EF90021684600F08E
:1032B000D6FE0749086019B000BD00004878000834
:1032C000400200204402002050020020480200205A
:1032D0004C02002000B585B014216846FDF7A7F91F
:1032E0001020FFF7E7FC2020FFF7E4FC0420FFF7A5
:1032F000E1FC0820FFF7DEFC0948C0F30F21094A72
:10330000516100BF00900120019002200290002036
:10331000039069461046FFF7E9FC05B000BD0000C8
:1033200020002004001001402DE9F0418CB01C2148
:1033300005A8FDF77CF914216846FDF778F94FF4EC
:103340008040FFF7C5FC0820FFF7C2FC44F24000B4
:10335000009009200190032002900020039069460C
:103360004B48FFF7C3FC48F2800000900420019016
:1033700069464748FFF7BAFC00BF464840684649DF
:1033800008434449486000BF2521444B1B68C3F3F0
:103390000220052400250346C3F1070CBCF1040FED
:1033A00002D94FF0040C01E0C3F1070C674603F1AA
:1033B000040CBCF1070F02D24FF0000C01E0A3F1A6
:1033C000030C66464FF0010C0CFA07FCACF1010C43
:1033D0000CEA040C0CFA06FC4FF0010808FA06F897
:1033E000A8F1010808EA05084CEA080200BF002914
:1033F00004DB1007030E2A48435407E01007040EAD
:1034000026480C3001F00F031B1FC45400BF2520B9
:10341000002809DB00F01F020121914042099200BF
:1034200002F1E022C2F8001100BF00BF6FF02000DF
:103430001C49086000BF00BF0846C06840F020007B
:10344000C86000BF00BF0846406940F00100486105
:1034500000BF4FF4E13005900020069007900890DF
:103460000C20099000200A900B9005A90D48FFF749
:10347000F5FC0C48FFF7E4FC0A48FFF7EAFC4FF4C0
:1034800000720949094800F047FB0CB0BDE8F08123
:10349000000C014000000140040000070CED00E0BA
:1034A00000E400E000380140940C0020880C00206B
:1034B00000B58DB01C2106A8FDF7B9F8142101A8AC
:1034C000FDF7B5F84FF400301D49C96901431C4AA6
:1034D000D1611146C9690140009100BF00BF0420BD
:1034E000FFF7F6FB40F20440019009200290032010
:1034F00003900020049001A91248FFF7F7FB40F663
:10350000080001900420029001A90E48FFF7EEFB8D
:103510004FF4E130069000200790089009900C20AD
:103520000A9000200B900C9006A90748FFF796FC24
:103530000548FFF785FC0448FFF78BFC0DB000BD84
:1035400000100240000801400044004000BFFEE7B8
:1035500000BFFEE708B500BF00F06DFD009041F22E
:1035600088310648006800F0CFFD00BF044800F035
:1035700009F86421684600F04BFDF7E7400200209F
:10358000280000202DE9F04F89B082464FF0FF302F
:1035900008900020079048F2FF10AAF8000085E18B
:1035A000C74800F0C8FA83469AF810020D2875D271
:1035B000DFE800F074070F1B21272D363C42485AE4
:1035C0007C009AF80000584502D102208AF81002C7
:1035D0006BE19AF80100584503D103208AF81002E4
:1035E00002E001208AF810025FE104208AF810024C
:1035F0008AF802B059E105208AF810028AF803B06F
:1036000053E106208AF810028AF804B04DE1072041
:103610008AF810028AF805B00020AA49088044E11F
:103620008AF806B008208AF810023EE18AF807B04E
:1036300009208AF8100238E18AF808B00A208AF8CE
:10364000100232E18AF809B09D4800F053FA0446AE
:1036500022469DA1A048FCF739FE9F4800F060FB80
:103660000B208AF8100220E1BAF8040040009549C6
:103670000988884213DD0AF110009249098800F890
:1036800001B090480088401C8E4908800846008898
:10369000B0F5007F09DB0020088006E004E100208F
:1036A000884908800C208AF81002FEE001208AF880
:1036B000100204215046FFF76FFCBAF80810884248
:1036C0006BD1BAF8020040F6BA32811A90426FD03C
:1036D0000BDCA0F6980000286BD0B0F5487F0BD02B
:1036E000A0F22130002873D164E0012971D00429AF
:1036F00070D00929F7D16EE0DAF85C00009077A16C
:103700007548DAE91523FCF7E1FD734800F008FB82
:10371000DAF86C0003F092FF044600224FF0804379
:1037200000F026FD06460F46DAF8680003F086FF33
:10373000044600224FF0804300F01AFD32463B461B
:10374000CDE9020103F090FECDE9040101F0A8FFEC
:10375000804603F0C9F90790DAF8680003F06EFFBD
:1037600004460D46DAF86C0003F068FF06460F4683
:10377000079803F063FF80460B469AF8A000C0F359
:1037800040109AF8A010C1F300114246CDE900673D
:10379000CDE90245CDE9041000E072E055A14E48A4
:1037A000FCF794FD4C4800F0BBFA0120089067E05C
:1037B0001FE048E0BAF80430BAF8022058A14648A1
:1037C000FCF784FD444800F0ABFA0220089057E073
:1037D0004AE01CE029E0BAF80430BAF8022050A10F
:1037E0003D48FCF773FD3C4800F09AFA032008902E
:1037F00046E0BAF80430BAF8022049A13648FCF78E
:1038000065FD354800F08CFA0420089038E0BAF8DD
:103810000430BAF8022042A12F48FCF757FD2E4889
:1038200000F07EFA052008902AE0BAF80430BAF8D1
:10383000022041A12848FCF749FD274800F070FA12
:10384000062008901CE0BAF806000090BAF8043090
:10385000BAF8022041A12048FCF738FD1E4800F0CC
:103860005FFA072008900BE0BAF80430BAF802209B
:1038700042A11948FCF72AFD174800F051FA00BF91
:103880000EE004215046FFF787FB0446BAF80830E3
:10389000224643A11048FCF719FD0F4800F040FAFA
:1038A000074800F01DF900E000BF00BF044800F029
:1038B00021F900283FF774AE089809B0BDE8F08FF1
:1038C000880C0020200000206765745F62797465B1
:1038D0003D25750D0A000000380C0020686F7572D8
:1038E0003D25642C6D696E3D25642C7365633D2513
:1038F000640D0A0074444F503D25302E32662C2052
:1039000070444F503D25302E32662C2067444F5076
:103910003D25302E32662C2025752025750D0A0098
:1039200069643D25782C20646174615F73697A65F0
:103930003D25780D0A000000676574206D736733BC
:103940003030362C2069643D25782C206461746108
:103950005F73697A653D25780D0A000069643D252D
:10396000782C20646174615F73697A653D25782CD9
:103970002064756D6D793D25780D0A007061726364
:10398000696E675F6572726F722C69643D25782C71
:10399000646174615F73697A653D25780D0A000082
:1039A0006865616465725F4352435F6572726F72EE
:1039B0002C202578213D25780D0A000008B50849FE
:1039C0000968C9084FF47A72B1FBF2F141430091E2
:1039D00000BF00BF00994A1E00920029F9D108BD1E
:1039E00094020020014600BF0448406800F0F00047
:1039F0000009034A125C21FA02F0704700100240ED
:103A0000AC780008014600BF0548406800F4E0605B
:103A1000044A02EB1020027821FA02F070470000FD
:103A200000100240BC780008014600BF054840680D
:103A300000F46050044A02EBD020027821FA02F030
:103A40007047000000100240BC78000810B5002448
:103A500000BF0B48406800F00C0020B1042804D0DF
:103A6000082808D103E0074C07E0064C05E000F009
:103A70000BF8044601E0034C00BF00BF204610BD18
:103A80000010024000127A000021002200BF1148FD
:103A9000406800F4803002461AB1B2F5803F0CD184
:103AA00001E00D490BE000BF0A484068C0F3404008
:103AB000401C0A4BB3FBF0F101E0074900BF00BF17
:103AC00000BF0448406800F47010022303EB9040EC
:103AD000484370470010024000093D0000127A0080
:103AE00010B504460020A080E08021892068FCF702
:103AF0007CFD10BD014600208A88CB889A4206DAF8
:103B00000A898B881A44CB88D21A90B203E08A883B
:103B1000CB88D21A90B2704770B504460D4616464F
:103B2000268125602046FFF7DBFF206808B10120D1
:103B300070BD0020FCE70146CB885A1CCA800A6889
:103B4000D05CCA880B899A4201DB0022CA80704788
:103B500083885A1C82800268D154828803899A42E1
:103B600001DB0022828070470848FDF773FD4FF4A7
:103B70007A7000F041FA4FF47A7000F03DFA00BF1D
:103B800041F2883000F038FAFAE700001003002014
:103B900011491248FFF73EF900BF0F480F49C968A5
:103BA000C0F30F221140C0F30F22914201D1012135
:103BB00000E0002121B908490848FFF72BF906E089
:103BC0000548C0F30F21054A516100BF00BF4FF403
:103BD0007A7000F011FAE0E72000200400100140A4
:103BE00010B500BF502080F31188BFF34F8FBFF393
:103BF0006F8F00BF02F0BAFC18B14FF0805004493B
:103C0000086000BF002080F3118800BF10BD0000D5
:103C100004ED00E000B58FB0282105A8FCF707FDF2
:103C200014216846FCF703FD01200590000406906E
:103C3000002007900120099002200C90C1030D91F3
:103C40004FF4E0110E9105A8FEF7B2FC08B1FDF7A4
:103C5000FEFC0F20009002200190002002904FF403
:103C6000806003900020049002216846FEF758FB14
:103C700008B1FDF7ECFC0FB000BD704710B502486D
:103C8000FEF73BFF10BD0000940E002070470000BF
:103C900010B50268184B984208D0B0F1804F05D09B
:103CA000164B984202D0164B984203D122F0700274
:103CB0004B681A43104B984208D0B0F1804F05D0A2
:103CC0000E4B984202D00E4B984203D122F4407220
:103CD000CB681A4322F080034C6943EA0402026075
:103CE0008B68C3620B688362034B984201D10B69F6
:103CF00003630123436110BD002C01400004004018
:103D00000008004000BF0549096801F04001002992
:103D1000F9D00249091D08607047000000440040C6
:103D200000B5024602E01846FFF7ECFF12F8013B2F
:103D3000002BF8D100BD000010B500BF044840685A
:103D4000C0B2044621460348FFF702FF10BD000041
:103D500000380140880C002008B500BF2D480068DD
:103D6000C0F3401040B100BF2A48C068C0F3401003
:103D700010B1FFF7E1FF4CE000BF26480068C0F338
:103D8000C00060B100BF23480068009000BF214818
:103D90004068009000BF00BF1FA0FFF7C1FF00BF39
:103DA0001C480068C0F3800060B100BF194800687B
:103DB000009000BF17484068009000BF00BF19A0E6
:103DC000FFF7AEFF00BF13480068C0F3400060B1CA
:103DD00000BF10480068009000BF0E484068009087
:103DE00000BF00BF12A0FFF79BFF00BF094800689B
:103DF00000F0010068B111A0FFF792FF00BF054875
:103E00000068009000BF03484068009000BF00BFFA
:103E100000BF08BD00380140466C61675F4F5245E6
:103E20000D0A0000466C61675F4E450D0A000000F8
:103E3000466C61675F46450D0A000000466C61678D
:103E40005F50450D0A00000010B50248FDF7F0FC78
:103E500010BD0000100C002000BFFEE7490050EA32
:103E6000C12018BF04204A0D18BF40F0010040F2E5
:103E7000FF72B2EB515F08BF40F00200012808BF9B
:103E80000520704702480068C0F302207047000018
:103E90000CED00E010B5002804DB0A07130E054AFC
:103EA000135406E00A07140E034A00F00F031B1F09
:103EB000D45410BD00E400E018ED00E02DE9F0411D
:103EC0004F1E00EBC7010446D1E9000115461E460E
:103ED00037F006020DD02A46334603F09FF87F1EC6
:103EE00004EBC703D3E9002302F030FE37F00602EB
:103EF000F1D1022F25D0042F13D0062F18BFBDE813
:103F0000F0812A46334603F089F8D4E90A2302F007
:103F10001DFE2A46334603F081F8D4E9082302F057
:103F200015FE2A46334603F079F8D4E9062302F059
:103F30000DFE2A46334603F071F8D4E9042302F05B
:103F400005FE2A46334603F069F8D4E9022302F05D
:103F5000FDFD2A46334603F061F8D4E90023BDE8AD
:103F6000F04102F0F3BD0000002213461046014963
:103F700002F0A8BE0000F03F02F0E8BD00221346A8
:103F80001046114602F09EBE40F2013200204FF072
:103F9000E04103F0FDBB0000024A0020110703F0DE
:103FA000F7BB000001FDFFFF30380A2801D20120D5
:103FB00070470020704700BFEFF3058008B1012073
:103FC00070470020FCE7FEF7B5F8FFF723FEFFF788
:103FD00081F9FFF76DFAFFF7A7F9FFF709F9FFF786
:103FE0002DF900F023F800BFFEE7014600208429E8
:103FF00001D0CA1C1044704770B5044625460DB167
:10400000294600E00121084601F0F0FC002070BDC7
:1040100070B505460C4626460EB1304600E001203C
:104020000146284601F010FD002070BD10B501F0DA
:10403000C3FD002010BD10B5FFF7BDFF10B102F0A9
:104040008BFA10BD02F082FAFBE7000010B50446BF
:104050000148FDF7FFFA10BD1003002070477FB53F
:1040600004460D46606998B1A06988B1B4F90800AA
:10407000FFF7BBFF0646D4E90510CDE900610290C9
:104080002B462269D4E9001002F0F4F9039013E002
:10409000B4F90800FFF7A9FF064603A8CDE90060C0
:1040A000238A9AB22B46D4E9001002F0B1F9012814
:1040B00002D0002004B070BD0398FBE77CB5044635
:1040C0000D461646606878B1D4E90001CDE90001DB
:1040D000012D01D1012000E00020024633460121DC
:1040E00008A002F034FC7CBD20680090012D01D1B5
:1040F000012000E0002002463346012101A002F029
:104100000BFCF0E7000000002DE9FC4106460C46E0
:10411000002700200190254605B90125FFF74BFF38
:10412000B0B1002001AB2A4609210090304602F0D0
:1041300083FC012801D0FF2715E0019898B14FF0CA
:1041400080500A490860BFF34F8FBFF36F8F0AE0BA
:10415000002003462A4604210090304602F06CFC01
:10416000012800D0FF273846BDE8FC8104ED00E0BF
:104170002DE9F04D1D460C4698B0174621F0004140
:1041800023F00043002814BF4FF0010C4FF0000C47
:104190000CEB440CFE4A0CEB02064FEA620C66453F
:1041A0002BD33E0018BF012606EB45061644F94AFC
:1041B000964222D3F84A53EA070C02D0944205D122
:1041C00048B918B000201146BDE8F08D002808BF9E
:1041D0004FF0000C01D04FF0010C0CEB440212F533
:1041E000001F0AD8002F14BF4FF0010C4FF0000C35
:1041F0000CEB450212F5001F07D918B03A462B46C2
:104200002146BDE8F04DFFF7B7BE0022DFF88CA3D2
:10421000002CB8BF534526DADFF884C36345A8BF36
:10422000022220DADFF870C39C451CDCDFF874C37F
:104230000CEB235CBCF1140F08DDCCF1340627FA3B
:1042400006FC0CFA06F6BE420DD108E05FB9CCF1CF
:10425000140623FA06FC0CFA06F69E4203D10CF073
:104260000102C2F1020251EA000C19D1002D17DA45
:10427000002C18BF022A01D0012A07D00220FCF727
:1042800005FA18B0BDE8F04DFFF76EBE0220FCF74E
:10429000FDF9FFF769FE18B081F00041BDE8F08D2F
:1042A000B7F1000C6CD1534525D104F1804212F5D1
:1042B000801201BF00280020B74918B008BFBDE830
:1042C000F08DB548884207DC002DA1BF6046294625
:1042D00018B0BDE8F08D07E0281E05DA80F0004137
:1042E00018B06046BDE8F08DAF497944D1E90001CE
:1042F00018B0BDE8F08DDFF8A0C2634525D1002DD0
:104300001FDA19B1514512D1D8B909E0002840F09F
:10431000EC82A24A214618B062F31E01BDE8F08D7E
:104320000020214618B060F31E01BDE8F08D08DAC8
:1043300018B02346BDE8F04D02460020614602F069
:10434000C1BC18B02146BDE8F08D514518DAB5F171
:10435000804F0DD0A5F1005CBCF1FF5C10D1B4F131
:10436000000C0DDB18B06146BDE8F04D01F098B9C6
:10437000234618B00246BDE8F04D194602F04EBE85
:10438000060024F0004C3BD1D9B1514533D1002C6B
:1043900006DD002DA1BF0020514618B0BDE8F08D0C
:1043A000002C01DD002D1BDB002C13DA002D11DBAE
:1043B000012A4FF0000014BF78497C4918B0BDE8CD
:1043C000F08D022A18BF002C0AD0012A08D1002C37
:1043D00006DA0AE0002CB8BF002D11DA012A04D059
:1043E000002018B00146BDE8F08D18B000204FF055
:1043F0000041BDE8F08DA1F14050B0F17F601AD0CE
:10440000012000EBE47050EA020421D0624C521EFD
:104410004FF0000B104304BF4FF0000B644C654895
:1044200083427CDD644A654893421FDD884217DB86
:10443000002D25DB37E0002C00DA4AB1022A0CBF40
:1044400001204FF0FF3018B0BDE8F04D02F092BDF2
:104450000120FCF71BF918B0BDE8F04DFFF78EBD49
:104460004D4A8A4202DC002D0ADC1CE0814202DA5D
:10447000002D18DA04E0484B994220DD002D12DDB2
:104480000220FCF703F9FFF77FFD05460E460022E8
:1044900053465846214602F0C1FD18B066F31E018E
:1044A0002846BDE8F08D0220FCF7F0F8FFF774FD18
:1044B0000A46214618B062F31E01BDE8F08D0022C5
:1044C0003046614602F0D0FF80460E466FF0010292
:1044D00003F05EF94FF05532394B02F0D3FE4246FD
:1044E000334602F09BFD0022364B02F0CBFE8246A3
:1044F0004246334604911046194602F08FFD52465B
:10450000049B02F08BFD8A4600904FF0C0422E4B78
:104510004046314602F082FD2C4A2B4B00E027E05A
:10452000CDE906015146009802F078FD82460191DE
:10453000274A284B4046314602F070FD5246019B07
:1045400002F092FF82460B4602460591DDE9060124
:1045500002F0FCFADDE9062300268846304602F028
:1045600083FF5246059B02F08DFE024600F07EB9A5
:104570000020B1F5801F07DA35223046614603F08E
:1045800007F906466FF0340000EB215024E00000EC
:10459000FFFF1F00FFFF0F000000F03F0000F07F53
:1045A0000000404301FCFFFF9A3600000000F0FFCE
:1045B0000000F0BF0000E0410000F043FFFFEF3FCC
:1045C0005555D53F0000E03F4715F73FFE822B656C
:1045D00044DF5DF80BAE543EA0F2FF300190C1F312
:1045E000130040F07F6141F040510291FE49884242
:1045F000D8BF002004DDFD498142C8BF012001DD94
:104600000D9008E000200D900198401C0190029848
:10461000A0F5801002900299F54878440B910D990D
:1046200000EBC100D0E900230F9330460A920B99AA
:1046300002F01AFFCDE90601DDE90A2130460F9BA1
:1046400002F084FA02460B460020EA4902F03AFBE7
:10465000059102460B460090DDE9060102F0DEFC02
:104660001490E5488A464FF00008784402990068A3
:1046700012904FF0005040EA61010D980F9B01EB42
:10468000804000F5002109910A9A129802F0ECFE90
:1046900032460B9B02F0F6FD4246534602F0BEFC4A
:1046A0000646029140465146099B129A02F0B6FC1A
:1046B000DDE9062302F0E6FD3246029B02F0D4FE5D
:1046C000059B009A02F0AAFC0091149A04905346AC
:1046D0001046194602F0A2FC06460246C7480B46A1
:1046E000029106217844FFF7E9FBCDE90510029B12
:1046F00032461046194602F091FCDDE9053202F01F
:104700008DFC05910646534640461946149A02F020
:104710001DFA009B049A02F081FC3246059B02F0D0
:1047200015FACDE90510424653461046194602F0E7
:1047300075FC0022B24B02910A9002F007FADDE903
:10474000053202F003FA0E464246AD4B404602F0F7
:104750008BFE029B0A9A02F087FEDDE9053202F029
:1047600091FD424602910A9033461046514602F0AE
:1047700055FCCDE906015346149A02990A9802F0B5
:104780004DFC8A460290334642460099049802F056
:1047900045FC5346029A02F0D9F982460B4602467E
:1047A0000591DDE9060102F0D1F9DDE906230020DB
:1047B0008846064602F058FE5246059B02F062FD0E
:1047C000824609914FF060428E4B3046414602F0DE
:1047D00025FC049006918C4A8A4B5046099902F0B8
:1047E0001DFC82460291894A894B3046414602F0BF
:1047F00015FC5246029B02F0A9F9864B7B440D9AA8
:1048000003EBC203D3E9002302F0A0F90E90079155
:10481000019802F0AFFB0591DDE9061382460E9A7E
:10482000049802F093F97C4A7A440D9B02EBC3038F
:10483000D3E900230093029202F088F95246059BC7
:1048400002F084F90026884652463046059B02F065
:104850000BFE009B029A02F007FE069B049A02F0F0
:1048600003FE079B0E9A02F00DFD024600200B4648
:1048700002903846294602F0D1FB824601912B4630
:1048800038461946029A02F0EFFD3246434602F0DE
:10489000C5FB5246019B02F059F907468A4632464B
:1048A00043462946029802F0B9FB05460E463A46B1
:1048B000534602F04BF9594A8846914221DBA8EB56
:1048C000020353EA000210D12A46334602F0CCFD1F
:1048D000CDE90401524A534B3846514602F036F9AD
:1048E000DDE9042302F098FC21D20220FBF7CEFE82
:1048F000FFF74AFB0A46214618B062F31E01BDE8E5
:10490000F08D494B28F000429A4210D3474A08EBF9
:10491000020353EA00027FF4C6AD2A46334602F092
:10492000A3FD3A46534602F077FC7FF6BCAD002269
:10493000019228F000403E493E4A01EB205182425C
:1049400023DA481C4FF4801121FA00F040443A4A1F
:10495000C0F30A517A44394BA1F2FF31CB4020EA2F
:104960000303C0F3130040F48010C1F11401C840E8
:1049700012680190B8F1000FBCBF40420190284678
:10498000314602F071FD05460E462A46334638464A
:10499000514602F0DBF84FF000084246284B4046F3
:1049A000059102F03BFBCDE90601264A264B404625
:1049B000059902F033FB009102902A4633464046A7
:1049C000059902F051FD3A46534602F05BFC1F4A3E
:1049D0001F4B02F023FB009B029A02F0B7F8074638
:1049E000884602460B4635E08E9803007AB60B00E7
:1049F000E23200000000F03F1A33000048320000AD
:104A00000000084009C7EE3FFD033ADCF5015B14E6
:104A1000E02F3EBE20310000E43000000000904056
:104A2000FE822B654715973C00CC904000346F3FC9
:104A300001FCFFFF0000E03F30300000FFFF0F00EF
:104A4000432EE63F396CA80C615C20BEEF39FAFEBC
:104A5000422EE63FDDE9060102F078F8DDE90623A3
:104A600005460E4602F000FD3A46434602F00AFCB7
:104A70000F462A46334600901046194602F0CEFAF9
:104A8000824602462E4888460B4605217844FFF7A9
:104A900015FA5246434602F0C1FA2A46334602F05E
:104AA000F1FB80468A463B4628463146009A02F092
:104AB000B5FA3B46009A02F049F8069100900022B0
:104AC0004FF080434046514602F0CEFC0F460C901A
:104AD000424653462846314602F0A0FA3B460C9A1D
:104AE00002F0F0F8069B009A02F0BEFC2A4633461C
:104AF00002F0BAFC0022134B02F0C4FB05460198F9
:104B00000E4601EB00510815002810DC28463146FE
:104B1000019A02F03DFEFFF7A1F9042808BFFFF754
:104B20003BFA28463146019A02F032FE05460B4612
:104B300018B02A4658462146BDE8F04D02F06EBA3C
:104B4000D02E00000000F03F2DE9F04105460E4652
:104B50001C4807681C480068001D00F0C7FD50B9DC
:104B60001948006890F82C100120884017490968FE
:104B7000814316480160681C38B936B11248016893
:104B8000091D134800F008FE1AE07C190E48006861
:104B90004460BC4207D20C480168091D0D480068FA
:104BA00000F0E0FD0CE008480168091D0A480068B3
:104BB00000F0D8FD09480068844201D2074804602B
:104BC000BDE8F081AC02002098020020B002002075
:104BD000F80F0020A00200209C020020C802002044
:104BE00010B5044600F0E4FD23480068401C22494B
:104BF00008602248006840B9204804600846006800
:104C000001280DD100F016FA0AE01D48006838B9F5
:104C10001A480068C06AE16A884201D817480460EF
:104C200018480068401C1749086094F82C100120AF
:104C3000884015490968084313490860E16A01EB97
:104C40008101124A02EB8100211D00F0A5FD00F058
:104C5000D9FD0B48006868B108480068C06AE16A7D
:104C6000884207D24FF0805009490860BFF34F8F48
:104C7000BFF36F8F10BD0000A80200209802002033
:104C8000B4020020C4020020B00200201C0F00204B
:104C900004ED00E008B500F08BFD12480068E8B9AB
:104CA000114800F04FFD114800F04CFD0E4810492E
:104CB00008600E480F49086000200F4B0F4A0C2176
:104CC00000900A2001F09EF8064908600846006836
:104CD00020B10BA10348006800F04CFE00F092FDEB
:104CE00008BD0000DC0200200C1000202010002075
:104CF000D4020020D8020020341000207C100020B4
:104D0000546D72510000000010B516E000F050FD27
:104D10000C48C068C468201D00F0E8FC0A48006820
:104D2000401E0949086009480068401E074908609C
:104D300000F068FD204600F05EF804480068002896
:104D4000E4D110BDE40F0020A8020020A40200203E
:104D500070B504460D46206C70B1216CE0680844C3
:104D6000E0606168E068884201D32068E06028461E
:104D7000226CE168FBF7C2FB70BD2DE9F0410446EF
:104D80000F4615464FF00008A66B206C40B920680E
:104D900060BB606801F08EFC80460020606025E00A
:104DA0007DB93946226CA068FBF7A8FB216CA0688E
:104DB0000844A060D4E90110884217D32068A0609D
:104DC00014E03946226CE068FBF798FB216CE06840
:104DD000401AE0602168E068884203D2216C606874
:104DE000401AE060022D01D106B1761E701CA0634E
:104DF0004046BDE8F08110B5044694F8510030B942
:104E0000206B00F01DFD204600F01AFD1AE094F81A
:104E10005100012803D1204600F012FD12E094F861
:104E20005100022801D1012000E0002050B900BF4C
:104E3000502080F31188BFF34F8FBFF36F8F00BFF7
:104E400000BFFEE710BD00000146084A1268126864
:104E50000AB9012200E000220A600A6822B9034A66
:104E60001268D268106800E000207047D402002069
:104E700030B54FF44063174800F007042CB1C01D53
:104E800020F00700134C041B1B1B0246124C22602F
:104E90000024114D6C60D018083820F007000F4C2A
:104EA000206000240D4D2D686C600C4D2D682C6029
:104EB0001146441A4C60094C24680C60084D4C683B
:104EC0002C60084D4C682C604FF00044064D2C605F
:104ED00030BD0000F4100020E8020020F0020020A5
:104EE000F8020020F4020020FC02002000BFFFF7BF
:104EF0000BFF064800680128F9D94FF0805004499B
:104F00000860BFF34F8FBFF36F8FF0E71C0F0020D7
:104F100004ED00E02DE9F04106460D46174698469F
:104F2000069C0DB9246000E02760E663256401213A
:104F3000204600F0D7FFBDE8F0812DE9FF5F8146F4
:104F40000F469246DDE90E6B109CAAF10100216B21
:104F500001EB800828F0070808F0070008B90120D5
:104F600000E0002050B900BF502080F31188BFF34B
:104F70004F8FBFF36F8F00BF00BFFEE7002507E034
:104F8000795D04F134004155785D00B902E06D1C93
:104F9000102DF5D300BF002143200155072E00D36B
:104FA0000626E66266640020A064201D00F0D7FBA0
:104FB00004F1180000F0D3FB2461C6F10700A061E2
:104FC00064620020E06484F8500049464046039A39
:104FD00000F054FB2060BBF1000F01D0CBF8004083
:104FE000BDE8FF9F2DE9F04706460D461746984657
:104FF000DDE908940DB1012000E0002050B900BFA8
:10500000502080F31188BFF34F8FBFF36F8F00BF25
:1050100000BFFEE75CB1FFF73DFE2660A561E761DA
:10502000C4F82080C4F82490201D00F098FBBDE84F
:10503000F087000010B5002407E004EB84010F4A5C
:1050400002EB810000F07EFB641C072CF5D30C48BA
:1050500000F078FB0B4800F075FB0B4800F072FB8A
:105060000A4800F06FFB0A4800F06CFB044809494D
:10507000086004480849086010BD00001C0F0020AB
:10508000A80F0020BC0F0020D00F0020E40F00204C
:10509000F80F00209C020020A002002010B501465D
:1050A000164800E0006803688B42FBD30246436861
:1050B00013448B4204D143684C6823444360014647
:1050C0000A464B6813440468A34211D10C4C036890
:1050D0002468A34208D04B680468646823444B608A
:1050E00003681B680B6005E0054B1B680B6001E063
:1050F00003680B60884200D0016010BDE802002008
:10510000F00200202DE9F04104460D4616461F46E8
:105110004FF0000865602461B5420CD8F01BA1690E
:10512000884202D34FF0010811E0211D09480068B0
:1051300000F018FB0BE0BE4204D2BD4202D34FF098
:10514000010804E0211D0448006800F00BFB404604
:10515000BDE8F081D8020020D402002070B50546D9
:1051600000F026FBA86B08B9012400E0002400F041
:1051700049FB204670BD70B5054600F019FBA86BD1
:10518000E96B884201D1012400E0002400F03AFBE1
:10519000204670BDF8B505460F4616480068C06841
:1051A000C468201D00F0A2FAE06901281DD1A069A1
:1051B00041192B463A462046FFF7A4FFA8B100202C
:1051C00003462A4601460090204601F035FC06467B
:1051D00056B900BF502080F31188BFF34F8FBFF343
:1051E0006F8F00BF00BFFEE700BF2046616A88479F
:1051F000F8BD0000D402002070B586B06DE00398C1
:1052000000286ADB059C606908B9012000E00020E5
:1052100010B9201D00F06AFA02A800F0BFF8054698
:1052200003980A2857D2DFE800F009050731334F09
:105230000608323400BF00BF00BF00BF0498A26957
:10524000811803462A462046FFF75CFFE8B1204656
:10525000616A8847E069012817D10020009004980E
:10526000A169421800231946204601F0E5FB0646D5
:1052700056B900BF502080F31188BFF34F8FBFF3A2
:105280006F8F00BF00BFFEE700BF25E000BF23E037
:1052900000BF0498A061A06908B1012000E00020CF
:1052A00050B900BF502080F31188BFF34F8FBFF378
:1052B0006F8F00BF00BFFEE7A06941192B462A4649
:1052C0002046FFF71FFF07E094F8280010B920469A
:1052D00000F0B6FA00E000BF00BF002203A90448B6
:1052E000006800F09BFF002889D106B070BD000067
:1052F000DC020020F8B505460C4600F0B9FC684613
:1053000000F04CF80646009820BB44B9B54206D8D8
:1053100001F080FA31462846FFF73CFF1CE03CB123
:105320000E480068006808B9012000E0002004462B
:10533000A91B22460A48006800F032FB01F06AFA15
:1053400050B94FF0805007490860BFF34F8FBFF34B
:105350006F8F01E001F05EFAF8BD0000D802002076
:10536000DC02002004ED00E00A490968096809B977
:10537000012100E0002121B14FF0FF31064A116008
:1053800006E004490968C968C868034A41681160B1
:10539000704700009C020020C802002070B504463F
:1053A00001F0D4F8054607480068854204D200F0B1
:1053B0000BF80120206001E000202060014805601A
:1053C000284670BDE40200202DE9F84332E024486D
:1053D0000068C068056822480068C068C468201D6D
:1053E00000F084F92046616A8847E069012821D1EC
:1053F000A0694619AE4207D966602461211D18488C
:10540000006800F0AFF915E0002003462A46014687
:105410000090204601F010FB074657B900BF50200E
:1054200080F31188BFF34F8FBFF36F8F00BF00BFB2
:10543000FEE700BF0A480068006808B9012000E0E4
:1054400000200028C3D00648D0F800800548006836
:10545000034908600348C0F80080BDE8F8830000F5
:10546000D4020020D80200200E480068401C08B971
:10547000012000E0002050B900BF502080F31188C7
:10548000BFF34F8FBFF36F8F00BF00BFFEE700BFBA
:10549000502080F31188BFF34F8FBFF36F8F00BF91
:1054A00000BFFEE70003002008B500BF6846FFF715
:1054B000CBFC044620460099FFF71CFFFFF79CFE3B
:1054C000F4E770B5044600F073F994F9455010E024
:1054D000606A08B9012000E0002038B904F1240016
:1054E00001F04CF918B100F025FB00E003E0681E64
:1054F00045B2002DECDC00BFFF2084F8450000F031
:1055000081F900F055F994F9445010E0206908B988
:10551000012000E0002048B904F1100001F02EF94C
:1055200008B100F007FB681E45B200E001E0002D65
:10553000ECDC00BFFF2084F8440000F063F970BD8C
:105540002DE9F04104464FF0000800F091FB464879
:10555000006808B9FFF78CFC444800682040002828
:105560006BD1D4B1083404F00700B0B104F00700E7
:10557000C0F10800044404F0070008B9012000E06D
:10558000002050B900BF502080F31188BFF34F8F27
:10559000BFF36F8F00BF00BFFEE7002C4DD0344833
:1055A0000068844249D8334E3046056801E02E46F3
:1055B0002D686868A04202D228680028F7D12A48DE
:1055C0000068854239D0306800F1080828683060EA
:1055D0006868001B102819D92F1907F0070008B9AF
:1055E000012000E0002050B900BF502080F3118856
:1055F000BFF34F8FBFF36F8F00BF00BFFEE7686838
:10560000001B78606C603846FFF748FD18496868F1
:105610000968081A164908600846006816490968AA
:10562000884203D212480068134908600F4968682D
:105630000968084368600020286001F0EBF808F072
:10564000070008B9012000E0002050B900BF502039
:1056500080F31188BFF34F8FBFF36F8F00BF00BF80
:10566000FEE74046BDE8F081F0020020FC02002089
:10567000F4020020E8020020F8020020001F4FF092
:1056800080730360001F21F001030360001F034BC0
:105690000360143802602038704700006954000825
:1056A0002DE9F04106460F4601F0F8FD041E0D46B7
:1056B00018BF0120284320F00040C0F17F6000F1B6
:1056C000E040C00F0ED0301C18BF0120384320F03E
:1056D0000040C0F17F6000F1E040C00F04BF012036
:1056E000FAF7D4FF20462946BDE8F08101460A6951
:1056F000D1E901309860D1E90103586050688842CF
:1057000001D188685060002008611068401E106058
:1057100010687047034B0360034B0B6080231360DA
:1057200070470000280500207C050020034B036023
:10573000034B0B604FF48073136070477C070020AD
:10574000D007002000F1080141604FF0FF31816077
:1057500000F10801C1600161002101607047002172
:105760000161704710B502460B685C1C0CB91069EA
:1057700007E002F1080000E04068446824689C42A9
:10578000FAD944684C604C68A160886041600A6145
:105790001468641C146010BD42684A6093688B6092
:1057A000936859609160086103685B1C03607047EF
:1057B00000BF502080F31188BFF34F8FBFF36F8F6E
:1057C00000BF0E480068401C0C490860084600688D
:1057D000012812D10A480068C0B208B9012000E0CF
:1057E000002050B900BF502080F31188BFF34F8FC5
:1057F000BFF36F8F00BF00BFFEE7704700030020BC
:1058000004ED00E00D48006850B900BF502080F35F
:105810001188BFF34F8FBFF36F8F00BF00BFFEE74C
:1058200006480068401E054908600846006820B91F
:10583000002080F3118800BF00BF704700030020E4
:1058400070B506463546002E3FD0083D2C461F4910
:1058500060680968084008B1012000E0002050B9E4
:1058600000BF502080F31188BFF34F8FBFF36F8FBD
:1058700000BF00BFFEE7206808B9012000E000205B
:1058800050B900BF502080F31188BFF34F8FBFF392
:105890006F8F00BF00BFFEE70C49606809680840D1
:1058A00098B1206888B909496068096888436060D0
:1058B00000F0DEF906496068096808440449086098
:1058C0002046FFF7EBFB00F0A5FF70BDFC020020B7
:1058D000F402002000204FF0E021086188610648B2
:1058E00000684FF47A71B0FBF1F0401E4FF0E021F8
:1058F00048610720086170479402002070B5FAF7EC
:10590000C1FC0446102C16D304F1E02090F8F053AB
:1059100015480078854201DB012000E0002050B9E5
:1059200000BF502080F31188BFF34F8FBFF36F8FFC
:1059300000BF00BFFEE70D48006800F4E0600C49BE
:105940000968884201D8012000E0002050B900BF5A
:10595000502080F31188BFF34F8FBFF36F8F00BFCC
:1059600000BFFEE770BD0000040300200CED00E066
:1059700008030020024600200BE0084B53F83030AB
:1059800033B9064B43F8301003EBC0035A6002E012
:10599000401C0828F1D300BF70470000DC0E002037
:1059A0002DE9F04105460E4617462C46FFF700FF4D
:1059B00094F94400401C10B9002084F8440094F984
:1059C0004500401C10B9002084F84500FFF71AFF7D
:1059D000A06B28B93A46314604F1240000F0CCF817
:1059E0002046FFF76EFDBDE8F081000070B504466B
:1059F0000025D4B11248006808B9012000E0002059
:105A000050B900BF502080F31188BFF34F8FBFF310
:105A10006F8F00BF00BFFEE700F02AF9002120468B
:105A2000FFF792F800F0F6FE05463DB94FF08050C2
:105A300004490860BFF34F8FBFF36F8F70BD000044
:105A4000D002002004ED00E02DE9F04704460F46A7
:105A50004FF0000954B900BF502080F31188BFF304
:105A60004F8FBFF36F8F00BF00BFFEE70FB1012064
:105A700000E0002050B900BF502080F31188BFF330
:105A80004F8FBFF36F8F00BF00BFFEE72048006855
:105A900008B9012000E0002050B900BF502080F379
:105AA0001188BFF34F8FBFF36F8F00BF00BFFEE7BA
:105AB00000F0DEF8174806682068C5192068B04273
:105AC00007D92068A8420BD9B54209D94FF001097E
:105AD00006E02068A84201D8B54201D94FF001097B
